:020000040800F2
:1000000008110020D98400086B8100086D81000868
:1000100071810008758100087981000800000000E6
:100020000000000000000000000000007D810008CA
:100030007F810008000000008181000883810008A2
:10004000F3840008F3840008F3840008F3840008B4
:10005000F3840008F3840008F38400086353000865
:10006000F3840008F3840008F3840008F384000894
:10007000F3840008F3840008F3840008F384000884
:10008000F3840008F3840008F3840008E50C0008FA
:10009000C10C0008F3840008F3840008F38400080E
:1000A000F3840008F3840008F3840008F384000854
:1000B0003F31000865310008E9320008F384000888
:1000C000F3840008F3840008F3840008F384000834
:1000D000F3840008F3840008F13C0008452F000871
:1000E000F3840008F3840008F3840008F384000814
:1000F000F3840008F3840008F3840008F384000804
:10010000F3840008F3840008F3840008F3840008F3
:10011000F3840008F3840008F3840008F3840008E3
:10012000F3840008F3840008F3840008F3840008D3
:10013000F3840008F3840008F3840008B110000879
:100140008F100008F3840008F3840008F38400088B
:100150006F090008F3840008F3840008AB2F00083F
:10016000F3840008F3840008F3840008F384000893
:10017000F3840008F3840008F3840008F384000883
:10018000F3840008F3840008F3840008F384000873
:10019000F3840008F3840008F3840008F384000863
:1001A0000000000000000000F384000800F002F8E6
:1001B00000F06CF80AA090E8000C82448344AAF195
:1001C0000107DA4501D100F061F8AFF2090EBAE893
:1001D0000F0013F0010F18BFFB1A43F0010318477B
:1001E000FCAE00001CAF00000A444FF0000C10F8F9
:1001F000013B13F0070408BF10F8014B1D1108BFA5
:1002000010F8015B641E05D010F8016B641E01F844
:10021000016BF9D113F0080F1EBF10F8014BAD1C94
:100220000C1B09D16D1E58BF01F801CBFAD505E0B2
:1002300014F8016B01F8016B6D1EF9D59142D6D30C
:10024000704700000023002400250026103A28BF34
:1002500078C1FBD8520728BF30C148BF0B60704738
:1002600066290AF0BA85642908F064810020704785
:100270001FB50AF0A8FD08F01DFD040000200021B4
:1002800009F0D6FFE0601FBD10B510BD08F032FECA
:100290001146FFF7EDFF00F009F808F050FE03B437
:1002A000FFF7F2FF03BC02F073FD000086B001F01F
:1002B000FDF901F037FA02F065FB00F03CFB30B9C4
:1002C00000201449487014A008F028F902E0012029
:1002D000104948701DE01548D0F8A0001349D1F826
:1002E000C410124AB2F9B220104BD3F89C30CDE9B9
:1002F0000132CDE903100D48D0F8980000900B486A
:10030000B0F9FA30D0F8E420D0F8E010084808F04E
:1003100005F9E0E75C0200207263206461746120EB
:100320006572726F72200D0A000000000404002044
:100330007CB000086B480078704770476A4890EDC1
:10034000230A6A4880ED010A674890ED240A67484D
:1003500080ED020A644890ED250A644880ED030AA6
:100360007047F8B562480078012848D161480068B4
:10037000401C604908604FF4E16002F0FFF85D48FE
:10038000006841F27C51884206DB08465949086002
:100390000D205949086002E0192057490860574864
:1003A000006820B9564841680120884703E0544856
:1003B0004168002088475348006820B950480168C8
:1003C0000020884703E04E4801680120884700F07C
:1003D000A3F8022814D100231A4619464A4800F00F
:1003E0008CFC00200346024601460090464800F07F
:1003F000B2FC00231A461946184600F064FE6FE06E
:10040000424801F0D0FABDEEC00A10EE100A04B264
:1004100001F07FFABDEEC00A10EE100A05B23C48AA
:1004200090ED640ABDEEC00A10EE100A02B2234637
:100430002946354800F061FC354890ED400ABDEE94
:10044000C00A10EE100A00B20090314890ED2E0A5A
:10045000BDEEC00A10EE100A03B22D4890ED1C0A42
:10046000BDEEC00A10EE100A02B2294890ED0A0A49
:10047000BDEEC00A10EE100A01B2234800F06BFC7A
:10048000244CB4F98E30B4F96A20B4F94610B4F9AA
:10049000220000F018FE04F1D80001F084FABDEE4D
:1004A000C00A10EE100A04B21A48B43001F07BFA08
:1004B000B1EE400ABDEEC00A10EE100A05B21548B2
:1004C000903001F070FAB1EE400ABDEEC00A10EEB5
:1004D000100A06B2002322462946304600F034FEB8
:1004E000F8BD0000680000205C090020000000202A
:1004F000690000206C000020400401402882434233
:10050000100200200802404200640040E003002086
:100510000005002004040020F74800787047B0F977
:100520002E1000EE101AB8EEC00ADFEDF40A20EE2D
:10053000200A80ED250A3421095C012902D1F04A04
:10054000117006E03521095C012902D10221EC4A33
:100550001170EB490978012971D1C18E012906D0AA
:1005600002291AD004292ED0082958D141E09FED44
:10057000E50A80ED230A90ED240ADFEDE30AB4EEEC
:10058000E00AF1EE10FA07D890ED240ADFEDDF0A59
:1005900030EE200A80ED240A81E09FEDDA0A80ED3A
:1005A000230A90ED240ADFEDDA0AB4EEE00AF1EE58
:1005B00010FA07DB90ED240ADFEDD40A30EE600A72
:1005C00080ED240A6BE09FEDCF0A80ED240A90EDC8
:1005D000230ADFEDCF0AB4EEE00AF1EE10FA07DBF2
:1005E00090ED230ADFEDC90A30EE600A80ED230AA0
:1005F00055E09FEDC40A80ED240A90ED230ADFED5B
:10060000C20AB4EEE00AF1EE10FA07D890ED230A20
:10061000DFEDBE0A30EE200A80ED230A3FE090EDC8
:10062000230AB5EEC00AF1EE10FA09DD90ED230AB7
:10063000DFEDB60A30EE600A80ED230A0FE02FE00E
:1006400090ED230AB5EEC00AF1EE10FA07D290ED54
:10065000230ADFEDAE0A30EE200A80ED230A90ED8A
:10066000240AB5EEC00AF1EE10FA08DD90ED240A76
:10067000DFEDA60A30EE600A80ED240A0EE090ED70
:10068000240AB5EEC00AF1EE10FA07D290ED240A62
:10069000DFED9E0A30EE200A80ED240A00BF6FE0F5
:1006A0009749097802296BD1C18E012906D0022908
:1006B0001CD0042932D0082960D147E09549096847
:1006C000491C944A1160114609680A2906DB002179
:1006D000116091490968491C8F4A11608E49096867
:1006E000192902DB19218C4A116048E089490968FF
:1006F000491C884A1160114609680A2906DB002155
:10070000116085490968491E834A11608249096858
:10071000052902DC0521804A116030E07D49096825
:10072000491C7C4A1160114609680A2906DB002130
:1007300011607A490968491C784A1160774909684B
:10074000192902DB1921754A116018E071490968FD
:10075000491C704A1160114609680A2906DB00210C
:1007600011606E490968491E6C4A11606B4909683D
:10077000052902DC0521694A116000E000BF00BFC5
:1007800065490968664A516364490968916370471D
:10079000B0F92410A1F5806101EB8101490000EE60
:1007A000101AB8EEC00A80ED230AB0F92610A1F5A0
:1007B000806101EB8101490000EE101AB8EEC00A19
:1007C00080ED240AB0F92810A1F58061C1EB011178
:1007D00000EE101AB8EEC00A80ED250A70472D21F0
:1007E000095C012902D1444A11700CE02D21095CF9
:1007F000032902D1404A117005E02D21095C02292C
:1008000001D13D4A1170704710B504460120454999
:10081000087000204449C861444800784349497839
:1008200040EA0120C0F30A00A08440484078C0108C
:100830003E49897840EA4110C0F30A01E1843B480F
:10084000807880113949C97840EA810037490979AF
:1008500040EA8120C0F30A01218534480079401024
:100860003249497940EAC110C0F30A0161852F4835
:100870004079001181082C2001552C484079C0F3A3
:1008800001112D200155294880792849C97940EA6C
:10089000012001B2E1852548007A2449497A40EADD
:1008A000012001B221862148807A2049C97A40EA94
:1008B000012001B261861D48017B84F83410417B20
:1008C00084F83510807B1949C97B40EA0121E18613
:1008D0002046FFF784FFFFF71FFE012804D00228FF
:1008E00026D0032825D103E02046FFF751FF20E062
:1008F0002046FFF714FE1CE0740000200000344383
:10090000750000200000000000A00C460000C84355
:1009100000A00CC678000020800000208400002089
:10092000000001405C0200203C080020D0070020AD
:1009300000BF00BF10BD1748B0F92400B0F5806FAC
:1009400011D11448B0F92600B0F5806F0BD11148D1
:10095000B0F92800B0F5806F05D10E48B0F92A0033
:10096000B0F5806F01D0002070470120FCE710B582
:1009700009490A4806F095FA01280AD106490748AC
:1009800006F0ABFA0449054806F002FB0148FFF700
:100990003BFF10BD5C0900200088002088640240F5
:1009A0000146FE48B0F90000FD4A1080FB48018076
:1009B000B0F90000B2F90020801AFA4A904206DA33
:1009C000F9480088401C00B2F74A108010E0F34854
:1009D000B0F90000F24AB2F90020801A41F658320C
:1009E000904205DDF0480088401E00B2EE4A1080BB
:1009F000ED48B0F90000C0EB4030E84AB2F9002001
:100A0000104470470146E948B0F90000E84A1080F8
:100A1000E6480180B0F90000B2F90020801AE14AEE
:100A2000904206DAE3480088401C00B2E14A108098
:100A300010E0DE48B0F90000DD4AB2F90020801A6B
:100A400041F65832904205DDDA480088401E00B277
:100A5000D84A1080D748B0F90000C0EB4030D34AE4
:100A6000B2F90020104470470146D048B0F90000A8
:100A7000CF4A1080CD480180B0F90000B2F90020C3
:100A8000801AC84A904206DACA480088401C00B260
:100A9000C84A108010E0C548B0F90000C44AB2F955
:100AA0000020801A41F65832904205DDC148008886
:100AB000401E00B2BF4A1080BE48B0F90000C0EB33
:100AC0004030BA4AB2F90020104470470246108BF9
:100AD00050831183B2F91800B2F91A30C01AB64B1C
:100AE000984203DAD069401CD0610BE0B2F91800DB
:100AF000B2F91A30C01A41F27073984202DDD0691F
:100B0000401ED061B2F91800D369C3EB43331844D7
:100B1000704710B586B0044601AA0021A74805F029
:100B200016FE0198A0F2012007287DD2DFE800F030
:100B300004111F2D3B6299000020A14908609DF817
:100B400012109DF8110001EB002000B29D49C881F0
:100B5000B3E000209A4948609DF812109DF81100FA
:100B600001EB002001B29748A0F85610A5E0002044
:100B7000934988609DF812109DF8110001EB002048
:100B800001B29048A0F89E1097E000208C49C86000
:100B90009DF812109DF8110001EB002001B2894868
:100BA000A0F8E61089E00020854908619DF8121040
:100BB0009DF8110001EB002001B28248A0F82E112F
:100BC0009DF810109DF80F2001EB022108B2FFF7ED
:100BD0004BFF132190FBF1F07B4908607B480078C4
:100BE00038B90846008800B2794908800120774961
:100BF000087062E00020724948619DF812109DF86B
:100C0000110001EB002001B26E48A0F876119DF8AA
:100C100012109DF8110001EB002001B26D48A0F800
:100C2000D4109DF8100000E046E09DF80F2040EA47
:100C3000022001B26748B430FFF748FF132190FB50
:100C4000F1F16448C0F8BC1060480078022807D170
:100C500003205E4908705F48D0F8BC10C0F8C4108B
:100C60002BE00020564988619DF812109DF8110074
:100C700001EB002001B25748A0F8F8109DF81000D1
:100C80009DF80F2040EA022001B25248D830FFF709
:100C90001DFF132190FBF1F14E48C0F8E0104B48C6
:100CA0000078012807D10220484908704948D0F847
:100CB000E010C0F8E81000E000BF00BF06B010BDB3
:100CC00010B502213D4805F0C5FE50B102213B4858
:100CD00005F05BFF4049394805F099FE3F48FFF7B2
:100CE00018FF10BD10B50121344805F0B3FE18B14E
:100CF0000121324805F049FF10BDF0B585B0074627
:100D00000C4615461E4640F2FF10009000208DF85C
:100D100008008DF8090008208DF80A00200A8DF8D7
:100D20000B00E1B28DF80C10290A8DF80D10E9B214
:100D30008DF80E10310A8DF80F10F1B28DF81010E9
:100D400000218DF811108DF812106946384605F013
:100D500009FC05B0F0BD2DE9F04186B080460C4697
:100D600015461E460C9F4FF40070019000208DF830
:100D70000C008DF80D0008208DF80E00200A8DF86B
:100D80000F008DF81040290A8DF811108DF81250BF
:100D9000310A8DF813108DF8146021E08C000020CA
:100DA0008E000020A8E4FFFF8800002090000020B3
:100DB000920000208A00002090E8FFFF00640040BD
:100DC0003C08002000050020940000203002002094
:100DD0009800002008030020080000325C09002071
:100DE000390A8DF815108DF8167001A9404605F0E6
:100DF000B9FB06B0BDE8F08100B585B06A460021B8
:100E0000F24805F0A4FC0098A0F2012007287DD24A
:100E1000DFE800F004305F90BFE7FE009DF80E10A1
:100E20009DF80D0001EB002000B2E949C8819DF852
:100E30000E109DF80D0001EB002000B2E54908847A
:100E40009DF80C009DF80B2040EA022001B2E14819
:100E5000FFF73CFE132190FBF1F0DE498860DE488D
:100E6000007830B90120DC490870DA488068D94937
:100E7000086109E19DF80E109DF80D0001EB0020BE
:100E800001B2D348A0F856109DF80E109DF80D0041
:100E900001EB002001B2CF48A0F844109DF80C00EF
:100EA0009DF80B2040EA022001B2CA482430FFF727
:100EB0000DFE132190FBF1F1C648C162C6480078CF
:100EC000042805D10520C4490870C248C16A41639D
:100ED000DAE09DF80E109DF80D0001EB002001B244
:100EE000BB48A0F89E109DF80E109DF80D0001EB78
:100EF000002001B2B748A0F868109DF80C009DF8DA
:100F00000B2040EA022001B2B24800E0BBE04830CA
:100F1000FFF7DCFD132190FBF1F1AE480165AE480F
:100F20000078052805D10620AB490870A948016D55
:100F30008165A9E09DF80E109DF80D0001EB0020E1
:100F400001B2A348A0F8E6109DF80E109DF80D0020
:100F500001EB002001B29F48A0F88C109DF80C0016
:100F60009DF80B2040EA022001B29A486C30FFF74E
:100F7000ADFD132190FBF1F196484167964800784A
:100F8000062805D10720944908709248416FC1672F
:100F90007AE09DF80E109DF80D0001EB002001B2E3
:100FA0008C48A0F8B0109DF80C009DF80B2040EA8A
:100FB000022001B287489030FFF788FD602190FB46
:100FC000F1F18448C0F8981083480078072807D1C9
:100FD0000820814908707F48D0F89810C0F8A01008
:100FE00052E09DF80E109DF80D0001EB002001B2BB
:100FF0007848A0F8D4109DF80C009DF80B2040EA2A
:10100000022001B27348B430FFF760FD602100E0B8
:1010100011E090FBF1F16F48C0F8BC106E48007809
:10102000082807D109206C4908706A48D0F8BC101C
:10103000C0F8C41028E09DF80E109DF80D0001EBDB
:10104000002001B26348A0F8F8109DF80C009DF84C
:101050000B2040EA022001B25E48D830FFF736FD8F
:10106000132190FBF1F15B48C0F8E0105A4800787A
:10107000092807D10A20584908705648D0F8E010CE
:10108000C0F8E81000E000BF00BF05B000BD10B51B
:1010900002214E4805F0DEFC48B102214B4805F024
:1010A00074FD4E49494805F0B2FCFFF7A5FE10BD9E
:1010B00010B50121454805F0CDFC18B10121434888
:1010C00005F063FD10BD2DE9F04385B004460D46E3
:1010D00016461F464FF000094FF4007000900020A4
:1010E0008DF808008DF8090008208DF80A00200A04
:1010F0008DF80B00E1B28DF80C10290A8DF80D1057
:10110000E9B28DF80E10310A8DF80F10F1B28DF89A
:101110001010390A8DF81110F9B28DF812106946C5
:101120002A4805F01FFA804600BF4146274805F0CF
:10113000B1FA30B9484609F1010940F6FF71884219
:10114000F3DB05B0BDE8F0832DE9F04385B004463C
:101150000D4616461F464FF0000940F2FF10009062
:1011600000208DF808008DF8090008208DF80A008D
:10117000200A8DF80B00E1B28DF80C10290A8DF8C9
:101180000D10E9B28DF80E10310A8DF80F10F1B282
:101190008DF81010390A8DF81110F9B28DF812106F
:1011A00069460A4805F0DEF9804600BF4146074817
:1011B00005F070FA30B9484609F1010940F6FF71AF
:1011C0008842F3DB05B0BDE8F08300000068004012
:1011D000B006002004040020300200200800003285
:1011E00003468B4201DA08467047934201DD104600
:1011F000FAE71846F8E7F0B504460026208861882B
:10120000401A05B23A480088281A00B200EE100AC7
:101210003848B0F90000022101FB10503449098818
:10122000084400B200EE900A94ED021AF8EEC01ADB
:1012300061EE211A94ED032A01EE105AF8EEC12A4C
:10124000B0EE611A02EE221AD4ED041AB8EEE02ACA
:1012500001EE821ABDEEC11A11EE100A07B2F019A2
:1012600006B2B4F9042051423046FFF7B9FF00B28C
:10127000A0822048B0F900001D4908801D48058063
:10128000F0BDF0B5044620886188401A05B2701997
:1012900006B219480088281A00B200EE100A164853
:1012A000058094ED021A00EE905AF8EEE00A21EE65
:1012B000201AD4ED031A00EE905AB8EEE02AF0EEB0
:1012C000410A42EE210A94ED041AF8EEC01A41EEEA
:1012D000810AFDEEE00A10EE900A07B2B4F904208C
:1012E00051423846FFF77CFF00B2A082F0BD0000FB
:1012F000980100209A0100209C01002010B52DEDDE
:10130000048B044600BF00BF00BF2088401C00B211
:101310002080B4F90000B0F5487F02DD4FF448703A
:101320002080B4F90410B4F90220891A4FF4B47281
:1013300001FB02F0C11700EBD1414913494200EE15
:10134000101AB8EEC00AD4ED020A20EE208A94EDFD
:10135000040A30EE080AB1EE400AD4ED030A60EE4A
:10136000208AB4F900205142BDEEE80A10EE100ABE
:10137000FFF736FF00EE100AB8EEC09AB0EE490A49
:10138000BDEC048B10BD10B52DED048B04469FED14
:10139000B80AB0EE408A9FEDB60AF0EE408A9FEDA3
:1013A000B40AB0EE409A41F29410208094ED060AFF
:1013B000D4ED050A30EE200AB1EE400AD4ED020A5F
:1013C00020EE200AB0EE408A94ED040A38EE400A7E
:1013D000D4ED030A20EE200AF0EE408AB4F9002092
:1013E0005142BDEEE80A10EE100AFFF7F9FE00EEDA
:1013F000100AB8EEC00AB0EE409AB0EE490ABDEC51
:10140000048B10BD10B50446FEF794FF80B99FED24
:10141000980A984880ED070A80ED250A2046FFF7D4
:101420006DFFBDEEC00A10EE100A00B2A08308E006
:101430002046FFF7A8FFBDEEC00A10EE100A00B26A
:10144000A08310BD10B52DED028B04469FED880AD8
:10145000B0EE408A9FED860AF0EE408AB4F90200B1
:10146000B4F90410401A00EE100AB8EEC00A82481F
:1014700080ED000A81480068401C804908600846E9
:101480000068B0F57A7F0CDCB4F9040000EE100AB5
:10149000B8EEC00A7A4880ED000A9FED750A84ED27
:1014A000060A78480078E8BB7348D0ED000A9FED43
:1014B000761A80EE810A7248D0ED000A30EE200ADA
:1014C00080ED000AB4F9020000EE100AB8EEC00A7E
:1014D0006B48D0ED000A30EEC00AB5EEC00AF1EE5E
:1014E00010FA0BDDB4F9020000EE100AB8EEC00AE3
:1014F0006348D0ED000A30EEC00A0CE0B4F90200F7
:1015000000EE100AB8EEC00A5D48D0ED000A30EED9
:10151000C00AB1EE400ADFED5D0AB4EEE00AF1EE7A
:1015200010FA00E00EE00DD2B4F9020000EE100A4D
:10153000B8EEC00A524880ED000A012051490870F7
:1015400053490870534890ED000AF1EE000A30EE5E
:10155000200A80ED000A90ED000ADFED4F0AB4EE9C
:10156000E00AF1EE10FA03DD9FED4B0A80ED000A70
:10157000B4F9040000EE100AB8EEC00A4048D0EDFD
:10158000000A30EE600AD4ED060A30EE200ADFEDE4
:10159000430A20EE200A9FED421AC0EE010A94EDA4
:1015A000020A20EE800AB0EE408A94ED040A38EE7A
:1015B000400AD4ED030A20EE200AF0EE408A3548B6
:1015C00090ED000ABDEEC00A10EE102A90ED000A60
:1015D000B1EE400ABDEEC00A10EE101ABDEEE80AE8
:1015E00010EE100AFFF7FCFD00B2A083BDEC028BE9
:1015F00010BD01461F48B0F96C00081A00EE100A31
:10160000B8EEC00ADFED270A20EE200ABDEEC00AC0
:1016100010EE100A00B2704710B504461549B1F932
:10162000741000EE101AF8EEC00A00EE104AB8EE80
:10163000C00A9FED1D1A40EE410ABDEEE00A10EE11
:10164000100A41F270725142FFF7CAFD01B2094817
:10165000A0F876100146B1F97610484241F2707256
:101660005142FFF7BDFD01B20248A0F87E1010BD47
:10167000000000005C090020A8010020B401002047
:10168000A4010020B00100200080BB4400004842BB
:1016900068000020AC01002000A08C450000B4438D
:1016A000000000469A99193FCDCCCC3D10B50024DE
:1016B00000BF11E004EBC401FE4A02EBC1009FED44
:1016C000FE1ADFEDFE0AB1EE040A4FF4FA731A01B6
:1016D000042101F024F9641C042CEBDB002411E04C
:1016E00004EBC401F64A02EBC1009FEDF31ADFEDF3
:1016F000F50AB7EE000A4FF4FA731A01042101F05B
:101700000EF9641C042CEBDB9FEDEB1AF7EE080AD4
:10171000B1EE080A4FF4FA731A010421EA4801F005
:10172000FEF810BD002000BF1FE0B0EE000A00EB85
:10173000C001E64A02EB810181ED000AB0EE0C0A1D
:1017400000EBC00102EB810181ED010A002100EBF9
:10175000C002DE4B03EB8202D1614FF4805100EBFB
:10176000C00203EB82021183401C0428DDDB04204D
:101770001FE0B1EE000A00EBC001D44A02EB810188
:1017800081ED000AB2EE050A00EBC00102EB810117
:1017900081ED010A002100EBC002CC4B03EB820279
:1017A000D1614FF4805100EBC00203EB8202118340
:1017B000401C0628DDDBB1EE000AC44981ED360A83
:1017C000B2EE010A81ED370A0022C1F8F4204FF48D
:1017D0008052A1F8F020B1EE080ABD4981ED2D0A32
:1017E000B2EE050A81ED2E0A0022C1F8D0204FF496
:1017F0008052A1F8CC20B2EE040A81ED360A9FEDAA
:10180000B50A81ED370A0022C1F8F4204FF4805266
:10181000A1F8F020704710B50024AF4890ED020AFF
:10182000D0ED030A30EE200AD0ED010A30EE200A96
:10183000BDEEC00A10EE100A00B29E498881A6488B
:1018400090ED020AD0ED030A30EE600AD0ED010AF5
:1018500030EE600AB1EE400ABDEEC00A10EE100A8A
:1018600001B29448A0F854109B4890ED020AD0EDC4
:10187000030A30EE200AD0ED010A30EE600ABDEE18
:10188000C00A10EE100A01B28A48A0F89C109248D3
:1018900090ED020AD0ED030A30EE600AD0ED010AA5
:1018A00030EE200AB1EE400ABDEEC00A10EE100A7A
:1018B00001B28048A0F8E41000BF07E004EBC401C7
:1018C0007C4A02EBC10000F08DFF641C042CF5DBA8
:1018D00000241BE004EBC401764A02EBC10191ED48
:1018E0000A0ABDEEC00A10EE100A42F22832514236
:1018F000FFF776FC00EE100AB8EEC00A04EBC40055
:101900006C4901EBC00080ED0A0A641C042CE1DB89
:1019100010BD10B52DED068BB1EE080AB0EE409A61
:10192000B2EE040AF0EE409A9FED630AB0EE40AAD0
:101930009FED610AB0EE408A684890ED000ABDEE66
:10194000C00A10EE104A5B48B0F92E0108EE900A6A
:10195000634800686349B1F90010401A201A00EE8C
:10196000100AB8EEC00A20EE090AB0EE40AAB8EE9E
:10197000E80A3AEE400A20EE290AB0EE408A41F623
:1019800058325142BDEEC80A10EE100AFFF728FC8B
:1019900000EE100AB8EEC00AB0EE408AB0EE480A77
:1019A000BDEC068B10BD10B52DED028B04469FEDEE
:1019B000420AF0EE408A9FED400AB0EE408A21696B
:1019C000A068401AE168081A00EE100AB8EEC00AD2
:1019D000D4ED000A20EE200AF0EE408AD4ED010A90
:1019E000B4F9200000EE100AB8EEC00A38EEC00AC2
:1019F00020EE800AB0EE408A42F228325142BDEE1B
:101A0000C80A10EE100AFFF7EBFB00EE100AB8EE62
:101A1000C00AB0EE408ABDEEC80A10EE100A00B24D
:101A20006084B0EE480ABDEC028B10BD70B52DEDA0
:101A3000028BB0EE408A05460C462B4800782B49B5
:101A400008602B48C08E402802D101202949087027
:101A50002748C08E802802D10120274908702248DB
:101A6000007805287ED2DFE800F00382C1F9F70094
:101A700022480078E0B9194890ED000ADFED200A0D
:101A800030EE600A80ED000A90ED000AB5EEC00A63
:101A9000F1EE10FA6AD800201A4908709FED060A84
:101AA0000E4880ED000A18480169012088472DE0A2
:101AB00033E000000005002000000000CDCCCC3E4B
:101AC000B00600200AD7A33C6806002004040020CA
:101AD000080300200000CC4100000020C0010020CD
:101AE0009400002098000020C5010020BC010020C7
:101AF0005C090020C8010020C9010020CA010020A3
:101B00000000C842C401002010020020FE480078F6
:101B100001282BD1FD49087028E0FD4890ED000A0E
:101B20005FED090A30EE200A80ED000AB0EE000AEF
:101B300028EE000AD0ED000AB4EEE00AF1EE10FA49
:101B400014D8B0EE000A28EE000A80ED000A00204A
:101B5000F0490870F048016901208847EA48007898
:101B6000012800E0D0E001D1E8490870CDE0EB4861
:101B70000078E8B9E64890ED000A5FED1F0A30EE04
:101B8000200A80ED000A90ED000AB4EEC80AF1EEDA
:101B900010FA2ADB80ED008ADF48016901208847BE
:101BA000DF480078012820D10220D84908701CE0C5
:101BB000D74890ED000A5FED2E0A30EE600A80ED06
:101BC000000A90ED000AB4EEC80AF1EE10FA0CD843
:101BD00080ED008AD048016901208847D04800780C
:101BE000012802D10220C94908708EE0CA48016963
:101BF000002088470020C4490870C9490870C948B6
:101C00000068401CC7490860084600685F2822DB5E
:101C10005F2008600220BF490870C348C168A4F172
:101C20006400814217DBC048016BA4F1640081426B
:101C300011DBBD48416DA4F1640081420BDBBA4861
:101C4000816FA4F16400814205DB0320AF49087075
:101C50000020B449086058E02DE0FFE7AC4890ED63
:101C6000000A5FED590A30EE200A80ED000AB0EE5E
:101C7000000A28EE000AD0ED000AB4EEE00AF1EE08
:101C800010FA17D8B0EE000A28EE000A80ED000A1C
:101C9000A148016900208847A4480068401CA34966
:101CA000086008460068822804D1002008600420EB
:101CB0009649087029E0964890ED000A5FED700A99
:101CC00030EE600A80ED000A90ED000AB4EEC80A1A
:101CD000F1EE10FA17D880ED008A8F4801690120D3
:101CE000884793480068401C91490860084600688E
:101CF000642808D10020086084490870874800786B
:101D0000401C8649087000E000BF00BFBDEC028B9C
:101D100070BD854AD268824204DC834AD2680A4494
:101D2000814BDA60804A126B824204DC7E4A126B7D
:101D300053187D4A136370477B4AD2688A4204DB9A
:101D4000794AD268121A784BDA60774A126B8A4263
:101D500004DB754A126B131A734A13637047724A95
:101D6000526D824204DC704A526D53186E4A5365BC
:101D70006D4A926F824204DC6B4A926F53186A4A32
:101D800093677047684A526D8A4204DB664A526D17
:101D9000131A654A5365644A926F8A4204DB624AA9
:101DA000926F131A604A9367704730B504460D4628
:101DB00029462046FFF7C0FF29462046FFF7E2FFED
:101DC00030BD30B504460D4629462046FFF7A1FF39
:101DD00029462046FFF7C3FF30BD70B506460C46C6
:101DE000154621463046FFF794FF29462046FFF767
:101DF000C9FF70BD4F49888141420AB24D49A1F8DF
:101E00005420A1F89C0041420AB24A49A1F8E420BA
:101E100070474FF42F71474A918141420AB24549B8
:101E2000A1F854204FF42F72A1F89C2041420AB22D
:101E30004049A1F8E42070473E4988814FF644525A
:101E4000A1F85420A1F89C00A1F8E42070470020DC
:101E50003849888100213748A0F85410A0F89C1018
:101E6000A0F8E41070472DE9F04107460C461546EE
:101E700000263148007801286ADC3048007830B10B
:101E800001286AD0062877D0072876D1FFE01FED19
:101E9000F60A2B4880ED020A2748007858B92948ED
:101EA00090ED250A264880ED030A9FED270A254874
:101EB00080ED070A09E0234890ED070ADFED230AC9
:101EC00020EE200A1E4880ED030A394605F10A007B
:101ED000FFF777FF1448C168A5F1640081423BDB3E
:101EE0001148016BA5F16400814235DB0E48416D5C
:101EF000A5F1640081422FDB0B48816FA5F16400DE
:101F0000814229DB012025E0C8010020C501002015
:101F1000C0010020C401002010020020CA010020DE
:101F2000C9010020D401002004040020CC010020BD
:101F3000D001002000050020C7010020C6010020BC
:101F4000000000205C090020000000000000344375
:101F500028E102E0FE4908700CE1FE48007868B90B
:101F6000FD4890ED250AFD4880ED030A1FED0A0AA1
:101F7000F94880ED070A0BE037E0FAE0F64890ED0B
:101F8000070A5FED0E0A20EE200AF44880ED030AEE
:101F9000F348006808BBF3480068401CF14908603A
:101FA00000EE104AB8EEC00AEC4880ED020A1FEDC0
:101FB0001A0A80ED030A08460068502814DB002046
:101FC00008600620E2490870E248007860B91FED19
:101FD000220AE14880ED070A06E000EE104AB8EE5A
:101FE000C00ADE4880ED020AC4E06FF013013846F3
:101FF000FFF7A2FE1FED2C0AD84880ED020A1FED64
:102000002E0A80ED030AD848C06832283EDCD64844
:10201000006B32283ADCD3480068401CD149086084
:10202000084600683C2831DB3D200860CC48001D94
:102030000068D8B9CD480068401CCC49086000EE63
:10204000104AB8EEC00AC54880ED020A1FED420AE8
:1020500080ED030A08460068322817DB002008607C
:10206000C04908600720BA4908700FE0BA4890EDEF
:10207000070A5FED4A0A20EE200AB84880ED030AFD
:1020800000EE104AB8EEC00A80ED020A72E06FF06E
:1020900013013846FFF776FE1FED550AAF4880ED75
:1020A000020AB148406D322862DCAF48406D3228E8
:1020B0005EDCAC480068401CAA490860084600681D
:1020C000322855DB33200860A5480830006818B96D
:1020D0000120A749087010E000EE104AB8EEC00ACF
:1020E0009E4880ED020A9C4890ED070A5FED690A60
:1020F00020EE200A994880ED030A9D4800780128C7
:1021000036D19C480068401C9A49086000EE104A8D
:10211000B8EEC00A914880ED020A8F4890ED070A98
:102120005FED760A20EE200A8C4880ED030A08460F
:10213000006802281CD1002008608A4908608C4988
:1021400008701FED7F0A854880ED020A1FED820AA4
:1021500080ED030A7F480078401C7E49087000200B
:102160007B4908707B480078022801D179490870C2
:1021700000E000BF00BF002612E006EBC6017A4A6D
:1021800002EB8100FFF70FFCBDEEC00A10EE100A53
:1021900000B206EBC601744A02EB81014884761C4A
:1021A000042EEADBBDE8F0812DE9F0412DED048B32
:1021B00005460E460024704840680078012809D082
:1021C0006D4840680078032804D06B484068007868
:1021D00000287DD16948007800284DD16848006802
:1021E000401C6749086008460068962843DB972032
:1021F00008606448006820B15B48006964385A4947
:1022000008616048001D006820B15748406B643881
:10221000554948635B480830006820B15248806DDA
:1022200064385149886557480C30006820B14E48E1
:10223000C06F64384C49C8675248006800281AD1FA
:102240005048001D00680028F9D14E480830006849
:102250000028F4D14B480C3000680028EFD1012051
:10226000464908704048D0F8BC10C0F8C410D0F8F7
:102270009810C0F8A01034E13F48C06800780128E9
:1022800004D03D48C0680078032807D101203E49AA
:10229000087000203849C96808700AE03648C068EC
:1022A0000078022805D13849087000203249C968F1
:1022B0000870314800690078012804D02E48006970
:1022C0000078032809D103202F490870002000E07E
:1022D000FCE02949096908700BE02748006900788B
:1022E000022806D1042028490870002022490969E3
:1022F0000870214880690078012804D01E48806950
:102300000078032807D105201F49087000201A49CA
:10231000896908700BE0184880690078022806D1A6
:10232000062019490870002013498969087012486D
:10233000C0690078012804D00F48C06900780328DC
:1023400026D107201049087000200B49C9691DE0FB
:10235000C6010020C70100205C0900200000002009
:1023600030824142E401002004040020E00100200A
:10237000D8010020DC01002038020020E801002004
:10238000EC01002000024042B801002008700BE080
:10239000E648C0690078022806D10820E4490870A0
:1023A0000020E249C9690870E1480078092871D223
:1023B000DFE800F08A050B10162B361B3F006FF08C
:1023C00013013046FFF7B8FC7FE031462846FFF79F
:1023D000A0FC7AE06FF013013046FFF7D3FC74E005
:1023E00031462846FFF7BBFC6FE00020D14908705A
:1023F000D14908706FF013013046FFF79DFC6FF074
:1024000013013046FFF7BEFC5FE06FF0130130466A
:10241000FFF792FC6FF013013046FFF7B3FC54E076
:1024200031462846FFF775FC31462846FFF797FCF2
:102430004BE029464FF43E209FEDC00AFFF7F6FA25
:10244000BC48007838BB284608F075F941EC190BF8
:102450009FEDBB0B53EC102B08F05AFB41EC180B13
:1024600008F03AF907463146FFF753FC284608F0D2
:1024700062F941EC190B9FEDB20B53EC102B08F0F5
:1024800047FB41EC180B08F027F907463146FFF7E8
:1024900066FC18E018E0FFE7A648007801280AD19A
:1024A0004FF420413046FFF747FC4FF420413046BF
:1024B000FFF768FC09E031462846FFF72AFC314661
:1024C0002846FFF74CFC00BF00BF0AE09748406871
:1024D0000078022805D16FF0130231462846FFF735
:1024E0007CFC002407E004EBC401974A02EB810066
:1024F000FFF759FA641C042CF5DBBDEC048BBDE836
:10250000F081924A1278D2B9914A1268521C904BCB
:102510001A601A461268962A2FDB97221A608D4A93
:10252000126842B18C4AD2F8E820A2F516728A4BA2
:10253000C3F8E82021E00122844B1A701DE0012835
:102540000DD1854AD2F8E4208A4216DC824AD2F8BC
:10255000E42002F5FA72804BC3F8E4200DE07E4AD5
:10256000D2F8E42012F1140F07DB7B4AD2F8E42002
:10257000A2F5FA72784BC3F8E420704710B5044610
:102580007648C08E102803D101207549087006E0F6
:102590007248C08E202802D100207149087070480E
:1025A0000078012811D16F48816901208847664869
:1025B000D0F8E400614288421CDB6348D0F8E400B4
:1025C0000A386149C1F8E40014E05F48D0F8E4003B
:1025D000002806DC5C48D0F8E400401D5A49C1F8E8
:1025E000E4005948D0F8E400002803DB5D48816925
:1025F0000020884710BD594991F83410012917D19E
:1026000059490968491C584A1160114609688142B4
:1026100006DB0021116055490968491C534A1160C5
:102620005249096819291FDB1921504A11601BE022
:102630004A4991F83510012916D14D490968491CBC
:102640004B4A116011460968814206DB0021116086
:1026500046490968491E454A1160444909680529E7
:1026600002DC0521414A116070474A78072A5AD294
:10267000DFE802F0040B152C42475000374AD28E97
:10268000824201D101224A704DE0344AD28E824208
:1026900002D102224A7001E000224A7043E04A88D7
:1026A000521C12B24A80B1F90220B2F5967F08DAC4
:1026B0002A4AD28E824208D000224A8003224A70DF
:1026C00003E000224A8006224A702CE04A88521C0D
:1026D00012B24A80B1F902201E2A08DA1F4AD28EAD
:1026E000824208D100224A8005224A7003E000227B
:1026F0004A8004224A7016E001220A7000224A70C1
:1027000011E002220A70154AD28E824201D00022C4
:102710004A7008E003220A70104AD28E824201D029
:1027200000224A7000BF00BF70470000380200203E
:10273000B8010020C4010020C5010020007014462B
:10274000000000000000E44004040020F00100202C
:10275000F401002014024442080300205C09002018
:1027600000020020100200200802002004020020C5
:102770000C020020D0ED000AF4EEC00AF1EE10FACF
:1027800001DD80ED000AD0ED000AB1EE401AF4EE52
:10279000C10AF1EE10FA03D2F1EE400AC0ED000AD0
:1027A0007047C3638263416380ED000AC0ED010A94
:1027B00080ED021A704780ED000AC0ED010A80ED3D
:1027C000021ADFED6D1AC0ED071ADFED6B1AC0EDCE
:1027D000081ADFED691AC0ED091ADFED671AC0EDBE
:1027E0000A1A704700B50146B1F90C00B1F90E2084
:1027F000801A00EE100AB8EEC00A81ED060A486B96
:1028000003283ED191ED000AD1ED060A20EE200A00
:1028100081ED070A91ED080AD1ED010A91ED061A42
:1028200000EE810A81ED080A91ED060AD1ED050A54
:1028300030EE600AD1ED020A20EE200A81ED090A8D
:10284000D1ED0F0AF8EE600AB0EE600A01F1200047
:10285000FFF790FF91ED070AD1ED080A30EE200A4C
:10286000D1ED090A30EE200A81ED0A0AD1ED0E0AF7
:10287000F8EE600AB0EE600A01F12800FFF77AFF77
:1028800042E0486B04283FD191ED060AD1ED050ADC
:1028900030EE600AD1ED000A20EE200A81ED070A31
:1028A00091ED010AD1ED060A20EE200A81ED080A19
:1028B00091ED060AD1ED050AB0EE001A01EE600AAC
:1028C000D1ED040A30EE200AD1ED020A20EE200AF2
:1028D00081ED090A91ED070AD1ED080A30EE200AD0
:1028E000D1ED090A30EE200AD1ED0A0A30EE200AB5
:1028F00081ED0A0AD1ED0E0AF8EE600AB0EE600A28
:1029000001F12800FFF736FF91ED050A81ED040A79
:1029100091ED060A81ED050A91ED0A0A00BD2DE947
:10292000F0412DED048B04460D4616461F46B0EED1
:10293000408AF0EE608AB0EE419A10482064104858
:102940006064B0EE491AF0EE680AB0EE480A3B4601
:10295000324629462046D4F840C0E047B0EE491A36
:10296000F0EE680AB0EE480A2046616C8847BDEC7C
:10297000048BBDE8F081000000000000A3270008E0
:10298000B727000810B500F0B8FD00F0ADF800F072
:102990001DF900F037F901F0E3F901F017FAA8206A
:1029A00000F0F0FE00F0C6FA02F064FC00F0BDFB9F
:1029B00000F0D9F900F040FE00F0D8FE00F0B3F8C6
:1029C0004FF4FA7000F040FF02F0B7FB02F0C1FCD8
:1029D00010BD10B5044624B101213D4802F046FE69
:1029E00003E001213A4802F03FFE10BD10B5044655
:1029F0002CB14FF48051374802F038FE04E04FF418
:102A00008051344802F030FE10BD012819D1324AFD
:102A1000D2F8C0204B429A4206DD2F4AD2F8C0209D
:102A2000323A2D4BC3F8C0202B4AD2F89C208A4260
:102A300020DA294AD2F89C203232274BC3F89C2056
:102A400018E0254AD2F8C020962A06DA224AD2F89F
:102A5000C0203232204BC3F8C0201F4AD2F89C203D
:102A600012F1960F06DD1C4AD2F89C20323A1A4B1E
:102A7000C3F89C20704710B504462CB14FF4804138
:102A8000164802F0F3FD04E04FF48041134802F0D1
:102A9000EBFD10BD10B5044624B18021104802F0B2
:102AA000E5FD03E080210E4802F0DEFD10BD10B50B
:102AB00004462CB14FF400510A4802F0D5FD04E061
:102AC0004FF40051074802F0D1FD10BD7047704728
:102AD00000200240001C02400404002000140240B8
:102AE00000100240001802401CB50121302002F005
:102AF000E0FF8020009001208DF8040000208DF878
:102B0000060003208DF8050001208DF807006946B6
:102B10002A4802F02DFD4FF4804000906946284875
:102B200002F026FD1CBD1CB50121080202F0C1FF08
:102B3000012000908DF8040000208DF8060003208D
:102B40008DF8050001208DF8070069461D4802F048
:102B50000FFD0120009069461A4802F009FD01218D
:102B6000184802F081FD0121802002F0A2FF4FF4FD
:102B7000C050009001208DF8040000208DF8060060
:102B800003208DF8050001208DF8070069460E48E6
:102B900002F0EEFC4FF48050009040100090694627
:102BA000094802F0E5FC4FF40061074802F05CFDC3
:102BB0004FF48051044802F057FD1CBD0010024044
:102BC0000014024000200240001C02401CB50121FC
:102BD000402002F06EFF4FF40050009001208DF86D
:102BE000040000208DF8060003208DF80500012068
:102BF0008DF807006946024802F0BAFC1CBD0000CF
:102C0000001802401CB50121022002F052FF1020E2
:102C1000009001208DF8040000208DF806000320AC
:102C20008DF8050001208DF807006946014802F083
:102C30009FFC1CBD000402401CB50121022002F0D3
:102C400038FF8020009002208DF8040000208DF8CD
:102C5000060003208DF8050000208DF80700694666
:102C6000464802F085FC07221146444802F00BFD5D
:102C70001CBD1FB50121102002F073FF404803F076
:102C8000B5F8404800900020ADF80400ADF806000B
:102C90004FF48060ADF808000420ADF80A00002071
:102CA000ADF80C006946364803F007F901213448B5
:102CB00003F08BF901224021314803F033FA1FBDA4
:102CC00008B544208DF8000000208DF80100032095
:102CD0008DF8020001208DF80300684602F057FBD2
:102CE00008BD00B58FB00121880502F0E2FE002189
:102CF000254804F079F800BF2348006800F001007F
:102D00000028F9D1204803F093FF4FF000600090B5
:102D10001B48001D01901D480290002003901220C6
:102D20000490002005904FF48060069000200790EA
:102D300008904FF4807009904FF440300A900020C2
:102D40000B900C900D900E9069460F4804F012F80D
:102D5000012210210C4804F0D4F801210A4804F0A3
:102D600043F80FB000BD10B5FFF766FFFFF781FF16
:102D7000FFF7A6FFFFF7B5FF10BD000000040240FB
:102D800000100140A086010088640240D0070020A6
:102D900000BF704700BF9E4A128802F04002002A1E
:102DA000F9D0C2B29A4B1B1D1A8070471CB5012185
:102DB000402002F07EFE4FF48440009002208DF807
:102DC000040000208DF8060003208DF80500002087
:102DD0008DF8070069468F4802F0CAFB08220E21D1
:102DE0008C4802F050FC082209218A4802F04BFC72
:102DF0001CBD1CB50121082002F05BFE4FF44070A1
:102E0000009002208DF8040000208DF806000320B9
:102E10008DF8050000208DF8070069467E4802F015
:102E2000A7FB072208217C4802F02DFC072209217C
:102E3000794802F028FC1CBD1FB5FFF7DAFF01211D
:102E4000880402F07DFE4FF4E13000900020ADF8E0
:102E50000400ADF80600ADF808000C20ADF80A003B
:102E60000020ADF80C0069466C4803F026F80122FA
:102E700040F22551694803F05EF90121674803F0EB
:102E8000A4F800BF8021654803F07AF90128F9D140
:102E90001FBD1FB5FFF78AFF0121202002F061FE50
:102EA0004FF4E13000900020ADF80400ADF80600CA
:102EB000ADF808000C20ADF80A000020ADF80C00B9
:102EC0006946534802F0F9FF012240F2255150486B
:102ED00003F031F901214E4803F077F800BF80215B
:102EE0004B4803F04DF90128F9D11FBD1CB54FF433
:102EF000A06002F047FA03208DF8050001208DF84C
:102F0000060047208DF8040001208DF8070001A875
:102F100002F03DFA03208DF8010000208DF8020038
:102F200027208DF8000001208DF80300684602F08C
:102F30002EFA1CBD10B5FFF77FFFFFF7AAFFFFF7C2
:102F4000D5FF10BD10B540F22551344803F02EF9DD
:102F500050B3324803F068F8C4B23148406A48B907
:102F6000FF2C20D12E48416A001D445401202C49D9
:102F7000486218E0FE2C0DD12948416A001D4454D6
:102F8000001F406A401C26498862002048620120D8
:102F9000086008E02248416A001D4454001F406A4E
:102FA000401C1F49486200BF10BD10B540F22551BA
:102FB000174803F0FBF850B3154803F035F8C4B2D6
:102FC0001748406A48B9FF2C20D11548416A001DB6
:102FD000445401201249486218E0FE2C0DD11048DB
:102FE000416A001D4454001F406A401C0C4988621D
:102FF000002048620120086008E00948416A001D7D
:103000004454001F406A401C0549486200BF10BD7F
:103010000014014000180240000C0240004800402B
:10302000EC0700200EB50121084602F089FD4FF0A3
:10303000FF3001905920ADF800000020ADF80800E5
:10304000ADF802000121880704F0DEF869464FF070
:10305000804004F06EF80121880704F0F3F80EBDFB
:103060000EB50121022002F06BFDA64803F0B4FF6B
:1030700042F20F7001905920ADF800000020ADF829
:103080000800ADF8020069469E4804F052F801229B
:1030900011469C4804F0EEFC01219A4804F0D2F855
:1030A0000EBD0EB50121042002F04AFD964803F042
:1030B00093FF40F2E73001905920ADF80000002066
:1030C000ADF80800ADF8020069468F4804F031F809
:1030D000012211468C4804F0CDFC01218A4804F0FD
:1030E000B1F80EBD08B54FF4A06002F04BF91D20F9
:1030F0008DF8000001208DF8010002208DF80200FB
:1031000001208DF80300684602F041F91E208DF879
:10311000000000208DF801008DF8020001208DF8DC
:103120000300684602F033F908BD10B5FFF77AFFD7
:10313000FFF796FFFFF7B5FFFFF7D4FF10BD10B5FF
:103140000121880704F0ADFC38B10121880704F0A3
:10315000B9FC0121880704F0A1FC10BD4FF08040AC
:10316000406A704710B50121664804F09AFC0028B7
:103170007CD0664801684FF40070FFF776FA634828
:1031800041684FF48060FFF770FA604881684FF43F
:103190008070FFF76AFA5D48C1684FF40060FFF77E
:1031A00064FA5A4801694FF48050FFF75EFA5748B5
:1031B00041694FF40040FFF758FA544881694FF4D1
:1031C0000050FFF752FA5148C1694FF48040FFF7B1
:1031D0004CFA4E4880680078012808D04B48806837
:1031E0000078032803D049488068007828B94FF454
:1031F0000061474802F03AFA08E0444880680078E5
:10320000022803D18102424802F02EFA3F480068AA
:103210000078012808D03D4800680078032803D0D2
:103220003A480068007898BB3A480168012088470E
:1032300000203949087039490870FDF77FF838488F
:10324000FFF7D0FA314840690078012808D02F48AC
:1032500040690078032803D02C484069007830B9D1
:103260004FF461710020FFF7D0FB0AE037E02748F8
:1032700040690078022804D14FF47A710120FFF7E9
:10328000C4FB4FF42F714FF4E030FEF78DFF24E0C4
:10329000FFE71E480068007802281ED11D4801681B
:1032A000002088474FF47A710120FFF7AEFB1D48DC
:1032B00090ED230A1C4880ED010A4FF4E03240F6FD
:1032C00098014FF42F70FEF7CEFD134800780228C6
:1032D00003D101200D4909680870FEF79CFA01210D
:1032E000084804F0EFFB10BD10B50121064804F0BA
:1032F000D8FB08B1FDF735F80121034804F0E2FBE3
:1033000010BD00000004004000080040380200200A
:10331000001C024010020020C7010020C60100204E
:10332000680600205C0900200000002000B58BB07A
:103330000121084602F015FC0121084602F0B9FB04
:103340000121102002F0B5FB012208216E4802F095
:103350009AF9012209216C4802F095F901220E2107
:103360006A4802F090F901220D21684802F08BF9B9
:103370004FF44070099002208DF8280003208DF84A
:10338000290000208DF82A0001208DF82B0009A9C2
:103390005D4802F0EDF84FF4C040099009A95B4880
:1033A00002F0E6F844F24F60ADF818000020ADF8E6
:1033B0001A00C72007900020ADF820008DF82200E9
:1033C00006A9534803F0B5FE6020ADF804000120C3
:1033D000ADF806000420ADF8080000200390ADF819
:1033E00010000820ADF812004001ADF814000020D4
:1033F000ADF8160001A9464803F030FF01A9444882
:1034000003F065FF01A9424803F0AEFF01A940485F
:1034100004F010F801213E4803F014FF01213C485C
:1034200004F001FB0BB000BD00B58BB00121022000
:1034300002F097FB0121080202F03BFB032202216C
:10344000344802F020F903220621324802F01BF929
:10345000032207212F4802F016F9C4200990022008
:103460008DF8280003208DF8290000208DF82A000F
:1034700001208DF82B0009A9264802F079F844F2C2
:103480004F60ADF818000020ADF81A00C720079073
:103490000020ADF820008DF8220006A91E4803F098
:1034A00048FE6020ADF804000120ADF806000420BD
:1034B000ADF8080000200390ADF810000820ADF82A
:1034C00012004001ADF814000020ADF8160001A96B
:1034D000114803F0FCFE01A90F4803F045FF01A9C4
:1034E0000D4803F0A7FF01210B4803F0ABFE0121BB
:1034F000094804F098FA0BB000BD10B5FFF716FFAD
:10350000FFF792FF10BD00000000024000100240D3
:103510000000014000200240000401401CB50121D0
:10352000082002F0C6FA0320009002208DF8040063
:1035300003208DF805006946434802F019F8092276
:103540000021414802F09FF8092201213E4802F083
:103550009AF81CBD08B54FF4A06001F013FF1420C9
:103560008DF8000001208DF801008DF802008DF823
:103570000300684601F00BFF13208DF800000020C7
:103580008DF8010001208DF802008DF803006846D7
:1035900001F0FDFE08BD00B587B00121480602F02C
:1035A000CFFA2A4802F04CFE04A802F06DFF00207A
:1035B0008DF816008DF817008DF818008DF8190099
:1035C0008DF81A0001208DF81B0000208DF81200E4
:1035D0008DF8130005208DF8140007208DF81500D4
:1035E0000320ADF8100004A9184802F042FE0020A4
:1035F0008DF80A008DF80B0001208DF80C000020DA
:10360000ADF80000ADF80200ADF80400ADF806001A
:10361000ADF8080001208DF80D00684602F0B3FEF9
:1036200001220221094803F0ADF9012211460748A1
:1036300003F0A8F907B000BD10B5FFF76FFFFFF763
:1036400089FFFFF7A8FF10BD000C02400064004096
:103650001CB50121022002F02CFA4FF440500090DA
:1036600002208DF804008DF805006946434801F0FA
:103670007FFF09220C21414802F005F809220D21A3
:103680003E4802F000F81CBD08B540208DF800004F
:1036900001208DF801008DF802008DF803006846C6
:1036A00001F075FE3F208DF8000001208DF801002B
:1036B0008DF802008DF80300684601F068FE08BD31
:1036C00000B587B00121480602F03AFA01218806C8
:1036D00002F036FA2A4802F0B3FD04A802F0D4FE44
:1036E00000208DF816008DF817008DF818008DF861
:1036F00019008DF81A0001208DF81B0000208DF8AC
:1037000012008DF8130005208DF8140007208DF8A5
:1037100015000320ADF8100004A9194802F0A9FD16
:103720000E208DF80A0000208DF80B0001208DF886
:103730000C000020ADF80000ADF80200ADF8040068
:10374000ADF80600ADF8080001208DF80D006846C0
:1037500002F019FE01220221094803F013F90122A7
:103760001146074803F00EF907B000BD10B5FFF78A
:103770006FFFFFF789FFFFF7A3FF10BD00040240B2
:103780000068004010B504466FF0040001F04CFEE4
:10379000E11704EB5171C1F3C701394A11701046AA
:1037A000007800EB4001C1EBC0104FF6FF7101EA59
:1037B000C0003449088010BD0146314A12784A439E
:1037C0004FF0E0235A6100229A611A46126942F0D2
:1037D00001021A6100BF4FF0E022106900F00102FF
:1037E0001AB100F48032002AF5D04FF0E0221269BD
:1037F00022F001024FF0E0231A6100229A61704723
:103800000146204A12884A434FF0E0235A610022C1
:103810009A611A46126942F001021A6100BF4FF024
:10382000E022106900F001021AB100F48032002A8F
:10383000F5D04FF0E022126922F001024FF0E023B0
:103840001A6100229A61704770B504464FF4077000
:1038500094FBF0F0C6B24FF4077094FBF0F100FB5C
:10386000114085B205E04FF40770FFF7C9FF701EE5
:10387000C6B2002EF7D115B12846FFF7C1FF70BDC3
:10388000580200205A02002000B597B001214804D8
:1038900002F056F90121082002F00BF90121480538
:1038A00002F007F907220621F74801F0ECFE40205C
:1038B000159002208DF8580003208DF85900002043
:1038C0008DF85A0001208DF85B0015A9EE4801F033
:1038D0004FFEEE4803F0ACF90021EC4803F084FA07
:1038E00000BFEA4803F0CDFA0028FAD14FF000609B
:1038F0000190E7480290E748039000200490782068
:103900000590002006904FF48060079000200890FA
:1039100009904FF480700A9000020B9000200C90E8
:1039200003200D9000200E900F9001A9D74803F0BE
:1039300021FA0121D54803F057FAD548001F02F0BB
:1039400055FA4FF4E13011900020ADF84800ADF881
:103950004A00ADF84C00ADF850000420ADF84E0020
:1039600011A9CB48001F02F0A8FA0121C848001F86
:1039700002F02BFB002240F22661C548001F02F036
:10398000DAFB002240F22551C148001F02F0D3FBB0
:10399000012240F22441BE48001F02F0CCFB262049
:1039A0008DF8400003208DF841008DF84200012081
:1039B0008DF8430010A801F0EAFC01224021B44830
:1039C000001F02F0AFFB17B000BD10B50246002388
:1039D00029E0002021E002EB8004D4ED000A441C21
:1039E00002EB840494ED001AF4EEC10AF1EE10FA31
:1039F00011DD02EB800494ED000A441C02EB840408
:103A0000D4ED000A02EB8004C4ED000A441C02EB72
:103A1000840484ED000A441CE0B24C1EE41A844283
:103A2000D9DC5C1CE3B24C1E9C42D2DC10BD30B52C
:103A3000034605E013F8010B80EA02049648025D94
:103A4000081EA1F10101F5D1104630BD70B5054643
:103A50000C4600260DB1022C01D8002070BD611E5D
:103A6000FF222846FFF7E3FF0646601E285CB042AF
:103A700001D10120F2E70020F0E770B52DED048BB5
:103A80009FED860AB0EE408A804803F0D0F9C0F17D
:103A90007800C5B20024B3E07E48005DA52830D18F
:103AA00001207F490870611D7A48FFF7CFFF002889
:103AB00027D07849601C095C764AA01C105C41EA5A
:103AC00000207849A1F801001146E01C085C754906
:103AD000C8701146601D095CA01D105C41EA002001
:103AE00000B27049C8800846C08801280AD108463B
:103AF000B0F80120674BE01D19186A48083004F03F
:103B0000B1FD7CE06748C08802281FD16149E01DF3
:103B1000085C6449497C60F30301624841745D4973
:103B2000E01D085C00205F49497C60F307115D4897
:103B30004174407C03095B48407C00F00F02594807
:103B4000B0F9061058A004F0E9FC58E05548C088C8
:103B500003280AD15348B0F801204E4BE01D191834
:103B60005048123004F07EFD49E04E48C0880428D9
:103B70000AD14C48B0F80120464BE01D19184948BD
:103B8000183004F06FFD3AE04648C08805280AD195
:103B90004448B0F801203F4BE01D191841482C3033
:103BA00004F060FD2BE03F48C08806280AD13D485C
:103BB000B0F80120374BE01D19183A482E3004F0B8
:103BC00051FD1CE03748C08807280AD13548B0F8B5
:103BD0000120304BE01D191832482F3004F042FD0F
:103BE0000DE03048C088082809D12E48B0F80120DF
:103BF000284BE01D19182B48313004F033FD641CAC
:103C0000AC42FFF449AF2748006A3149314A127883
:103C100041F822002F480078401C2E4908700846C1
:103C2000007805282CD10020087005212848FFF7CE
:103C3000CCFE012409E0264800EB840090ED000A48
:103C400030EE080AB0EE408A641C032CF3D9B0EEC3
:103C5000080AC8EE000A2048C0ED060A9FED0F0AC8
:103C6000B0EE408A90ED060A10EE101A084607F0F2
:103C700039F841EC190B53EC192B18A004F04EFC49
:103C8000BDEC048B70BD0000000C02408860024057
:103C9000044400406C080020DFAD00080000000074
:103CA0006D020020E4080020436D6449443D256412
:103CB000202061726D6F72547970653D20256420FB
:103CC000202068757274547970653D25640D0A0072
:103CD000480900207002002028090020706F7765D5
:103CE000722E617665726167653D25660D0A00007A
:103CF00010B5002440F22441164802F057FAA8B14A
:103D000014480488001D04880021134803F06CF84F
:103D1000FFF7B3FE1149104803F0DFF878210E4891
:103D200003F083F801210C4803F05EF800BF10BDDA
:103D300070B505460C4600260DB1022C00D870BDAA
:103D4000611EFF222846FFF772FE0646601E2E54B3
:103D500000BFF4E70044004088600240400F0010BC
:103D60001CB50121082001F0A4FE0121802001F0F2
:103D7000A0FE4FF47040009000208DF804008DF8F4
:103D8000060003208DF8050001208DF80700694624
:103D90003A4801F0EDFB6946384801F0E9FB4FF481
:103DA0004060009000208DF804008DF8060003208C
:103DB0008DF8050001208DF807006946304801F0B4
:103DC000D7FB69462E4801F0D3FB1CBD1CB5012171
:103DD000084601F06EFE0121080201F06AFE012191
:103DE000082001F066FE0121802001F062FE0F2014
:103DF000009000208DF804008DF8060003208DF857
:103E0000050001208DF8070069461E4801F0B0FB4F
:103E10002020009000208DF804008DF8060003207B
:103E20008DF8050001208DF807006946164801F05D
:103E30009FFB4FF40040009000208DF804008DF8A7
:103E4000060003208DF8050001208DF80700694663
:103E50000A4801F08DFB4FF48060009000208DF83F
:103E600004008DF8060003208DF8050001208DF870
:103E700007006946024801F07BFB1CBD000C0240B4
:103E8000001C02400000024000200240F0EE400A08
:103E9000F6EE001A60EEA11AB0EE611AB0EE600AFA
:103EA00010EE100AFE49A1EB600000EE100A21EEB0
:103EB000002AF7EE081A42EE401A61EE801AB0EEC0
:103EC000610A704730B585B005460DF1120004A9AE
:103ED000031F03AACDE90010891F02A801F01FF8F3
:103EE00000241DE0032C0BDA02A830F9140000EEC8
:103EF000100AB8EEC00A05EB840080ED000A0EE05F
:103F000002A830F9140000EE100AB8EEC00ADFED86
:103F1000E50A80EE201A05EB840080ED001A641C8F
:103F2000062CDFDB05B030BD00B52DED108B9BB04E
:103F3000F0EE40AAB0EE60BAF0EE41BAB0EE61DA4F
:103F4000B0EE42CAF0EE62CAB0EE43AAF0EE638A67
:103F5000B0EE449AD44890ED000AD0ED000A20EE6D
:103F6000200A8DED0B0A90ED000AD048D0ED000A32
:103F700020EE200A8DED0A0ACB4890ED000ACC48CD
:103F8000D0ED000A20EE200AF0EE40EAC64890ED9F
:103F9000000AC848D0ED000A20EE200A8DED090A7B
:103FA000C24890ED000AD0ED000A20EE200A8DED07
:103FB000080A90ED000ABE48D0ED000A20EE200A63
:103FC0008DED070AB94890ED000ABA48D0ED000A15
:103FD00020EE200AB0EE40FAB54890ED000AD0ED90
:103FE000000A20EE200A8DED060A90ED000AB14885
:103FF000D0ED000A20EE200A8DED050A90ED000AB2
:10400000D0ED000A20EE200A8DED040AFFF7A6F895
:10401000A949086008460068A8490968884210D282
:10402000A64800684FF6FF71081AA34909680844BA
:1040300000EE100AB8EE400ADFEDA10AC0EE209AA9
:104040000CE09D4800689D490968401A00EE100A7E
:10405000B8EE400ADFED9A0AC0EE209A9648006852
:10406000964908606DEE0D0A4CEE0C0A4CEEAC0A57
:10407000B0EE600AFFF70AFFB0EE408A2DEE080AA4
:10408000B0EE40DA2CEE080AB0EE40CA2CEE880AF8
:10409000F0EE40CA6AEE0A0A48EEA80A49EE090A9A
:1040A000B0EE600AFFF7F2FEB0EE408A2AEE080A90
:1040B000B0EE40AA28EE880AF0EE408A29EE080AFF
:1040C000B0EE409AB0EE000A6AEE000A9DED060AD4
:1040D000B6EE001A31EE401A9DED040A31EE400AA8
:1040E00020EE800AF0EE000A68EEA01ADDED070A65
:1040F0009DED091A70EEC10A01EEA00AF0EE000A69
:1041000069EE200A3FEE2E1A00EE810A8DED1A0AA2
:10411000B0EE000A2AEE001A9DED070ADDED090A4D
:1041200030EE200A21EE000AF0EE000A28EEA01A76
:10413000DDED080AF6EE001A71EEE01ADDED040A74
:1041400071EEE00A01EE200AF0EE000A69EE201A94
:10415000DDED050A9DED0A1A70EEC10A01EEA00A16
:104160008DED190AB0EE000A2AEE000A7FEE6E0A03
:1041700020EE200AF0EE000A68EEA01ADDED050A36
:104180009DED0A1A70EE810A01EEA00AF0EE000A17
:1041900029EE201ADDED080AF6EE001A71EEE01A9B
:1041A000DDED060A71EEE00AF0EE40DA41EE20DACB
:1041B0009DED1A0A60EE000A9DED190A40EE000A14
:1041C00010EE901A084606F08DFDCDE900019DED38
:1041D000000B05F0F1FE8DED020B9DED020B51EC95
:1041E000100B06F047F80FEE900AB0EE6DEA3FEEC6
:1041F0006E0AF0EE000A20EE200A8DED180A9DED01
:104200000A0ADDED050A30EE200AF0EE000A20EE83
:10421000200A8DED170A9DED0B0ADDED080A70EE00
:10422000600A9DED060A70EEC00A9DED040A30EEAC
:10423000800A8DED160AB0EE000A6FEE800A9DED41
:10424000060AB6EE001A31EE401A9DED040A31EE70
:10425000400A20EE800AF0EE4EDAF0EE000A6DEE33
:10426000A00A3FEE6E1A00EE810A8DED150AB0EE3F
:10427000000A2FEE801A9DED070ADDED090A30EEE7
:10428000600A21EE000AF0EE4EDAF0EE000A6DEE62
:10429000A01ADDED0A0A9DED051A70EE810A11E003
:1042A000DF59375F3333034280020020840200204D
:1042B000880200208C0200209C020020980200202E
:1042C0000024F44901EEA00A8DED140AB0EE000AB4
:1042D0002FEE800A7EEE8F0A20EE200AF0EE4EDAF4
:1042E000F0EE000A2DEEA01ADDED080AF6EE001A37
:1042F00071EEE01ADDED060A71EEE00A01EE200A29
:104300008DED130A9DED160A6CEE000A9DED170A5D
:104310004CEEC00A9DED130A28EE801A9DED140A9A
:1043200009EE401A30EE810A8DED120A9DED180A51
:104330006CEE800A9DED160A4DEE400A9DED150AC1
:1043400029EE001A9DED130A0AEE401A30EE810A9A
:104350008DED110A9DED170A6DEE000A9DED180A0C
:104360004CEE400A9DED140A2AEE001A9DED150A46
:1043700008EEC01A30EE810A8DED100A9DED120A8A
:10438000B5EEC00AF1EE10FA61D09DED110AB5EE5E
:10439000C00AF1EE10FA5AD09DED100AB5EEC00A2F
:1043A000F1EE10FA53D09DED120ADFEDFE0A60EE39
:1043B000200AFD4890ED000A00EEA90A80ED000AEF
:1043C0009DED110ADFEDF70A60EE200AF74890ED47
:1043D000000A00EEA90A80ED000A9DED100ADFED4B
:1043E000F10A60EE200AF24890ED000A00EEA90AF8
:1043F00080ED000A9DED120AB0EE001AF0EE6A0A96
:1044000041EE000AE84890ED000A30EE800AF0EE36
:1044100040AA9DED110AB0EE001AF0EE4B0A41EEF3
:10442000000AE24890ED000A30EE800AB0EE40BA91
:104430009DED100AB0EE001AF0EE6B0A41EE000A94
:10444000DB4890ED000A30EE800AF0EE40BAD94821
:1044500090ED000AB1EE400A20EE2A0AD648D0EDCF
:10446000000A00EECB0AD54890ED001AF0EE400AA3
:1044700041EE6B0AD24890ED000A00EEA90A8DEDDC
:104480000F0A90ED000A20EE2A0ACB48D0ED000A70
:1044900000EEAB0AC94890ED001AF0EE400A41EE7A
:1044A0004B0AC44890ED000A00EEA90A8DED0E0AF1
:1044B000C34890ED000A20EE0B0ABE48D0ED000A7A
:1044C00000EEEB0ABD4890ED001AF0EE400A41EE16
:1044D0002A0AB94890ED000A00EEA90A8DED0D0AEE
:1044E000B74890ED000A20EE2B0AB248D0ED000A42
:1044F00000EE8B0AB04890ED001AF0EE400A41EE53
:104500006A0AAE4890ED000A00EEA90A8DED0C0A89
:10451000DDED0F0A20EEA01ADDED0E0A00EEA01A66
:10452000DDED0D0A00EEA01ADDED0C0A00EEA01A7A
:10453000B0EE410AFFF7AAFCB0EE408A9DED0F0AEB
:1045400020EE080A9E4880ED000A9DED0E0A20EE3E
:10455000080A984880ED000A9DED0D0A20EE080A31
:10456000954880ED000A9DED0C0A20EE080A93485C
:1045700080ED000A1BB0BDEC108B00BD30B52DEDF9
:104580000C8B87B005460C469FED8E0A8DED020A16
:104590009FED8C0A8DED010A9FED8A0A8DED000AD0
:1045A0002046FFF78FFC94ED050ADFED870A20EE29
:1045B000200ADFED860A80EE201AB0EE418A94EDE3
:1045C000040ADFED810A20EE200ADFED800A80EE8A
:1045D000201AF0EE418A94ED030ADFED7B0A20EE0B
:1045E000200ADFED7A0A80EE201AB0EE419A94EDAF
:1045F000020AF0EE402A94ED010AB0EE402A94ED52
:10460000000AF0EE401A9FED6F4ADFED6E3A9FED23
:104610006D3AB0EE481AF0EE680AB0EE490AFFF7BC
:1046200083FC674890ED000A8DED030A614890ED28
:10463000000A8DED040A604890ED000A8DED050A30
:104640005E4890ED000A8DED060A9DED050AF8EE34
:10465000000A20EE200ADDED050A20EE200ADDED3D
:10466000060AB0EE001A60EE810A9DED061A00EE11
:10467000C10AF7EE000A30EE200A10EE101A0846C2
:1046800006F030FB41EC1C0B9DED040AF0EE000A35
:1046900020EE200ADDED050A20EE200ADDED030AFA
:1046A000B0EE001A60EE810A9DED061A00EE810A56
:1046B00010EE101A084606F015FB41EC1D0BB0EE8B
:1046C0004C1AF0EE6C1AB0EE4D0AF0EE6D0A05F0E1
:1046D0007BFBB0EE40BAF0EE60BA51EC1B0B05F07C
:1046E000BDFD41EC1A0B9FED3A0B53EC102B06F07D
:1046F00039F841EC190B9FED380B53EC102B05F0FA
:1047000093FE41EC180B05F0B5FD00EE100A85EDA7
:10471000000A9DED040AF8EE000A20EE200ADDED05
:10472000060A20EE200ADDED030AB0EE001A60EE64
:10473000810A9DED051A00EE810A10EE101A084656
:1047400006F0D0FA41EC1C0BB0EE4C0AF0EE6C0A0D
:1047500005F01EF8B0EE40BAF0EE60BA51EC1B0B5B
:1047600005F07CFD41EC1A0B9FED190B53EC102B5F
:1047700005F0F8FF41EC190B9FED170B53EC102BD4
:1047800005F052FE41EC180B05F074FD00EE100A26
:1047900085ED010A9DED040AF8EE000A20EE200ADC
:1047A0001EE000000AD7233C74020020780200209B
:1047B0007C02002084020020880200208C0200205D
:1047C0008002002000000000DB0F4940000034435D
:1047D000000000000080664000000060FB210940EE
:1047E000DDED040A20EE200ADDED050AB0EE001A28
:1047F00060EE810A9DED051A00EEC10AF7EE000A8F
:1048000030EE200A10EE101A084606F06BFA41EC62
:104810001B0B9DED050AF0EE000A20EE200ADDEDEF
:10482000060A20EE200ADDED030AB0EE001A60EE63
:10483000810A9DED041A00EE810A10EE101A084656
:1048400006F050FA41EC1C0BB0EE4B1AF0EE6B1A6E
:10485000B0EE4C0AF0EE6C0A05F0B6FAB0EE40AAE3
:10486000F0EE60AA1FED260B53EC102B51EC1A0B47
:1048700005F078FF41EC190B1FED290B53EC102BC1
:1048800005F0D2FD41EC180B05F0F4FC00EE100A27
:1048900085ED020A07B0BDEC0C8B30BD10B58CB0B5
:1048A0000446002009900A900B902421684603F0EA
:1048B00050FF694609A8FFF761FE9DED030A84EDEC
:1048C000030A9DED040A84ED040A9DED050A84EDBA
:1048D000050A94ED070AD4ED050A9FED081A00EECB
:1048E000810A84ED070A9DED0A0A84ED060A9DED12
:1048F0000B0A84ED080A0CB010BD00006F12833A59
:104900001CB50121202001F0D4F84FF46070009014
:1049100002208DF8040000208DF8060003208DF899
:10492000050000208DF8070069464E4800F020FE83
:104930004020009001208DF8040000208DF8060032
:1049400003208DF8050000208DF8070069464548D2
:1049500000F00EFE05220721424800F094FE0522D9
:104960000921404800F08FFE052208213D4800F053
:104970008AFE1CBD00B585B00121080501F0F1F8E3
:104980000121080501F042F900214FF4801001F0E7
:104990003DF90020ADF800004FF48270ADF8020040
:1049A0000020ADF80400ADF80600ADF808004FF4A3
:1049B0000070ADF80A003020ADF80C000020ADF812
:1049C0000E000A20ADF810006946274803F0A2F94E
:1049D0000121254803F098FA05B000BD10B5044642
:1049E000214800884FF6C77108401F4908800846D3
:1049F00000882043088001211B4803F085FA10BD80
:104A000010B5FFF77DFFFFF7B5FF3020FFF7E6FF9A
:104A100010BD70B505460126002422E0012E0FD1FD
:104A20000221114803F0EEFA50B1002401E0601CAD
:104A3000C4B2C82CFBDB29460B4803F0E1FA002680
:104A40007EB90121084803F0DDFA50B1002401E0ED
:104A5000601CC4B2C82CFBDB034803F0CEFAC0B222
:104A600070BDDBE7001402400050014070B5054600
:104A70000C460020F949086005F07F00F8490870ED
:104A800008460078FFF7C5FFF54804700078FFF787
:104A9000C0FF0120F349C1F89802002070BD10B595
:104AA00004460020ED49086044F08000EE4908709B
:104AB00008460078FFF7ADFF44F08000FFF7A9FF3C
:104AC000EA4908700120E749C1F89802E7480078F0
:104AD00010BD10B5044644F08000E5490870084652
:104AE0000078FFF796FFE34908700846007810BD8C
:104AF00070B504460D4600212A20FFF7B7FF0220BB
:104B0000FEF7A2FE21462920FFF7B0FF0220FEF7A4
:104B10009BFE29466420FFF7A9FF0220FEF794FEC2
:104B200081212A20FFF7A2FF0A20FEF78DFE70BD2B
:104B300070B5044621463220FFF798FF0A20FEF7A1
:104B400083FE80213420FFF791FF0A20FEF77CFED0
:104B50003520FFF7A4FF054600213420FFF786FF2C
:104B60000A20FEF771FE284670BD70B504460E4659
:104B7000154621462820FFF779FF0220FEF764FE44
:104B80000A212920FFF772FF0220FEF75DFE0121B6
:104B90006420FFF76BFF0220FEF756FE44F0800111
:104BA0002520FFF763FF0220FEF74EFE3146262048
:104BB000FFF75CFF0220FEF747FE03213420FFF7DA
:104BC00055FF0220FEF740FE03216720FFF74EFF4E
:104BD0000220FEF739FE81212A20FFF747FF062039
:104BE000FEF732FE45F080012720FFF73FFF072048
:104BF000FEF72AFE70BD10B530216A20FFF736FFA0
:104C00000A20FEF721FE0D212420FFF72FFF0A20A6
:104C1000FEF71AFE0E212820FFF728FF0A20FEF7D4
:104C200013FE8E213120FFF721FF0A20FEF70CFE34
:104C300001210B20FFF75CFF0020FFF779FF102810
:104C400001D0012010BD0A20FEF7FEFD00210A2040
:104C5000FFF74EFF0A20FFF76BFF08B10220F1E7D4
:104C60000A20FEF7F1FD00210B20FFF741FF0B208A
:104C7000FFF75EFF08B10320E4E70A20FEF7E4FD3A
:104C800024214120FFF734FF4120FFF751FF242862
:104C900001D00420D6E70A20FEF7D6FDC02142202D
:104CA000FFF726FF4220FFF743FFC02801D0052071
:104CB000C8E70A20FEF7C8FD00212A20FFF7D6FE2C
:104CC0000A20FEF7C1FD00213420FFF7CFFE0A20A5
:104CD000FEF7BAFD062203210E20FFF746FF6420EF
:104CE000FEF7B2FD0020ADE710B50446E006010E68
:104CF0001C20FFF7BBFE10BD10B50446E006010EF8
:104D00001B20FFF7B3FE10BD2DE9F04304460D460E
:104D1000DDE9076700200021012041E0DFF858C1EC
:104D20003CF81080A0F1010CDFF84C9129F81C80B0
:104D300009F1160C3CF81090A0F1010CDFF8388155
:104D400008F1160828F81C9008F1160C3CF8109091
:104D5000A0F1010C08F1160828F81C9008F1160CB7
:104D60003CF81090A0F1010C08F1160828F81C90EE
:104D700008F1160C3CF81090A0F1010C08F116088F
:104D800028F81C9008F1160C3CF81090A0F1010CCA
:104D900008F1160828F81C9000F1010C0CF0FF0037
:104DA0000A28BBDBDFF8D0C0ACF81240ACF82850C2
:104DB000ACF83E20ACF85430ACF86A60ACF88070C7
:104DC000002008E0DFF8B0C03CF910C0614400F1F9
:104DD000010C0CF0FF000A28F4DB4FF00A0C91FBE9
:104DE000FCFC0FFA8CFCDFF89080A8F814C00021BE
:104DF00000200AE0DFF880C00CF1160C3CF910C06E
:104E0000614400F1010C0CF0FF000A28F2DB4FF0C6
:104E10000A0C91FBFCFC0FFA8CF8DFF85CC0ACF8D4
:104E20002A80002100200AE0DFF84CC00CF12C0C95
:104E30003CF910C0614400F1010C0CF0FF000A289D
:104E4000F2DB4FF00A0C91FBFCFC0FFA8CF8DFF858
:104E500028C0ACF840800021002018E0988242422F
:104E6000DC02002000804242DE020020DD02002041
:104E7000E0020020DF020020200A0020DFF808C442
:104E80003CF910C0614400F1010C0CF0FF000A284D
:104E9000F4DB4FF00A0C91FBFCFC0FFA8CF8DFF806
:104EA000E8C3ACF1420CACF85680002100200AE0C7
:104EB000DFF8D4C30CF1160C3CF910C0614400F1CA
:104EC000010C0CF0FF000A28F2DB4FF00A0C91FBFA
:104ED000FCFC0FFA8CF8DFF8B0C3ACF1420CACF874
:104EE0006C80002100200AE0DFF89CC30CF12C0C40
:104EF0003CF910C0614400F1010C0CF0FF000A28DD
:104F0000F2DB4FF00A0C91FBFCFC0FFA8CF8DFF897
:104F100078C3ACF1420CACF88280BDE8F0832DE997
:104F2000F04387B004460D4616461F46DDE90E984D
:104F30000020D6490860BB20FFF76BFD3B20FFF740
:104F4000C8FD8DF80C003C20FFF7C3FD8DF80D0067
:104F50009DF80D009DF80C1040EA012000B2CC49EC
:104F600008803D20FFF7B5FD8DF80E003E20FFF7CD
:104F7000B0FD8DF80F009DF80F009DF80E1040EA6F
:104F8000012000B2C34908803F20FFF7A2FD8DF841
:104F900010004020FFF79DFD8DF811009DF81100D5
:104FA0009DF8101040EA012000B2BB490880412062
:104FB000FFF78FFD8DF812004220FFF78AFD8DF874
:104FC00013009DF813009DF8121040EA012000B272
:104FD000B249C8804320FFF77CFD8DF814004420BF
:104FE000FFF777FD8DF815009DF81500AC4909898C
:104FF000401A9DF8141040EA012000B2A949088027
:105000004520FFF766FD8DF816004620FFF761FD8D
:105010008DF817009DF81700A1494989401A9DF89D
:10502000161040EA012000B29F4908804720FFF790
:1050300050FD8DF818004820FFF74BFD8DF8190042
:105040009DF8190096498989401A9DF8181040EA80
:10505000012000B29549088001209549C1F89802C5
:105060009248B0F900009049B1F90010CDE9001064
:105070008C48B0F900308848B0F900208548B0F974
:1050800000108348B0F90000FFF73EFE7E4842382A
:10509000808A20807C484238408D28807A48423877
:1050A000B0F84000308078484238B0F856002230DE
:1050B00000B2388074484238B0F86C00183800B23A
:1050C000A9F8000070484238B0F88200401E00B2D3
:1050D000A8F80000B8F800007649088007B0BDE8DD
:1050E000F083F0B5DDE90545674E423EB68A06809D
:1050F000654E423E768D0E80634E423EB6F840606D
:105100001680614E423EB6F856606B4F3F88F61BE4
:1051100036B21E805C4E423EB6F86C60674F3F88E8
:10512000F61B36B22680584E423EB6F88260644F77
:105130003F88F61B36B22E80F0BD2DE9F04786B0D1
:105140000024002500260027A046A146A24600BF55
:105150000FE06420FEF730FB0DF1160005A9031FD8
:1051600004AACDE90010891F03A8FFF7D8FE601C30
:10517000C4B2322CEDDB002421E0C820FEF71CFB7A
:105180000DF1160005A9031F04AACDE90010891F1F
:1051900003A8FFF7C4FEBDF90C008044BDF90E0062
:1051A0008144BDF910008244BDF912000544BDF9E7
:1051B00014000644BDF916000744601CC4B2642CF8
:1051C000DBDB642095FBF0F000B23B4908806420F3
:1051D00096FBF0F000B239490880642097FBF0F0AC
:1051E00000B23749088006B0BDE8F08710B5024626
:1051F00000210AE0334C34F91140944203D1314C80
:1052000034F9113003E04C1CE1B20829F2DB00BF95
:10521000D41A20B210BD10B586B0002414222A4939
:1052200001A803F064FA6420FEF70EFBFFF7E8FB29
:105230006420FEF709FB7520FFF731FC702805D0CC
:1052400022A003F06BF9FF2006B010BD00240DE092
:1052500001AA02EB4402517801AA12F81400FFF7E8
:1052600005FC0120FEF7F0FA601CC4B20A2CEFDB4B
:105270000020E9E710B502E0C820FEF7E5FAFFF7E5
:10528000CAFFFF28F8D010BD620A0020988242426F
:10529000A6020020A8020020AA020020F80900208F
:1052A0000C0A0020AC020020AE020020B002002058
:1052B00000804242B2020020A0020020A202002090
:1052C000A4020020B4020020E0AE00086572726FF4
:1052D000722031410D0A00001CB50121102000F0A0
:1052E000E8FB0220009000208DF8040003208DF8D8
:1052F000050002208DF807006946204800F038F9C3
:105300001CBD08B507208DF8000000208DF80100B5
:105310008DF8020001208DF80300684600F037F890
:1053200008BD1CB50121880300F01BFC01210420ED
:1053300000F023FD0220009000208DF804000C20D6
:105340008DF8050001208DF80600684603F04AF844
:105350001CBD10B5FFF7C0FFFFF7D3FFFFF7E1FF5C
:1053600010BD10B5022003F0A3F810B10448FFF7F8
:1053700095FA022003F0A7F810BD000000100240CB
:105380005C09002032490143324A1160704770B510
:10539000002100230F22C4781CB32E4C246804F48F
:1053A000E064C4F5E064C4F30721C1F10404E3B28E
:1053B0000A4144789C40E1B28478144021430C07B0
:1053C000210E254C05786155047804F01F05012451
:1053D000AC4005786D11AD0005F1E025C5F8004140
:1053E00009E0047804F01F050124AC401B4D067849
:1053F000761145F8264070BD194A0A400243154B04
:105400001B1F1A60704739B1124A121D12680243FD
:10541000104B1B1D1A6006E00E4A121D12688243D3
:105420000C4B1B1D1A607047042808D14FF0E02177
:10543000096941F004014FF0E022116107E04FF0EB
:10544000E021096921F004014FF0E0221161704769
:105450000000FA050CED00E000E400E080E100E06F
:1054600080FFFF1F10B504469848844208D10121EF
:10547000084600F087FB0021012000F083FB76E066
:105480009348844208D10121022000F07BFB0021D7
:10549000022000F077FB6AE08E48844208D10121A7
:1054A000042000F06FFB0021042000F06BFB5EE0A5
:1054B0008948844208D10121082000F063FB0021C3
:1054C000082000F05FFB52E08448844208D10121AB
:1054D000102000F057FB0021102000F053FB46E0A5
:1054E0007F48844208D10121202000F04BFB00219D
:1054F000202000F047FB3AE07A48844208D101219D
:10550000402000F03FFB0021402000F03BFB2EE05C
:105510007548844208D10121802000F033FB00212E
:10552000802000F02FFB22E07048844208D1012146
:10553000801500F027FB0021A01500F023FB16E0EA
:105540006B48844208D10121401500F01BFB00216B
:10555000601500F017FB0AE06648844207D101217C
:10556000001500F00FFB0021201500F00BFB10BD13
:10557000F0B50A4600210023002400BF3DE00125CC
:1055800005FA01F3156805EA03049C4234D1056865
:105590004F000326BE40B543056015794E00B54067
:1055A0000668354305601579012D02D01579022D65
:1055B00016D185684F000326BE40B54385605579F6
:1055C0004E00B540866835438560456801268E40AB
:1055D000B5434560456896798E40B6B2354345601F
:1055E000C5684F000326BE40B543C560D5794E005F
:1055F000B540C6683543C560491C1029BFD3F0BD0E
:105600004FF6FF7101600021017141718171C1711B
:10561000704708B54FF480320092009A0A43009216
:10562000009AC261C161009AC261C2690092C269F6
:10563000009208BD0246002013690B400BB1012007
:1056400000E0002070470146086980B270470246BA
:10565000002053690B400BB1012000E0002070478F
:105660000146486980B270470183704741837047A3
:105670000AB1018300E0418370474161704742698C
:105680004A4042617047F0B5002300244D07ED0EFB
:1056900002FA05F3CE1000F1200555F826504E070A
:1056A000F70E0F26BE40B543CF1000F1200646F896
:1056B0002750CE1000F1200555F8265045EA030486
:1056C000CE1000F1200545F82640F0BD0000024054
:1056D0000004024000080240000C0240001002409A
:1056E0000014024000180240001C0240002002404A
:1056F0000024024000280240F648006840F0010003
:10570000F44908600020F34908310860F148006856
:10571000F1490840EF490860F048091D0860F04869
:10572000EC4984310860ED481038091D0860E948EB
:10573000006820F48020E74908600020E5490C312A
:105740000860E4498C31086070470121E14A921CED
:10575000117011460870704710B5014600220023F1
:1057600000204A11012A02D1DA4C236808E0022AFB
:1057700003D1D84C7034236802E0D64C74342368CB
:1057800001F01F02012494401C400CB1012000E0F4
:10579000002010BD38B5002000900024002500BF77
:1057A0003120FFF7D9FF05460098401C0090009873
:1057B000B0F5A04F01D0002DF2D03120FFF7CCFF83
:1057C00008B1012400E00024204638BD0146002035
:1057D000C04A106820F0F80040EAC100106070472D
:1057E000C049086070470021BA4A703211701170C8
:1057F000012802D004280AD104E00121B54A703200
:10580000117005E00521B34A7032117000E000BF4D
:1058100000BF7047B4490860704770B5049C41EA06
:1058200082150126C6EB530645EA0645054345EABF
:105830000465A84E361D356070BDAA4908667047DC
:1058400010B5830143EA016343EA0273A14C843437
:10585000236010BDA3498866704710B5830143EAF1
:10586000016343EA02739B4C8834236010BD9D4959
:10587000086770479B49C864704702460020954BF3
:105880000833186820F0EC6042EA01031843914B9A
:10589000083318607047024600208E4B08331868A2
:1058A00020F0784042EA010318438A4B083318601D
:1058B000704701460020874A0832106820F0030034
:1058C00008431060704783480830006800F00C00FF
:1058D0007047014600207F4A0832106820F0F0002F
:1058E000084310607047014600207A4A0832106869
:1058F00020F4E05008431060704701460020754ACC
:105900000832106820F4604040EAC100106070471F
:10591000F0B50021002200240225002602236D4F4D
:1059200008373F6807F00C0121B1042905D0082988
:1059300037D105E06D4F076036E06D4F076033E00B
:10594000644F3F1D3F68C7F38056624F3F1D3F685D
:1059500007F03F036EB1664FB7FBF3F7DFF874C192
:105960000CF1040CDCF800C0CCF3881C07FB0CF431
:105970000CE05E4FB7FBF3F7DFF858C10CF1040CF5
:10598000DCF800C0CCF3881C07FB0CF4514F3F1D22
:105990003F68C7F301477F1C7D00B4FBF5F7076044
:1059A00002E0524F076000BF00BF4A4F08373F6810
:1059B00007F0F00109094F4F7A5C0768D74047604C
:1059C000444F08373F6807F4E051890A494F7A5C31
:1059D0004768D74087603F4F08373F6807F460410A
:1059E000490B444F7A5C4768D740C760F0BD00213F
:1059F00000F44072B2F5407F0AD1364A083211688D
:105A000021F4F8113C4A02401143324A0832116035
:105A1000304A70321268C0F30B031A432D4B7033B7
:105A20001A60704730494439086070472E49403940
:105A30000860704731490860704701460020254AD8
:105A40008C32106820F01F004A1E1043214A8C320D
:105A500010607047014600201E4A8C32106820F406
:105A6000F8504A1E40EA02201A4A8C3210607047F1
:105A700001460020174A8C32106820F44010084379
:105A80001060704701460020124A8C32106820F4E2
:105A90004000084310607047014600200D4A8C32D8
:105AA000106820F4403008431060704714490860C3
:105AB000704739B1074A303212680243054B303320
:105AC0001A6006E0034A303212688243014B3033D9
:105AD0001A60704700380240FFFFF6EA10300024D9
