:020000040800F2
:100000009010002039790008C9750008CB750008E8
:10001000CF750008D3750008D775000800000000F0
:10002000000000000000000000000000DB75000878
:10003000DD75000800000000DF750008E1750008AC
:100040005379000853790008537900085379000860
:1000500053790008537900085379000827410008B4
:100060005379000853790008537900085379000840
:100070005379000853790008537900085379000830
:10008000537900085379000853790008C30B00081E
:100090009F0B000853790008537900085379000832
:1000A0005379000853790008537900085379000800
:1000B0009F200008C5200008D920000853790008B7
:1000C00053790008537900085379000853790008E0
:1000D0005379000853790008872B0008A51E0008F3
:1000E00053790008537900085379000853790008C0
:1000F00053790008537900085379000853790008B0
:10010000537900085379000853790008537900089F
:10011000537900085379000853790008537900088F
:10012000537900085379000853790008537900087F
:100130005379000853790008537900089F0D00088F
:100140007D0D0008537900085379000853790008A1
:100150000709000853790008537900080B1F0008AD
:10016000537900085379000853790008537900083F
:10017000537900085379000853790008537900082F
:10018000537900085379000853790008537900081F
:10019000537900085379000853790008537900080F
:1001A00000000000000000005379000800F002F891
:1001B00000F06CF80AA090E8000C82448344AAF195
:1001C0000107DA4501D100F061F8AFF2090EBAE893
:1001D0000F0013F0010F18BFFB1A43F0010318477B
:1001E000F4A1000014A200000A444FF0000C10F823
:1001F000013B13F0070408BF10F8014B1D1108BFA5
:1002000010F8015B641E05D010F8016B641E01F844
:10021000016BF9D113F0080F1EBF10F8014BAD1C94
:100220000C1B09D16D1E58BF01F801CBFAD505E0B2
:1002300014F8016B01F8016B6D1EF9D59142D6D30C
:10024000704700000023002400250026103A28BF34
:1002500078C1FBD8520728BF30C148BF0B60704738
:10026000662909F06887642907F0C8830020704771
:100270001FB509F056FF07F023FF040000200021FE
:1002800009F0CAF9E0601FBD10B510BD08F034F8E0
:100290001146FFF7EDFF00F009F808F052F803B43B
:1002A000FFF7F2FF03BC01F023FD00002DED048BEE
:1002B00082B001F0A7FB00F051FE00F0E2FA30B985
:1002C00000201449487014A007F058FB02E00120F8
:1002D000104948701DE0154890ED250A10EE101ADF
:1002E000084609F0ADFE41EC180B104890ED260AC7
:1002F00010EE101A084609F0A3FE41EC190B8DED23
:10030000008B53EC192B0AA007F038FB142002F0E5
:1003100075F9E0E764010020726320646174612074
:100320006572726F72200D0A00000000E408002060
:100330006368333D256620636832203D2566200DC5
:100340000A000000504800787047704710B501F06F
:10035000D1F84E4890ED230A4D4880ED010A4B48F4
:1003600090ED240A4A4880ED020A4848B0F840005F
:1003700000B24749488241F2444008828869804778
:1003800010BD10B5414890ED070A424880ED050ABE
:100390003E4890ED050A3F4880ED040A3B4890ED49
:1003A000250A3C4880ED060A3848B0F8400000B203
:1003B0003849888040F6C41048809FED370A0846C7
:1003C00080ED020AB3EE090A80ED030A416A88470C
:1003D00010BD10B52D4890ED030A304880ED040A99
:1003E0002A4890ED260A2D4880ED060A2748008FFE
:1003F00000B22A49888040F648004880B1EE0C0AD5
:10040000084680ED020AB3EE090A80ED030A416A4C
:10041000884710BD10B522480078012833D1214803
:100420000068401C1F4908600846006841F29411AA
:10043000884205DB08461B49086001201249087004
:10044000FFF79FFF00F034F8022806D100231A4678
:100450001946154800F0C0FB15E000F01BFFBDEE8B
:10046000C00A10EE100A04B2104890ED840ABDEEE6
:10047000C00A10EE100A03B20648B0F91C1022465A
:10048000094800F0A9FB10BD6E000020E408002020
:10049000000000201C000020CDCC2441440000209E
:1004A0006F00002070000020006400401002002057
:1004B000FE480078704710B50446E08E012806D04B
:1004C00002280DD0042814D0082824D11AE094ED75
:1004D000260ADFEDF70A30EE600A84ED260A1BE0FB
:1004E00094ED260ADFEDF20A30EE200A84ED260AAA
:1004F00012E094ED250AF7EE080A30EE200A84EDAA
:10050000250A09E094ED250AF7EE080A30EE600AA4
:1005100084ED250A00E000BF00BFE08E402802D134
:100520000120E4490870E3480078012826D194EDC1
:10053000250AF0EE000AB4EEE00AF1EE10FA08DD4A
:1005400094ED250ADFEDDC0A30EE600A84ED250A21
:1005500014E094ED250AF8EE000AB4EEE00AF1EE9C
:1005600010FA08D294ED250ADFEDD30A30EE200A06
:1005700084ED250A02E00020CE49087094F834008A
:10058000012809D14FF4C87000F00CFFCB487D2141
:10059000C2680120904707E0002000F003FFC74831
:1005A0007D21C2680120904794ED260ADFEDC40A40
:1005B000B4EEE00AF1EE10FA04D29FEDC10A84ED28
:1005C000260A0CE094ED260ADFEDBE0AB4EEE00A3E
:1005D000F1EE10FA03DD9FEDBB0A84ED260A94EDDF
:1005E000250ADFEDB90AB4EEE00AF1EE10FA04D202
:1005F0009FEDB50A84ED250A0CE094ED250ADFEDA8
:10060000B30AB4EEE00AF1EE10FA03DD9FEDAF0A93
:1006100084ED250A10BD10B50446FFF793FE0028AF
:100620006CD0B4F92400A0F580601621484300EE98
:10063000100AB8EEC00A84ED230AB4F92600A0F52A
:100640008060484300EE100AB8EEC00A84ED240A28
:1006500094ED250AB4F92800A0F5806000EE900A18
:10066000F8EEE00A9FED9A1A00EEC10A84ED250A21
:1006700094ED260AB4F92A00A0F5806000EE900AF5
:10068000F8EEE00A9FED931A00EEC10A84ED260A07
:1006900094ED260ADFED900AB4EEE00AF1EE10FACE
:1006A00004D29FED8D0A84ED260A0CE094ED260A13
:1006B000DFED8A0AB4EEE00AF1EE10FA03DD9FEDF9
:1006C000870A84ED260A94ED250ADFED7F0AB4EE51
:1006D000E00AF1EE10FA04D29FED7B0A84ED250AC0
:1006E0000CE094ED250ADFED790AB4EEE00AF1EEB4
:1006F00010FA03DD9FED750A84ED250A2C20005DBC
:10070000012808D1002000F04DFE6C480021C2688D
:100710000846904719E02C20005D032808D10020EE
:1007200000F040FE65487821C268012090470CE047
:100730002C20005D022808D14FF47A7000F032FEC0
:100740005E487821C2680120904710BD2D21095CC8
:10075000012902D1554A11700CE02D21095C0329B1
:1007600002D1524A117005E02D21095C022901D104
:100770004E4A1170704710B5044601205849087060
:1007800000205849C861584800785749497840EADC
:100790000120C0F30A00A08453484078C010524999
:1007A000897840EA4110C0F30A01E1844E4880781C
:1007B00080114D49C97840EA81004B49097940EAE6
:1007C0008120C0F30A01218547480079401046493D
:1007D000497940EAC110C0F30A0161854248407975
:1007E000001181082C2001553F484079C0F30111C8
:1007F0002D2001553C4880793B49C97940EA0120C8
:1008000001B2E1853848007A3749497A40EA012047
:1008100001B221863448807A3349C97A40EA0120FE
:1008200001B261863048017B84F83410417B84F842
:100830003510807B2C49C97B40EA0121E1862046A6
:10084000FFF784FFFFF734FE012804D0022815D0FB
:10085000032814D10AE02046FFF7DDFE174881681F
:100860000120884714202149486308E02046FFF70B
:1008700022FE124881680120884700E000BF00BFC7
:1008800010BD1B48B0F92400B0F5806F37D118486F
:10089000B0F92600B0F5806F31D11548B0F92800C5
:1008A000B0F5806F2BD1124824E0000078000020C2
:1008B000CDCCBC4079000020CDCC4C3F4C01002079
:1008C0000000A0C300005C43000002C300004842D7
:1008D0000AD7233CCDCCCC3D00008CC30000344370
:1008E00064010020AC0700206007002000000140E8
:1008F000E4080020B0F92A00B0F5806F01D0002094
:1009000070470120FCE710B50849094805F0ABF92C
:1009100001280AD10549064805F0C1F903490448F0
:1009200005F018FA0348FFF726FF10BD00880020E5
:1009300088640240E40800200146FA48B0F900004B
:10094000F94A1080F7480180B0F90000B2F90020A0
:10095000801AF64A904206DAF5480088401C00B238
:10096000F34A108010E0EF48B0F90000EE4AB2F907
:100970000020801A41F65832904205DDEC4800888C
:10098000401E00B2EA4A1080E948B0F90000C0EB0E
:100990004030E44AB2F90020104470470146E5486F
:1009A000B0F90000E44A1080E2480180B0F900008C
:1009B000B2F90020801ADD4A904206DADF4800884A
:1009C000401C00B2DD4A108010E0DA48B0F90000A7
:1009D000D94AB2F90020801A41F65832904205DD1A
:1009E000D6480088401E00B2D44A1080D348B0F9DF
:1009F0000000C0EB4030CF4AB2F9002010447047ED
:100A000010B586B0044601AA0021CD4804F081FD4E
:100A10000198A0F20120072873D2DFE800F004114A
:100A20001F2D3B73A5000020C64908609DF81210D9
:100A30009DF8110001EB002000B2C3498882ABE0B1
:100A40000020C04948609DF812109DF8110001EB8C
:100A5000002001B2BC48A0F864109DE00020B94914
:100A600088609DF812109DF8110001EB002001B282
:100A7000B548A0F8B4108FE00020B249C8609DF8D6
:100A800012109DF8110001EB002001B2AE48A0F851
:100A9000041181E00020AB4908619DF810009DF829
:100AA0000F1040EA0120A9490860A948007808BB56
:100AB000A848B0F902000968081A41F28831884252
:100AC00005DDA2480068A0F50050206418E0A148A8
:100AD000B0F902009D490968081A9F49884205DA61
:100AE0009A48006800F50050206409E097480168C2
:100AF000216405E09548008800B2FFF74FFF2064AD
:100B00004AE048E000208F4948619DF810009DF8B8
:100B10000F1040EA0120914908609DF812109DF8DD
:100B2000110001EB002001B28748A0F8A4119DF844
:100B300010109DF80F2041EA022108B2FFF7FCFED9
:100B4000242190FBF1F18048C0F89C118448007882
:100B500048B90120824908707B48B0F89C0101B275
:100B60007948A0F8A01117E00020764988619DF827
:100B700012109DF8110001EB002001B27248A0F89C
:100B8000F4119DF812109DF8110041EA002001B205
:100B9000A4F86C1000E000BF00BF06B010BD10B597
:100BA0000221674804F038FE50B10221644804F085
:100BB000CEFE6C49624804F00CFE6B48FFF720FF44
:100BC00010BD10B501215E4804F026FE18B10121C8
:100BD0005B4804F0BCFE10BDF0B585B007460C467E
:100BE00015461E4640F2FF10009000208DF80800C8
:100BF0008DF8090008208DF80A00200A8DF80B00F6
:100C0000E1B28DF80C10290A8DF80D10E9B28DF8BB
:100C10000E10310A8DF80F10F1B28DF8101000216E
:100C20008DF811108DF812106946384604F07CFBDF
:100C300005B0F0BD2DE9F04186B080460C46154662
:100C40001E460C9F4FF40070019000208DF80C00A0
:100C50008DF80D0008208DF80E00200A8DF80F0089
:100C60008DF81040290A8DF811108DF81250310AB4
:100C70008DF813108DF81460390A8DF815108DF861
:100C8000167001A9404604F04FFB06B0BDE8F081A4
:100C900000B585B06A460021344804F03AFC00985B
:100CA000A0F2012030B1012811D002281DD0032864
:100CB00060D128E00020234908629DF80E109DF8BD
:100CC0000D0001EB002000B22949888253E000208A
:100CD0001C4948629DF80E109DF80D0001EB0020A4
:100CE00001B22348A0F8641045E00020154988624D
:100CF0009DF80E109DF80D0001EB002001B21C487C
:100D0000A0F8B41037E000200E49C8629DF80E101C
:100D10009DF80D0001EB002001B21548A0F8041168
:100D200029E027E08000002082000020A8E4FFFFE7
:100D30007C00002084000020860000207E0000202F
:100D400000640040AC070020100200208C0000204E
:100D50006E0000201C00002078ECFFFF90000020B7
:100D60008800002008000032E408002000680040ED
:100D70009004002000BF00BF05B000BD10B50221E7
:100D80002D4804F049FD48B102212B4804F0DFFD55
:100D90002A49294804F01DFDFFF77AFF10BD10B560
:100DA0000121254804F038FD18B10121224804F042
:100DB000CEFD10BD2DE9F04385B004460D46164624
:100DC0001F464FF000094FF40070009000208DF88E
:100DD00008008DF8090008208DF80A00200A8DF817
:100DE0000B00E1B28DF80C10290A8DF80D10E9B254
:100DF0008DF80E10310A8DF80F10F1B28DF8101029
:100E0000390A8DF81110F9B28DF8121069460A48A6
:100E100004F08AFA804600BF4146074804F01CFBF4
:100E200030B9484609F1010940F6FF718842F3DB09
:100E300005B0BDE8F0830000006800400800003203
:100E400003468B4201DA08467047934201DD1046A3
:100E5000FAE71846F8E7F0B50446002620886188CE
:100E6000401A05B23A480088281A00B200EE100A6B
:100E70003848B0F90000022101FB105034490988BC
:100E8000084400B200EE900A94ED021AF8EEC01A7F
:100E900061EE211A94ED032A01EE105AF8EEC12AF0
:100EA000B0EE611A02EE221AD4ED041AB8EEE02A6E
:100EB00001EE821ABDEEC11A11EE100A07B2F01946
:100EC00006B2B4F9042051423046FFF7B9FF00B230
:100ED000A0822048B0F900001D4908801D48058007
:100EE000F0BDF0B5044620886188401A05B270193B
:100EF00006B219480088281A00B200EE100A1648F7
:100F0000058094ED021A00EE905AF8EEE00A21EE08
:100F1000201AD4ED031A00EE905AB8EEE02AF0EE53
:100F2000410A42EE210A94ED041AF8EEC01A41EE8D
:100F3000810AFDEEE00A10EE900A07B2B4F904202F
:100F400051423846FFF77CFF00B2A082F0BD00009E
:100F500020010020220100202401002010B59FED77
:100F6000F61AF6EE000AB1EE040A4FF4FA7341F6EF
:100F700058320421F14800F012FD10BD10B52DEDDE
:100F8000048B044600BF00BF00BF2088401C00B295
:100F90002080B4F90000B0F5FA5F02DD4FF4FA509A
:100FA0002080B4F90410B4F90220891A4FF4B47205
:100FB00001FB02F0C11700EBD1414913494200EE99
:100FC000101AB8EEC00AD4ED020A20EE208A94ED81
:100FD000040A38EE400AD4ED030A60EE208AB4F920
:100FE00000205142BDEEE80A10EE100AFFF728FF7C
:100FF00000EE100AB8EEC09AB0EE490ABDEC048BC0
:1010000010BD10B52DED048B04469FEDCD0AB0EE5A
:10101000408A9FEDCB0AF0EE408A9FEDC90AB0EE00
:10102000409A47F23050208094ED060AD4ED050A2C
:1010300030EE200AB1EE400AD4ED020A20EE200A7A
:10104000B0EE408A94ED040A38EE400AD4ED030A6B
:1010500020EE200AF0EE408AB4F900205142BDEEA5
:10106000E80A10EE100AFFF7EBFE00EE100AB8EEE9
:10107000C00AB0EE409AB0EE490ABDEC048B10BD38
:1010800010B50446FFF75EF980B99FEDAD0AAD4893
:1010900080ED070A80ED250A2046FFF76FFFBDEEC1
:1010A000C00A10EE100A00B2A08308E02046FFF745
:1010B000A8FFBDEEC00A10EE100A00B2A08310BD5A
:1010C00010B52DED028B04469FED9D0AB0EE408ACF
:1010D0009FED9B0AF0EE408AB4F90200B4F90410C7
:1010E000401A00EE100AB8EEC00A974880ED000AD8
:1010F00096480068401C9549086008460068B0F5AD
:101100007A7F0CDCB4F9040000EE100AB8EEC00AD5
:101110008F4880ED000A9FED8A0A84ED060A8D480B
:101120000078E8BB8848D0ED000A9FED8B1A80EE6E
:10113000810A8748D0ED000A30EE200A80ED000ACF
:10114000B4F9020000EE100AB8EEC00A8048D0EDF3
:10115000000A30EEC00AB5EEC00AF1EE10FA0BDD5F
:10116000B4F9020000EE100AB8EEC00A7848D0EDDB
:10117000000A30EEC00A0CE0B4F9020000EE100ADA
:10118000B8EEC00A7248D0ED000A30EEC00AB1EEE7
:10119000400ADFED720AB4EEE00AF1EE10FA00E068
:1011A0000EE00DD2B4F9020000EE100AB8EEC00A4B
:1011B000674880ED000A0120664908706849087098
:1011C000684890ED000AF1EE000A30EE200A80ED4A
:1011D000000A90ED000ADFED640AB4EEE00AF1EED9
:1011E00010FA03DD9FED600A80ED000AB4F90400F7
:1011F00000EE100AB8EEC00A5548D0ED000A30EEF5
:10120000600AD4ED060A30EE200ADFED580A20EE1F
:10121000200A9FED571AC0EE010A94ED020A20EE53
:10122000800AB0EE408A94ED040A38EE400AD4ED0C
:10123000030A20EE200AF0EE408A4A4890ED000AA8
:10124000BDEEC00A10EE102A90ED000AB1EE400A81
:10125000BDEEC00A10EE101ABDEEE80A10EE100A3C
:10126000FFF7EEFD00B2A083BDEC028B10BD01467E
:101270003448B0F96C00081A00EE100AB8EEC00A43
:10128000DFED3C0A20EE200ABDEEC00A10EE100A87
:1012900000B2704710B52DED048B9FED290AB0EE1A
:1012A000409A9FED270AB0EE408AB2EE000A32481B
:1012B00080ED020AB2EE040A80ED030A214890EDA7
:1012C000260A2D4880ED050A2C48B0F9A40108EE45
:1012D000900A2A48D0F89C11B0F9A001081A00EE33
:1012E000100AB8EEC00A2448D0ED050A30EEC00A54
:1012F000D0ED020A20EE200AB0EE409A90ED030AEB
:10130000F8EEE80A79EE600A20EE200AB0EE408A94
:101310004FF4FA525142BDEEC80A10EE100AFFF720
:101320008FFD00EE100AB8EEC00AB0EE408AB0EEB3
:10133000480ABDEC048B10BDCDCCCC3DF0030020A1
:1013400000000000E4080020300100203C010020E3
:101350002C010020380100200080BB4400004842DE
:101360006E0000203401002000A08C450000B44332
:1013700000000046CDCC4C3F44000020100200206D
:1013800010B504464748A0F8F24100F5F07000F0AF
:1013900069FA444890ED840ABDEEC00A10EE100AC6
:1013A00000B210BD70B5044625463DB33D48B0F9C6
:1013B000F40164280EDA3C480068401C3A49086091
:1013C00008460068282805DD0120384908700020FB
:1013D000354908603548007801280FD13448006845
:1013E000401C33490860334D08460068192805DD64
:1013F00000202E4908702E49086025462846FFF730
:10140000BFFF70BD10B504462B482146C2680120BD
:10141000904710BD70B504460D4627482146C26866
:10142000012090472846FFF7BDFF70BD10B5044668
:10143000062C20D2DFE804F01F03090F151B4FF420
:101440007A719320FFF7E6FF15E040F2DC5182202D
:10145000FFF7E0FF0FE04FF4E1618E20FFF7DAFFC6
:1014600009E040F6C4119320FFF7D4FF03E0002009
:10147000FFF798FF00BF00BF10BD10B50F48008DEB
:10148000962803DD0520FFF7D1FF0AE00B48008D09
:10149000782803DD0120FFF7C9FF02E00320FFF7F2
:1014A000C5FF10BD100200204001002048010020AF
:1014B0004401002024FAFFFF4C01002054080020C2
:1014C00010B5002400BF12E004EB8401BE4A02EB19
:1014D00001109FEDBE1ADFEDBE0AB2EE020A4FF414
:1014E000FA7341F65832042100F059FA641C042CB6
:1014F000EADB10BD10B5002400BF12E004EB84014C
:10150000B44A02EB01109FEDB21ADFEDB30AB1EE5F
:10151000040A4FF4FA7341F65832042100F03FFAFE
:10152000641C042CEADB10BD38B50024FEF70AFF6A
:1015300028B99FEDA60AA94880ED000A15E0A74941
:10154000B1F91010A54AB2F91220891A4FF4B472F9
:1015500001FB02F0C11700EBD141491300EE101A54
:10156000B8EEC00A9D4981ED000A9C4890ED000A42
:10157000DFED9B0A20EE200A80ED030A90ED020ABF
:10158000D0ED030A30EE200AD0ED010A30EE200A39
:10159000BDEEC00A10EE100A00B28E4948828F4894
:1015A00090ED020AD0ED030A30EE600AD0ED010A98
:1015B00030EE600AB1EE400ABDEEC00A10EE100A2D
:1015C00001B28448A0F86210844890ED020AD0ED80
:1015D000030A30EE200AD0ED010A30EE600ABDEEBB
:1015E000C00A10EE100A01B27A48A0F8B2107B4887
:1015F00090ED020AD0ED030A30EE600AD0ED010A48
:1016000030EE200AB1EE400ABDEEC00A10EE100A1C
:1016100001B27048A0F80211002407E004EB840135
:101620006C4A02EB011000F01DF9641C042CF5DB80
:10163000684890ED480ABDEEC00A10EE100A00B2EC
:101640000090644890ED340ABDEEC00A10EE100A16
:1016500003B2604890ED200ABDEEC00A10EE100AF9
:1016600002B25C4890ED0C0ABDEEC00A10EE100A02
:1016700001B25C48FFF7DEFA38BD00215A4A11700A
:1016800028215A4A11809FED5A0A114681ED030A1A
:101690009FED4E0A81ED040A9FED4C0A81ED050A8B
:1016A000B1F9001000EE101AB8EEC00A1146D1EDE3
:1016B000060A30EE600A81ED0B0A91ED0B0AD1EDBE
:1016C0000C0A30EE600AD1ED030A20EE200A81ED0B
:1016D000080A91ED040AD1ED0B0A20EE200A81EDF3
:1016E000090A91ED0B0AD1ED0C0AB0EE001A01EED9
:1016F000600AD1ED0D0A30EE200AD1ED050A20EE88
:10170000200A81ED0A0A90ED020AB5EEC00AF1EE58
:1017100010FA34DD91ED080AD1ED090A30EE200A05
:10172000D1ED0A0A70EE200AB1F91C1000EE101A71
:10173000B8EEC00A30EE800ABDEEC00A10EE101AF4
:1017400009B291831146B1F91C10002901DA002178
:101750009183D0ED020A2549B1F91C1000EE101A50
:10176000B8EEC00A20EE800A80ED020A1F4991ED12
:101770000B0A81ED0C0A91ED0C0A81ED0D0A704700
:1017800010B5044610484482604201B20E48A0F8E9
:10179000621000F067F80C48503000F063F80A4A15
:1017A00092ED200ABDEEC00A10EE102A11B2064AD0
:1017B00092ED0C0ABDEEC00A10EE102A10B2002302
:1017C0001A46FFF7F7FA10BD900400200000000051
:1017D000CDCCCC3D100200209A99993E000000200B
:1017E0000000BE43006400407501002098080020FE
:1017F000CDCC4C3DD0ED000AF4EEC00AF1EE10FA6B
:1018000001DD80ED000AD0ED000AB1EE401AF4EEE1
:10181000C10AF1EE10FA03D2F1EE400AC0ED000A5F
:10182000704743640264C16380ED000AC0ED010AA1
:1018300080ED021A704780ED000AC0ED010A80EDCC
:10184000021ADFED6D1AC0ED091ADFED6B1AC0ED5B
:101850000A1ADFED691AC0ED0B1ADFED671AC0ED49
:101860000C1A704700B50146B1F91200B1F9142005
:10187000801A00EE100AB8EEC00A81ED080AC86BA3
:1018800003283ED191ED000AD1ED080A20EE200A8E
:1018900081ED090A91ED0A0AD1ED010A91ED081ACC
:1018A00000EE810A81ED0A0A91ED080AD1ED070ADE
:1018B00030EE600AD1ED020A20EE200A81ED0B0A1B
:1018C000D1ED110AF8EE600AB0EE600A01F12800CD
:1018D000FFF790FF91ED090AD1ED0A0A30EE200AD8
:1018E000D1ED0B0A30EE200A81ED0C0AD1ED100A81
:1018F000F8EE600AB0EE600A01F13000FFF77AFFFF
:1019000042E0C86B04283FD191ED080AD1ED070AE7
:1019100030EE600AD1ED000A20EE200A81ED090ABE
:1019200091ED010AD1ED080A20EE200A81ED0A0AA4
:1019300091ED080AD1ED070AB0EE001A01EE600A37
:10194000D1ED060A30EE200AD1ED020A20EE200A7F
:1019500081ED0B0A91ED090AD1ED0A0A30EE200A59
:10196000D1ED0B0A30EE200AD1ED0C0A30EE200A40
:1019700081ED0C0AD1ED100AF8EE600AB0EE600AB3
:1019800001F13000FFF736FF91ED070A81ED060AFD
:1019900091ED080A81ED070A91ED0C0A00BD2DE9D1
:1019A000F0412DED048B04460D4616461F46B0EE61
:1019B000408AF0EE608AB0EE419A1048A064104868
:1019C000E064B0EE491AF0EE680AB0EE480A3B4611
:1019D000324629462046D4F848C0E047B0EE491ABE
:1019E000F0EE680AB0EE480A2046E16C8847BDEC8C
:1019F000048BBDE8F08100000000000023180008FF
:101A00003718000810B500F052FC00F06BF800F039
:101A10008DF800F0A7F8A82000F08EFD00F03AFA4B
:101A200002F00AFB00F031FB00F04DF900F0DEFCA3
:101A300000F076FD00F099FE02F061FA02F06BFB17
:101A40004FF4FA7000F0DAFD00F0A8FE10BD10B5FA
:101A500004462CB14FF480411D4802F0E9FC04E03B
:101A60004FF480411A4802F0E1FC10BD10B5044665
:101A700024B18021174802F0DBFC03E080211548E7
:101A800002F0D4FC10BD10B504462CB14FF4005147
:101A9000114802F0CBFC04E04FF400510E4802F074
:101AA000C7FC10BD18B118210C4A516302E00F2188
:101AB0000A4A5163704720B1094A1160121F116030
:101AC00004E06422064B1A601B1F1A607047000076
:101AD00000140240001002400018024000000140C3
:101AE000381800401CB50121302002F0C4FE8020CF
:101AF000009001208DF8040000208DF806000320DE
:101B00008DF8050001208DF807006946054802F0B0
:101B100011FC4FF4804000906946034802F00AFC33
:101B20001CBD000000100240001402401CB5012141
:101B3000402002F0A0FE4FF40050009001208DF8EC
:101B4000040000208DF8060003208DF80500012018
:101B50008DF807006946024802F0ECFB1CBD00004E
:101B6000001802401CB50121022002F084FE102062
:101B7000009001208DF8040000208DF8060003205D
:101B80008DF8050001208DF807006946014802F034
:101B9000D1FB1CBD000402401CB50121022002F053
:101BA0006AFE8020009002208DF8040000208DF84D
:101BB000060003208DF8050000208DF80700694617
:101BC000464802F0B7FB07221146444802F03DFCAC
:101BD0001CBD1FB50121102002F0A5FE404802F0F7
:101BE000E7FF404800900020ADF80400ADF8060083
:101BF0004FF48060ADF808000420ADF80A00002022
:101C0000ADF80C006946364803F039F80121344834
:101C100003F0BDF801224021314803F065F91FBDF2
:101C200008B544208DF8000000208DF80100032045
:101C30008DF8020001208DF80300684602F089FA51
:101C400008BD00B58FB00121880502F014FE002107
:101C5000254803F0ABFF00BF2348006800F00100F7
:101C60000028F9D1204803F0C5FE4FF00060009035
:101C70001B48001D01901D48029000200390122077
:101C80000490002005904FF480600690002007909B
:101C900008904FF4807009904FF440300A90002073
:101CA0000B900C900D900E9069460F4803F044FF86
:101CB000012210210C4804F006F801210A4803F023
:101CC00075FF0FB000BD10B5FFF766FFFFF781FF8E
:101CD000FFF7A6FFFFF7B5FF10BD000000040240AC
:101CE00000100140A08601008864024060070020C7
:101CF00000BF704700BF9E4A128802F04002002ACF
:101D0000F9D0C2B29A4B1B1D1A8070471CB5012135
:101D1000402002F0B0FD4FF48440009002208DF886
:101D2000040000208DF8060003208DF80500002037
:101D30008DF8070069468F4802F0FCFA08220E2150
:101D40008C4802F082FB082209218A4802F07DFBC0
:101D50001CBD1CB50121082002F08DFD4FF4407020
:101D6000009002208DF8040000208DF8060003206A
:101D70008DF8050000208DF8070069467E4802F0C6
:101D8000D9FA072208217C4802F05FFB07220921CB
:101D9000794802F05AFB1CBD1FB5FFF7DAFF01219D
:101DA000880402F0AFFD4FF4E13000900020ADF860
:101DB0000400ADF80600ADF808000C20ADF80A00EC
:101DC0000020ADF80C0069466C4802F058FF012273
:101DD00040F22551694803F090F80121674802F06C
:101DE000D6FF00BF8021654803F0ACF80128F9D187
:101DF0001FBD1FB5FFF78AFF0121202002F093FDD0
:101E00004FF4E13000900020ADF80400ADF806007A
:101E1000ADF808000C20ADF80A000020ADF80C0069
:101E20006946534802F02BFF012240F225515048E9
:101E300003F063F801214E4802F0A9FF00BF8021A2
:101E40004B4803F07FF80128F9D11FBD1CB54FF4B2
:101E5000A06002F079F903208DF8050001208DF8CB
:101E6000060047208DF8040001208DF8070001A826
:101E700002F06FF903208DF8010000208DF80200B8
:101E800027208DF8000001208DF80300684602F03D
:101E900060F91CBD10B5FFF77FFFFFF7AAFFFFF742
:101EA000D5FF10BD10B540F22551344803F060F85D
:101EB00050B3324802F09AFFC4B23148406A48B980
:101EC000FF2C20D12E48416A001D445401202C498A
:101ED000486218E0FE2C0DD12948416A001D445487
:101EE000001F406A401C2649886200204862012089
:101EF000086008E02248416A001D4454001F406AFF
:101F0000401C1F49486200BF10BD10B540F225516A
:101F1000174803F02DF850B3154802F067FFC4B21C
:101F20001748406A48B9FF2C20D11548416A001D66
:101F3000445401201249486218E0FE2C0DD110488B
:101F4000416A001D4454001F406A401C0C498862CD
:101F5000002048620120086008E00948416A001D2D
:101F60004454001F406A401C0549486200BF10BD30
:101F70000014014000180240000C024000480040DC
:101F80007C0700200EB50121084602F0BBFC4FF093
:101F9000FF3001905920ADF800000020ADF8080096
:101FA000ADF802000121880704F010F869464FF0EF
:101FB000804003F0A0FF0121880704F025F80EBD42
:101FC0000EB50121022002F09DFC4A4803F0E6FE16
:101FD00044F61F6001905920ADF800000020ADF8D4
:101FE0000800ADF802006946424803F084FF012270
:101FF0001146404804F020FC01213E4804F004F85A
:102000000EBD0EB50121042002F07CFC3A4803F01D
:10201000C5FE40F2E73001905920ADF800000020E5
:10202000ADF80800ADF802006946334803F063FFDD
:1020300001221146304804F0FFFB01212E4803F035
:10204000E3FF0EBD08B54FF4A06002F07DF81D203F
:102050008DF8000001208DF8010002208DF80200AB
:1020600001208DF80300684602F073F81E208DF8F9
:10207000000000208DF801008DF8020001208DF88D
:102080000300684602F065F808BD10B5FFF77AFF57
:10209000FFF796FFFFF7B5FFFFF7D4FF10BD10B5B0
:1020A0000121880704F0DFFB38B10121880704F023
:1020B000EBFB0121880704F0D3FB10BD4FF08040FB
:1020C000406A704710B501210A4804F0CCFB012199
:1020D000084804F0D9FB10BD10B50121064804F0F2
:1020E000C2FB08B1FEF796F90121034804F0CCFBCE
:1020F00010BD0000000400400008004000B58BB097
:102100000121084602F00FFC0121084602F0B3FB52
:102110000121102002F0AFFB01220821674802F0E4
:1021200094F901220921654802F08FF901220E215C
:10213000634802F08AF901220D21614802F085F915
:102140004FF44070099002208DF8280003208DF88C
:10215000290000208DF82A0001208DF82B0009A904
:10216000564802F0E7F84FF4C040099009A95448D6
:1021700002F0E0F844F24F60ADF818000020ADF82E
:102180001A00C72007900020ADF820008DF822002B
:1021900006A94C4803F0AFFE6020ADF80400012012
:1021A000ADF806000420ADF8080000200390ADF85B
:1021B00010000820ADF812004001ADF81400002016
:1021C000ADF8160001A93F4803F02AFF01A93D48D8
:1021D00003F05FFF01A93B4803F0A8FF01A93948BC
:1021E00004F00AF80121374803F00EFF01213548B9
:1021F00004F0FBFA0BB000BD00B58BB0012140200C
:1022000002F080FB0121802002F035FB092206212B
:102210002D4802F01AF9092211462B4802F015F94F
:102220004FF41070099002208DF8280003208DF8DB
:10223000290000208DF82A0001208DF82B0009A923
:10224000214802F077F840F28330ADF81800002002
:10225000ADF81A0040F63E0007900020ADF82000CF
:1022600006A91A4803F047FE6020ADF804000120DB
:10227000ADF806000020ADF8100001A9134803F0E6
:10228000CFFE01A9114803F004FF08210F4804F014
:1022900054F808210D4804F059F801210B4803F0C7
:1022A00095FE0121094803F0AFFE0BB000BD10B54B
:1022B000FFF724FFFFF7A0FF10BD00000000024061
:1022C0000010024000000140001C024000180040C5
:1022D0001CB50121082002F0CEFA03200090022054
:1022E0008DF8040003208DF805006946434802F08C
:1022F00021F809220021414802F0A7F80922012112
:102300003E4802F0A2F81CBD08B54FF4A06001F0F1
:102310001BFF14208DF8000001208DF801008DF8BE
:1023200002008DF80300684601F013FF13208DF8BA
:10233000000000208DF8010001208DF802008DF8CA
:102340000300684601F005FF08BD00B587B0012114
:10235000480602F0D7FA2A4802F054FE04A802F018
:1023600075FF00208DF816008DF817008DF8180005
:102370008DF819008DF81A0001208DF81B0000203F
:102380008DF812008DF8130005208DF81400072039
:102390008DF815000320ADF8100004A9184802F0CC
:1023A0004AFE00208DF80A008DF80B0001208DF800
:1023B0000C000020ADF80000ADF80200ADF80400FC
:1023C000ADF80600ADF8080001208DF80D00684654
:1023D00002F0BBFE01220221094803F0B5F90122F7
:1023E0001146074803F0B0F907B000BD10B5FFF77C
:1023F0006FFFFFF789FFFFF7A8FF10BD000C024039
:10240000006400401CB50121022002F034FA4FF4B0
:102410004050009002208DF804008DF805006946B8
:10242000434801F087FF09220C21414802F00DF8D2
:1024300009220D213E4802F008F81CBD08B54020D5
:102440008DF8000001208DF801008DF802008DF854
:102450000300684601F07DFE3F208DF8000001205A
:102460008DF801008DF802008DF80300684601F038
:1024700070FE08BD00B587B00121480602F042FA9F
:102480000121880602F03EFA2A4802F0BBFD04A8AA
:1024900002F0DCFE00208DF816008DF817008DF894
:1024A00018008DF819008DF81A0001208DF81B0016
:1024B00000208DF812008DF8130005208DF814000F
:1024C00007208DF815000320ADF8100004A9194865
:1024D00002F0B1FD0E208DF80A0000208DF80B00EF
:1024E00001208DF80C000020ADF80000ADF80200CE
:1024F000ADF80400ADF80600ADF8080001208DF835
:102500000D00684602F021FE01220221094803F075
:102510001BF901221146074803F016F907B000BD68
:1025200010B5FFF76FFFFFF789FFFFF7A3FF10BD9F
:10253000000402400068004010B504466FF004003B
:1025400001F054FEE11704EB5171C1F3C701394AA0
:1025500011701046007800EB4001C1EBC0104FF63F
:10256000FF7101EAC0003449088010BD0146314ABC
:1025700012784A434FF0E0235A6100229A611A46CA
:10258000126942F001021A6100BF4FF0E0221069A7
:1025900000F001021AB100F48032002AF5D04FF0A9
:1025A000E022126922F001024FF0E0231A610022BA
:1025B0009A6170470146204A12884A434FF0E0234F
:1025C0005A6100229A611A46126942F001021A61A8
:1025D00000BF4FF0E022106900F001021AB100F4D0
:1025E0008032002AF5D04FF0E022126922F0010279
:1025F0004FF0E0231A6100229A61704770B50446DB
:102600004FF4077094FBF0F0C6B24FF4077094FBE0
:10261000F0F100FB114085B205E04FF40770FFF7C1
:10262000C9FF701EC6B2002EF7D115B12846FFF7BC
:10263000C1FF70BD600100206201002001460868F2
:10264000704701464948814201D2002070474848FE
:10265000814201D20820F9E74648814201D2102088
:10266000F4E74548814201D21820EFE74348814210
:1026700001D22020EAE74248814201D22820E5E742
:102680004048814201D23020E0E73F48814201D2F8
:102690003820DBE73D48814201D24020D6E73C4864
:1026A000814201D24820D1E73A48814201D25020EC
:1026B000CCE75820CAE72DE9F04704460E461746F6
:1026C0004FF009080025A946B4F1006F02D304F0C9
:1026D000030008B1BDE8F08704F068FC002004F0B6
:1026E00048FC254604EB87092B48854215D211E0AA
:1026F0002846FFF7A3FF401C58B12846FFF7A1FF6B
:102700008246022104F0A6FC8046B8F1090F01D0F0
:1027100002E02D1D4D45EBD300BFB8F1090F0CD1E0
:1027200008E02046316804F0B1FD092800D003E03C
:10273000241D361D4C45F4D300BF012004F019FCC4
:1027400004F041FC00BFC5E730B503460C46154612
:10275000002206E01846FFF771FF44F822001B1D17
:10276000521CAA42F6D330BD7047704700400008A3
:102770000080000800C000080000010800000208F6
:1027800000000408000006080000080800000A080D
:1027900000000C0800000E080000FF1F00B597B0F5
:1027A0000121480402F0AEF80121082002F063F88C
:1027B0000121480502F05FF807220621FE4801F0DA
:1027C00044FE4020159002208DF8580003208DF81B
:1027D000590000208DF85A0001208DF85B0015A9E2
:1027E000F54801F0A7FDF54803F004F90021F3488E
:1027F00003F0DCF900BFF14803F025FA0028FAD114
:102800004FF000600190EE480290EE4803900020E7
:10281000049078200590002006904FF48060079087
:102820000020089009904FF480700A9000020B90ED
:1028300000200C9003200D9000200E900F9001A915
:10284000DE4803F079F90121DC4803F0AFF9DC48F8
:10285000001F02F0ADF94FF4E13011900020ADF807
:102860004800ADF84A00ADF84C00ADF85000042027
:10287000ADF84E0011A9D248001F02F000FA012164
:10288000CF48001F02F083FA002240F22661CC48B4
:10289000001F02F032FB002240F22551C848001F01
:1028A00002F02BFB012240F22441C548001F02F038
:1028B00024FB26208DF8400003208DF841008DF880
:1028C000420001208DF8430010A801F042FC0122D3
:1028D0004021BB48001F02F007FB17B000BD10B538
:1028E0000246002329E0002021E002EB8004D4ED21
:1028F000000A441C02EB840494ED001AF4EEC10AB1
:10290000F1EE10FA11DD02EB800494ED000A441C94
:1029100002EB8404D4ED000A02EB8004C4ED000A4B
:10292000441C02EB840484ED000A441CE0B24C1EFB
:10293000E41A8442D9DC5C1CE3B24C1E9C42D2DC1B
:1029400010BD30B5034605E013F8010B80EA020420
:102950009D48025D0800A1F10101F5D1104630BD8E
:1029600070B505460C4600260DB1022C01D800209A
:1029700070BD611EFF222846FFF7E3FF0646601E7A
:10298000285CB04201D10120F2E70020F0E770B5E9
:102990002DED028B9FED8D0AB0EE408A874803F043
:1029A00028F9C0F17800C5B20024B0E08548005D88
:1029B000A5282DD1611D8348FFF7D2FF002827D01D
:1029C0008049601C095C7F4AA01C105C41EA002021
:1029D0007F49A1F801001146E01C085C7C49C870E1
:1029E0001146601D095CA01D105C41EA002000B288
:1029F0007749C8800846C08801280AD10846B0F83F
:102A00000120704BE01D19187148083005F032F8AC
:102A10007CE06F48C08802281FD16A49E01D085C2D
:102A20006B49497C60F30301694841746549E01DC5
:102A3000085C00206649497C60F3071164484174D2
:102A4000407C03096248407C00F00F026048B0F906
:102A5000061060A004F092FF58E05D48C08803288B
:102A60000AD15B48B0F80120564BE01D19185848B0
:102A7000123004F0FFFF49E05548C08804280AD10D
:102A80005348B0F801204F4BE01D1918504818303A
:102A900004F0F0FF3AE04E48C08805280AD14C48BF
:102AA000B0F80120474BE01D191849482C3004F0BC
:102AB000E1FF2BE04648C08806280AD14448B0F818
:102AC0000120404BE01D191841482E3004F0D2FF80
:102AD0001CE03F48C08807280AD13D48B0F80120D3
:102AE000384BE01D19183A482F3004F0C3FF0DE0B1
:102AF0003748C088082809D13548B0F80120314B43
:102B0000E01D19183248313004F0B4FF641CAC42A7
:102B1000FFF44CAF2E48006A384948602C48006AE0
:102B20003749384A127841F8220036480078401C6C
:102B30003449087008460078052821D10020087023
:102B400001203149087005212D48FFF7C8FE0124F6
:102B500009E02B4800EB840090ED000A30EE080AF3
:102B6000B0EE408A641C032CF3D9B0EE080AC8EE1C
:102B7000000A2248C0ED060A9FED140AB0EE408A12
:102B8000BDEC028B70BD10B5002440F224410C480E
:102B9000001F02F0EDF9D8B30948001F0488001D9A
:102BA00004880021054803F001F8FFF7F0FE1749FB
:102BB000024803F074F82CE0000C024088600240E8
:102BC00004440040DC0700203BA100080000000096
:102BD00054080020436D6449443D256420206172FF
:102BE0006D6F72547970653D2025642020206875D2
:102BF0007274547970653D25640D0A0098080020B0
:102C0000D00800207801002075010020400F00103E
:102C100007E078210D4802F0EAFF01210B4802F09D
:102C2000C5FF00BF10BD70B505460C4600260DB1AE
:102C3000022C00D870BD611EFF222846FFF781FEDE
:102C40000646601E2E5400BFF4E700008860024074
:102C5000F0EE400AF6EE001A60EEA11AB0EE611A2C
:102C6000B0EE600A10EE100AFE49A1EB600000EE23
:102C7000100A21EE002AF7EE081A42EE401A61EE21
:102C8000801AB0EE610A704730B585B005460DF187
:102C9000120004A9031F03AACDE90010891F02A88E
:102CA00001F01FF800241DE0032C0BDA02A830F914
:102CB000140000EE100AB8EEC00A05EB840080EDA7
:102CC000000A0EE002A830F9140000EE100AB8EE77
:102CD000C00ADFEDE50A80EE201A05EB840080EDE6
:102CE000001A641C062CDFDB05B030BD00B52DEDED
:102CF000108B9BB0F0EE40AAB0EE60BAF0EE41BA95
:102D0000B0EE61DAB0EE42CAF0EE62CAB0EE43AAAB
:102D1000F0EE638AB0EE449AD44890ED000AD0ED0C
:102D2000000A20EE200A8DED0B0A90ED000AD04833
:102D3000D0ED000A20EE200A8DED0A0ACB4890ED76
:102D4000000ACC48D0ED000A20EE200AF0EE40EA5E
:102D5000C64890ED000AC848D0ED000A20EE200ACF
:102D60008DED090AC24890ED000AD0ED000A20EE70
:102D7000200A8DED080A90ED000ABE48D0ED000A49
:102D800020EE200A8DED070AB94890ED000ABA48F6
:102D9000D0ED000A20EE200AB0EE40FAB54890EDE2
:102DA000000AD0ED000A20EE200A8DED060A90ED13
:102DB000000AB148D0ED000A20EE200A8DED050A88
:102DC00090ED000AD0ED000A20EE200A8DED040AF5
:102DD000FFF774F9A949086008460068A84909681E
:102DE000884210D2A64800684FF6FF71081AA3491E
:102DF0000968084400EE100AB8EE400ADFEDA10AA7
:102E0000C0EE209A0CE09D4800689D490968401A70
:102E100000EE100AB8EE400ADFED9A0AC0EE209AE2
:102E200096480068964908606DEE0D0A4CEE0C0A53
:102E30004CEEAC0AB0EE600AFFF70AFFB0EE408A33
:102E40002DEE080AB0EE40DA2CEE080AB0EE40CAC9
:102E50002CEE880AF0EE40CA6AEE0A0A48EEA80A8A
:102E600049EE090AB0EE600AFFF7F2FEB0EE408AC2
:102E70002AEE080AB0EE40AA28EE880AF0EE408A50
:102E800029EE080AB0EE409AB0EE000A6AEE000A97
:102E90009DED060AB6EE001A31EE401A9DED040AC9
:102EA00031EE400A20EE800AF0EE000A68EEA01A29
:102EB000DDED070A9DED091A70EEC10A01EEA00AC8
:102EC000F0EE000A69EE200A3FEE2E1A00EE810AAB
:102ED0008DED1A0AB0EE000A2AEE001A9DED070ADF
:102EE000DDED090A30EE200A21EE000AF0EE000ABC
:102EF00028EEA01ADDED080AF6EE001A71EEE01ACF
:102F0000DDED040A71EEE00A01EE200AF0EE000A9F
:102F100069EE201ADDED050A9DED0A1A70EEC10A70
:102F200001EEA00A8DED190AB0EE000A2AEE000AA1
:102F30007FEE6E0A20EE200AF0EE000A68EEA01A7C
:102F4000DDED050A9DED0A1A70EE810A01EEA00A78
:102F5000F0EE000A29EE201ADDED080AF6EE001A5E
:102F600071EEE01ADDED060A71EEE00AF0EE40DAED
:102F700041EE20DA9DED1A0A60EE000A9DED190A75
:102F800040EE000A10EE901A084607F059F8CDE915
:102F900000019DED000B06F003FA8DED020B9DED97
:102FA000020B51EC100B06F059FB0FEE900AB0EE3D
:102FB0006DEA3FEE6E0AF0EE000A20EE200A8DED7B
:102FC000180A9DED0A0ADDED050A30EE200AF0EE42
:102FD000000A20EE200A8DED170A9DED0B0ADDEDAB
:102FE000080A70EE600A9DED060A70EEC00A9DEDBB
:102FF000040A30EE800A8DED160AB0EE000A6FEE7C
:10300000800A9DED060AB6EE001A31EE401A9DEDDB
:10301000040A31EE400A20EE800AF0EE4EDAF0EEBD
:10302000000A6DEEA00A3FEE6E1A00EE810A8DEDE9
:10303000150AB0EE000A2FEE801A9DED070ADDEDAD
:10304000090A30EE600A21EE000AF0EE4EDAF0EEE8
:10305000000A6DEEA01ADDED0A0A9DED051A70EE6C
:10306000810A11E0DF59375F3333034288010020C2
:103070008C0100209001002094010020A401002078
:10308000A00100200024F44901EEA00A8DED140AED
:10309000B0EE000A2FEE800A7EEE8F0A20EE200AA4
:1030A000F0EE4EDAF0EE000A2DEEA01ADDED080A81
:1030B000F6EE001A71EEE01ADDED060A71EEE00A96
:1030C00001EE200A8DED130A9DED160A6CEE000A42
:1030D0009DED170A4CEEC00A9DED130A28EE801AEA
:1030E0009DED140A09EE401A30EE810A8DED120AA8
:1030F0009DED180A6CEE800A9DED160A4DEE400A11
:103100009DED150A29EE001A9DED130A0AEE401AEC
:1031100030EE810A8DED110A9DED170A6DEE000A61
:103120009DED180A4CEE400A9DED140A2AEE001A95
:103130009DED150A08EEC01A30EE810A8DED100AD9
:103140009DED120AB5EEC00AF1EE10FA61D09DEDC8
:10315000110AB5EEC00AF1EE10FA5AD09DED100A30
:10316000B5EEC00AF1EE10FA53D09DED120ADFED74
:10317000FE0A60EE200AFD4890ED000A00EEA90A62
:1031800080ED000A9DED110ADFEDF70A60EE200ADE
:10319000F74890ED000A00EEA90A80ED000A9DEDC7
:1031A000100ADFEDF10A60EE200AF24890ED000A05
:1031B00000EEA90A80ED000A9DED120AB0EE001A99
:1031C000F0EE6A0A41EE000AE84890ED000A30EE9F
:1031D000800AF0EE40AA9DED110AB0EE001AF0EE62
:1031E0004B0A41EE000AE24890ED000A30EE800AF8
:1031F000B0EE40BA9DED100AB0EE001AF0EE6B0A88
:1032000041EE000ADB4890ED000A30EE800AF0EE55
:1032100040BAD94890ED000AB1EE400A20EE2A0AE1
:10322000D648D0ED000A00EECB0AD54890ED001A42
:10323000F0EE400A41EE6B0AD24890ED000A00EE33
:10324000A90A8DED0F0A90ED000A20EE2A0ACB485C
:10325000D0ED000A00EEAB0AC94890ED001AF0EE7E
:10326000400A41EE4B0AC44890ED000A00EEA90A5C
:103270008DED0E0AC34890ED000A20EE0B0ABE4801
:10328000D0ED000A00EEEB0ABD4890ED001AF0EE1A
:10329000400A41EE2A0AB94890ED000A00EEA90A58
:1032A0008DED0D0AB74890ED000A20EE2B0AB248CA
:1032B000D0ED000A00EE8B0AB04890ED001AF0EE57
:1032C000400A41EE6A0AAE4890ED000A00EEA90AF3
:1032D0008DED0C0ADDED0F0A20EEA01ADDED0E0AD1
:1032E00000EEA01ADDED0D0A00EEA01ADDED0C0ACD
:1032F00000EEA01AB0EE410AFFF7AAFCB0EE408A39
:103300009DED0F0A20EE080A9E4880ED000A9DED13
:103310000E0A20EE080A984880ED000A9DED0D0A7D
:1033200020EE080A954880ED000A9DED0C0A20EE7B
:10333000080A934880ED000A1BB0BDEC108B00BD5D
:1033400030B52DED0C8B87B005460C469FED8E0AEF
:103350008DED020A9FED8C0A8DED010A9FED8A0A20
:103360008DED000A2046FFF78FFC94ED050ADFED96
:10337000870A20EE200ADFED860A80EE201AB0EEE2
:10338000418A94ED040ADFED810A20EE200ADFED88
:10339000800A80EE201AF0EE418A94ED030ADFEDF8
:1033A0007B0A20EE200ADFED7A0A80EE201AB0EECA
:1033B000419A94ED020AF0EE402A94ED010AB0EE33
:1033C000402A94ED000AF0EE401A9FED6F4ADFEDBF
:1033D0006E3A9FED6D3AB0EE481AF0EE680AB0EE24
:1033E000490AFFF783FC674890ED000A8DED030A58
:1033F000614890ED000A8DED040A604890ED000AE6
:103400008DED050A5E4890ED000A8DED060A9DEDF2
:10341000050AF8EE000A20EE200ADDED050A20EE8E
:10342000200ADDED060AB0EE001A60EE810A9DED7D
:10343000061A00EEC10AF7EE000A30EE200A10EE7E
:10344000101A084606F0FCFD41EC1C0B9DED040A29
:10345000F0EE000A20EE200ADDED050A20EE200A3B
:10346000DDED030AB0EE001A60EE810A9DED061A4A
:1034700000EE810A10EE101A084606F0E1FD41EC5C
:103480001D0BB0EE4C1AF0EE6C1AB0EE4D0AF0EED9
:103490006D0A05F08DFEB0EE40BAF0EE60BA51EC68
:1034A0001B0B06F0CFF841EC1A0B9FED3A0B53ECD7
:1034B000102B06F005FB41EC190B9FED380B53EC7C
:1034C000102B06F0A5F941EC180B06F0C7F800EE3A
:1034D000100A85ED000A9DED040AF8EE000A20EEC0
:1034E000200ADDED060A20EE200ADDED030AB0EE2B
:1034F000001A60EE810A9DED051A00EE810A10EEB9
:10350000101A084606F09CFD41EC1C0BB0EE4C0A6C
:10351000F0EE6C0A05F030FBB0EE40BAF0EE60BAA7
:1035200051EC1B0B06F08EF841EC1A0B9FED190BBA
:1035300053EC102B06F0C4FA41EC190B9FED170B5E
:1035400053EC102B06F064F941EC180B06F086F8EA
:1035500000EE100A85ED010A9DED040AF8EE000A5E
:1035600020EE200A1EE000000AD7233C7C01002048
:1035700080010020840100208C01002090010020A7
:10358000940100208801002000000000DB0F49406A
:10359000000034430000000000806640000000602E
:1035A000FB210940DDED040A20EE200ADDED050ACD
:1035B000B0EE001A60EE810A9DED051A00EEC10A18
:1035C000F7EE000A30EE200A10EE101A084606F058
:1035D00037FD41EC1B0B9DED050AF0EE000A20EED5
:1035E000200ADDED060A20EE200ADDED030AB0EE2A
:1035F000001A60EE810A9DED041A00EE810A10EEB9
:10360000101A084606F01CFD41EC1C0BB0EE4B1ADC
:10361000F0EE6B1AB0EE4C0AF0EE6C0A05F0C8FD45
:10362000B0EE40AAF0EE60AA1FED260B53EC102B73
:1036300051EC1A0B06F044FA41EC190B1FED290B63
:1036400053EC102B06F0E4F841EC180B06F006F8EA
:1036500000EE100A85ED020A07B0BDEC0C8B30BD00
:1036600010B58CB00446002009900A900B902421DC
:10367000684604F076FA694609A8FFF761FE9DEDF9
:10368000030A84ED030A9DED040A84ED040A9DED0E
:10369000050A84ED050A94ED070AD4ED050A9FEDAD
:1036A000081A00EE810A84ED070A9DED0A0A84EDEE
:1036B000060A9DED0B0A84ED080A0CB010BD00004F
:1036C0006F12833A1CB50121202001F0D4F84FF489
:1036D0006070009002208DF8040000208DF8060034
:1036E00003208DF8050000208DF8070069464E483C
:1036F00000F020FE4020009001208DF80400002002
:103700008DF8060003208DF8050000208DF80700D5
:103710006946454800F00EFE05220721424800F0A8
:1037200094FE05220921404800F08FFE0522082161
:103730003D4800F08AFE1CBD00B585B0012108059A
:1037400001F0F1F80121080501F042F900214FF4E0
:10375000801001F03DF90020ADF800004FF48270B8
:10376000ADF802000020ADF80400ADF80600ADF899
:1037700008004FF40070ADF80A003020ADF80C00DE
:103780000020ADF80E000A20ADF810006946274869
:1037900003F0A2F90121254803F098FA05B000BD15
:1037A00010B50446214800884FF6C77108401F49EC
:1037B0000880084600882043088001211B4803F048
:1037C00085FA10BD10B5FFF77DFFFFF7B5FF30207C
:1037D000FFF7E6FF10BD70B505460126002422E084
:1037E000012E0FD10221114803F0EEFA50B100244E
:1037F00001E0601CC4B2C82CFBDB29460B4803F077
:10380000E1FA00267EB90121084803F0DDFA50B143
:10381000002401E0601CC4B2C82CFBDB034803F0A9
:10382000CEFAC0B270BDDBE7001402400050014088
:1038300070B505460C460020F949086005F07F0088
:10384000F849087008460078FFF7C5FFF54804708E
:103850000078FFF7C0FF0120F349C1F8980200206B
:1038600070BD10B504460020ED49086044F08000AA
:10387000EE49087008460078FFF7ADFF44F080007D
:10388000FFF7A9FFEA4908700120E749C1F898024B
:10389000E748007810BD10B5044644F08000E549C3
:1038A000087008460078FFF796FFE349087008465D
:1038B000007810BD70B504460D4600212A20FFF7A0
:1038C000B7FF0220FEF79AFE21462920FFF7B0FF3E
:1038D0000220FEF793FE29466420FFF7A9FF02208D
:1038E000FEF78CFE81212A20FFF7A2FF0A20FEF7B7
:1038F00085FE70BD70B5044621463220FFF798FF63
:103900000A20FEF77BFE80213420FFF791FF0A207A
:10391000FEF774FE3520FFF7A4FF05460021342092
:10392000FFF786FF0A20FEF769FE284670BD70B5D6
:1039300004460E46154621462820FFF779FF02204F
:10394000FEF75CFE0A212920FFF772FF0220FEF736
:1039500055FE01216420FFF76BFF0220FEF74EFEAB
:1039600044F080012520FFF763FF0220FEF746FEAA
:1039700031462620FFF75CFF0220FEF73FFE0321C1
:103980003420FFF755FF0220FEF738FE03216720A1
:10399000FFF74EFF0220FEF731FE81212A20FFF7BC
:1039A00047FF0620FEF72AFE45F080012720FFF79B
:1039B0003FFF0720FEF722FE70BD10B530216A20C0
:1039C000FFF736FF0A20FEF719FE0D212420FFF72E
:1039D0002FFF0A20FEF712FE0E212820FFF728FFF6
:1039E0000A20FEF70BFE8E213120FFF721FF0A206F
:1039F000FEF704FE01210B20FFF75CFF0020FFF71C
:103A000079FF102801D0012010BD0A20FEF7F6FD35
:103A100000210A20FFF74EFF0A20FFF76BFF08B1D5
:103A20000220F1E70A20FEF7E9FD00210B20FFF755
:103A300041FF0B20FFF75EFF08B10320E4E70A20F7
:103A4000FEF7DCFD24214120FFF734FF4120FFF782
:103A500051FF242801D00420D6E70A20FEF7CEFD2E
:103A6000C0214220FFF726FF4220FFF743FFC02876
:103A700001D00520C8E70A20FEF7C0FD00212A205A
:103A8000FFF7D6FE0A20FEF7B9FD00213420FFF72C
:103A9000CFFE0A20FEF7B2FD062203210E20FFF71B
:103AA00046FF6420FEF7AAFD0020ADE710B50446EE
:103AB000E006010E1C20FFF7BBFE10BD10B504464A
:103AC000E006010E1B20FFF7B3FE10BD2DE9F04309
:103AD00004460D46DDE9076700200021012041E092
:103AE000DFF858C13CF81080A0F1010CDFF84C91D0
:103AF00029F81C8009F1160C3CF81090A0F1010C7B
:103B0000DFF8388108F1160828F81C9008F1160C27
:103B10003CF81090A0F1010C08F1160828F81C9050
:103B200008F1160C3CF81090A0F1010C08F11608F1
:103B300028F81C9008F1160C3CF81090A0F1010C2C
:103B400008F1160828F81C9008F1160C3CF81090A3
:103B5000A0F1010C08F1160828F81C9000F1010CE6
:103B60000CF0FF000A28BBDBDFF8D0C0ACF8124035
:103B7000ACF82850ACF83E20ACF85430ACF86A6091
:103B8000ACF88070002008E0DFF8B0C03CF910C04D
:103B9000614400F1010C0CF0FF000A28F4DB4FF047
:103BA0000A0C91FBFCFC0FFA8CFCDFF89080A8F863
:103BB00014C0002100200AE0DFF880C00CF1160CD0
:103BC0003CF910C0614400F1010C0CF0FF000A2820
:103BD000F2DB4FF00A0C91FBFCFC0FFA8CF8DFF8DB
:103BE0005CC0ACF82A80002100200AE0DFF84CC05D
:103BF0000CF12C0C3CF910C0614400F1010C0CF0EC
:103C0000FF000A28F2DB4FF00A0C91FBFCFC0FFAD4
:103C10008CF8DFF828C0ACF840800021002018E0C4
:103C200098824242E401002000804242E6010020E6
:103C3000E5010020E8010020E7010020A80900209C
:103C4000DFF808C43CF910C0614400F1010C0CF02D
:103C5000FF000A28F4DB4FF00A0C91FBFCFC0FFA82
:103C60008CF8DFF8E8C3ACF1420CACF856800021C8
:103C700000200AE0DFF8D4C30CF1160C3CF910C0A8
:103C8000614400F1010C0CF0FF000A28F2DB4FF058
:103C90000A0C91FBFCFC0FFA8CF8DFF8B0C3ACF116
:103CA000420CACF86C80002100200AE0DFF89CC3D5
:103CB0000CF12C0C3CF910C0614400F1010C0CF02B
:103CC000FF000A28F2DB4FF00A0C91FBFCFC0FFA14
:103CD0008CF8DFF878C3ACF1420CACF88280BDE818
:103CE000F0832DE9F04387B004460D4616461F4683
:103CF000DDE90E980020D6490860BB20FFF76BFD78
:103D00003B20FFF7C8FD8DF80C003C20FFF7C3FDFA
:103D10008DF80D009DF80D009DF80C1040EA012073
:103D200000B2CC4908803D20FFF7B5FD8DF80E00AC
:103D30003E20FFF7B0FD8DF80F009DF80F009DF8B5
:103D40000E1040EA012000B2C34908803F20FFF76F
:103D5000A2FD8DF810004020FFF79DFD8DF81100A9
:103D60009DF811009DF8101040EA012000B2BB49F7
:103D700008804120FFF78FFD8DF812004220FFF7E9
:103D80008AFD8DF813009DF813009DF8121040EA8B
:103D9000012000B2B249C8804320FFF77CFD8DF8B6
:103DA00014004420FFF777FD8DF815009DF81500ED
:103DB000AC490989401A9DF8141040EA012000B26C
:103DC000A94908804520FFF766FD8DF816004620BA
:103DD000FFF761FD8DF817009DF81700A14949898B
:103DE000401A9DF8161040EA012000B29F49088051
:103DF0004720FFF750FD8DF818004820FFF74BFDD6
:103E00008DF819009DF8190096498989401A9DF886
:103E1000181040EA012000B2954908800120954918
:103E2000C1F898029248B0F900009049B1F9001029
:103E3000CDE900108C48B0F900308848B0F9002076
:103E40008548B0F900108348B0F90000FFF73EFE46
:103E50007E484238808A20807C484238408D2880C5
:103E60007A484238B0F84000308078484238B0F89C
:103E70005600383000B2388074484238B0F86C00D0
:103E8000801F00B2A9F8000070484238B0F88200E4
:103E9000C01C00B2A8F80000B8F8000076490880FD
:103EA00007B0BDE8F083F0B5DDE90545674E423E59
:103EB000B68A0680654E423E768D0E80634E423E47
:103EC000B6F840601680614E423EB6F856606B4FC1
:103ED0003F88F61B36B21E805C4E423EB6F86C60E0
:103EE000674F3F88F61B36B22680584E423EB6F8E2
:103EF0008260644F3F88F61B36B22E80F0BD2DE9FC
:103F0000F04786B00024002500260027A046A146E1
:103F1000A24600BF0FE06420FEF728FB0DF116005B
:103F200005A9031F04AACDE90010891F03A8FFF704
:103F3000D8FE601CC4B2322CEDDB002421E0C82086
:103F4000FEF714FB0DF1160005A9031F04AACDE925
:103F50000010891F03A8FFF7C4FEBDF90C008044C0
:103F6000BDF90E008144BDF910008244BDF9120074
:103F70000544BDF914000644BDF916000744601C51
:103F8000C4B2642CDBDB642095FBF0F000B23B494B
:103F90000880642096FBF0F000B239490880642064
:103FA00097FBF0F000B23749088006B0BDE8F08713
:103FB00010B5024600210AE0334C34F91140944216
:103FC00003D1314C34F9113003E04C1CE1B2082923
:103FD000F2DB00BFD41A20B210BD10B586B00024A9
:103FE00014222A4901A803F08AFD6420FEF706FB8B
:103FF000FFF7E8FB6420FEF701FB7520FFF731FCBB
:10400000702805D022A003F0B9FCFF2006B010BD37
:1040100000240DE001AA02EB4402517801AA12F833
:104020001400FFF705FC0120FEF7E8FA601CC4B29B
:104030000A2CEFDB0020E9E710B502E0C820FEF70C
:10404000DDFAFFF7CAFFFF28F8D010BDEA0900200B
:1040500098824242AE010020B0010020B20100204F
:104060008009002094090020B4010020B60100203E
:10407000B801002000804242BA010020A8010020BF
:10408000AA010020AC010020BC0100203CA20008D5
:104090006572726F722031410D0A00001CB501215A
:1040A000102000F0E8FB0220009000208DF80400B2
:1040B00003208DF8050002208DF80700694620488E
:1040C00000F038F91CBD08B507208DF8000000206D
:1040D0008DF801008DF8020001208DF8030068467C
:1040E00000F037F808BD1CB50121880300F01BFC67
:1040F0000121042000F023FD0220009000208DF813
:1041000004000C208DF8050001208DF8060068469B
:1041100003F098FB1CBD10B5FFF7C0FFFFF7D3FFFE
:10412000FFF7E1FF10BD10B5022003F0F1FB10B165
:104130000448FFF795FA022003F0F5FB10BD0000DC
:1041400000100240E408002032490143324A116065
:10415000704770B5002100230F22C4781CB32E4C89
:10416000246804F4E064C4F5E064C4F30721C1F1F9
:104170000404E3B20A4144789C40E1B284781440DC
:1041800021430C07210E254C05786155047804F075
:104190001F050124AC4005786D11AD0005F1E02547
:1041A000C5F8004109E0047804F01F050124AC4083
:1041B0001B4D0678761145F8264070BD194A0A4015
:1041C0000243154B1B1F1A60704739B1124A121D6A
:1041D00012680243104B1B1D1A6006E00E4A121DA6
:1041E000126882430C4B1B1D1A607047042808D1CB
:1041F0004FF0E021096941F004014FF0E022116124
:1042000007E04FF0E021096921F004014FF0E022BE
:10421000116170470000FA050CED00E000E400E0D9
:1042200080E100E080FFFF1F10B5044698488442FB
:1042300008D10121084600F087FB0021012000F091
:1042400083FB76E09348844208D10121022000F0EC
:104250007BFB0021022000F077FB6AE08E4884425D
:1042600008D10121042000F06FFB0021042000F0A0
:104270006BFB5EE08948844208D10121082000F0F0
:1042800063FB0021082000F05FFB52E08448844279
:1042900008D10121102000F057FB0021102000F070
:1042A00053FB46E07F48844208D10121202000F0E2
:1042B0004BFB0021202000F047FB3AE07A48844283
:1042C00008D10121402000F03FFB0021402000F0F8
:1042D0003BFB2EE07548844208D10121802000F08C
:1042E00033FB0021802000F02FFB22E07048844245
:1042F00008D10121801500F027FB0021A01500F056
:1043000023FB16E06B48844208D10121401500F0E0
:104310001BFB0021601500F017FB0AE06648844291
:1043200007D10121001500F00FFB0021201500F03E
:104330000BFB10BDF0B50A4600210023002400BF8E
:104340003DE0012505FA01F3156805EA03049C42E6
:1043500034D105684F000326BE40B543056015798A
:104360004E00B5400668354305601579012D02D031
:104370001579022D16D185684F000326BE40B5433E
:10438000856055794E00B54086683543856045683F
:1043900001268E40B5434560456896798E40B6B299
:1043A00035434560C5684F000326BE40B543C56030
:1043B000D5794E00B540C6683543C560491C102903
:1043C000BFD3F0BD4FF6FF71016000210171417153
:1043D0008171C171704708B54FF480320092009A24
:1043E0000A430092009AC261C161009AC261C26927
:1043F0000092C269009208BD0246002013690B407A
:104400000BB1012000E0002070470146086980B22E
:1044100070470246002053690B400BB1012000E0B9
:10442000002070470146486980B270470183704799
:10443000418370470AB1018300E0418370474161C5
:10444000704742694A4042617047F0B5002300243A
:104450004D07ED0E02FA05F3CE1000F1200555F8D8
:1044600026504E07F70E0F26BE40B543CF1000F181
:10447000200646F82750CE1000F1200555F82650AA
:1044800045EA0304CE1000F1200545F82640F0BDB2
:10449000000002400004024000080240000C0240FC
:1044A000001002400014024000180240001C0240AC
:1044B000002002400024024000280240F648006824
:1044C00040F00100F44908600020F3490831086019
:1044D000F1480068F1490840EF490860F048091DBB
:1044E0000860F048EC4984310860ED481038091D37
:1044F0000860E948006820F48020E749086000204F
:10450000E5490C310860E4498C31086070470121AD
:10451000E14A921C117011460870704710B50146AF
:104520000022002300204A11012A02D1DA4C23681C
:1045300008E0022A03D1D84C7034236802E0D64C3C
:104540007434236801F01F02012494401C400CB114
:10455000012000E0002010BD38B5002000900024AC
:10456000002500BF3120FFF7D9FF05460098401C09
:1045700000900098B0F5A04F01D0002DF2D031206E
:10458000FFF7CCFF08B1012400E00024204638BD2D
:1045900001460020C04A106820F0F80040EAC1003F
:1045A00010607047C049086070470021BA4A7032F5
:1045B00011701170012802D004280AD104E00121F1
:1045C000B54A7032117005E00521B34A703211709E
:1045D00000E000BF00BF7047B4490860704770B585
:1045E000049C41EA82150126C6EB530645EA0645BE
:1045F000054345EA0465A84E361D356070BDAA49DD
:104600000866704710B5830143EA016343EA027309
:10461000A14C8434236010BDA3498866704710B54F
:10462000830143EA016343EA02739B4C88342360AD
:1046300010BD9D49086770479B49C8647047024692
:104640000020954B0833186820F0EC6042EA010323
:104650001843914B083318607047024600208E4B78
:104660000833186820F0784042EA010318438A4B67
:1046700008331860704701460020874A08321068E6
:1046800020F003000843106070478348083000683A
:1046900000F00C007047014600207F4A0832106885
:1046A00020F0F000084310607047014600207A4A6D
:1046B0000832106820F4E05008431060704701464B
:1046C0000020754A0832106820F4604040EAC100BA
:1046D00010607047F0B5002100220024022500265A
:1046E00002236D4F08373F6807F00C0121B1042900
:1046F00005D0082937D105E06D4F076036E06D4FD2
:10470000076033E0644F3F1D3F68C7F38056624F38
:104710003F1D3F6807F03F036EB1664FB7FBF3F7ED
:10472000DFF874C10CF1040CDCF800C0CCF3881C79
:1047300007FB0CF40CE05E4FB7FBF3F7DFF858C152
:104740000CF1040CDCF800C0CCF3881C07FB0CF463
:10475000514F3F1D3F68C7F301477F1C7D00B4FBED
:10476000F5F7076002E0524F076000BF00BF4A4FF5
:1047700008373F6807F0F00109094F4F7A5C076876
:10478000D7404760444F08373F6807F4E051890A33
:10479000494F7A5C4768D74087603F4F08373F688A
:1047A00007F46041490B444F7A5C4768D740C760C3
:1047B000F0BD002100F44072B2F5407F0AD1364AC4
:1047C0000832116821F4F8113C4A02401143324A80
:1047D00008321160304A70321268C0F30B031A437A
:1047E0002D4B70331A607047304944390860704768
:1047F0002E494039086070473149086070470146CA
:104800000020254A8C32106820F01F004A1E1043F9
:10481000214A8C3210607047014600201E4A8C32BB
:10482000106820F4F8504A1E40EA02201A4A8C32DE
:104830001060704701460020174A8C32106820F43F
:10484000401008431060704701460020124A8C3225
:10485000106820F4400008431060704701460020B3
:104860000D4A8C32106820F44030084310607047C5
:1048700014490860704739B1074A30321268024360
:10488000054B30331A6006E0034A30321268824327
:10489000014B30331A60704700380240FFFFF6EAE0
:1048A000103000240030002000004742800E4742B4
:1048B0000024F400001BB700E9010020FFFCFF0FFB
:1048C0005C014742E011474229B1934A1268024312
:1048D000914B1A6004E0904A126882438E4B1A6032
:1048E000704739B18C4A121D126802438A4B1B1D56
:1048F0001A6006E0884A121D12688243864B1B1D0F
:104900001A60704739B1844A0C3212680243824BF4
:104910000C331A6006E0804A0C32126882437E4BE8
:104920000C331A60704739B17B4A10321268024367
:10493000794B10331A6006E0774A103212688243CE
:10494000754B10331A60704739B1734A243A1268B4
:104950000243714B243B1A6006E06F4A243A126806
:1049600082436D4B243B1A60704739B16A4A203A42
:1049700012680243684B203B1A6006E0664A203A00
:1049800012688243644B203B1A60704739B1624A17
:104990001C3A12680243604B1C3B1A6006E05E4AF8
:1049A0001C3A126882435C4B1C3B1A60704739B159
:1049B000594A143A12680243574B143B1A6006E0F6
:1049C000554A143A12688243534B143B1A6070479D
:1049D00039B1514A103A126802434F4B103B1A60EA
:1049E00006E04D4A103A126882434B4B103B1A6066
:1049F000704739B1484A1C3212680243464B1C3397
:104A00001A6006E0444A1C3212688243424B1C334F
:104A10001A60704739B1404A2032126802433E4B57
:104A200020331A6006E03C4A2032126882433A4B37
:104A300020331A60704739B1374A24321268024372
:104A4000354B24331A6006E0334A2432126882431D
:104A5000314B24331A60704739B12F4A2C32126817
:104A600002432D4B2C331A6006E02B4A2C3212687D
:104A70008243294B2C331A60704739B1264A3032B1
:104A800012680243244B30331A6006E0224A303267
:104A900012688243204B30331A607047012808D1D6
:104AA0001D493C31096841F008011B4A3C32116044
:104AB00007E019493C31096821F00801164A3C32E7
:104AC0001160704739B1144A273A12780243124BE9
:104AD000273B1A7006E0104A273A127882430E4BA1
:104AE000273B1A7070470C484030006840F08070D7
:104AF000094940310860704701460020064A283ABB
:104B000012680A400AB1012000E000207047024903
:104B100026390870704700003438024010B5012172
:104B20008803FFF755FF00214FF48040FFF750FF47
:104B300010BD1C49086070471B490862704730B5BA
:104B400000228B071C0F0F2303FA04F2154B0833C6
:104B50008C1053F824309343124C08348D1044F8D1
:104B6000253023468C1053F824308C07240F00FA8C
:104B700004F423430B4C08348D1044F8253030BD29
:104B80000949DC3108607047084908607047002017
:104B900004492031096801F4807109B1012000E065
:104BA00000207047003801400000274200042742DF
:104BB00010B50446FA48844208D101211020FFF7BD
:104BC00007FF00211020FFF703FF57E0F54884425C
:104BD00009D101214804FFF7EAFE00214FF400301B
:104BE000FFF7E5FE4AE0F048844209D1012188043C
:104BF000FFF7DDFE00214FF48020FFF7D8FE3DE0F7
:104C0000EA48844209D10121C804FFF7D0FE0021FF
:104C10004FF40020FFF7CBFE30E0E548844209D195
:104C200001210805FFF7C3FE00214FF48010FFF7B4
:104C3000BEFE23E0DF48844208D101212020FFF797
:104C4000C7FE00212020FFF7C3FE17E0DA488442A8
:104C500009D101218807FFF7AAFE00214FF080400B
:104C6000FFF7A5FE0AE0D548844207D1012140059F
:104C7000FFF79DFE00216005FFF799FE10BD2DE9AD
:104C8000FF4705460E460024A14600BFA046B08956
:104C900000B100BF2C8A24F44054F08804432C82D5
:104CA000AC8941F20C608443B08831890843718932
:104CB00008430443AC81AC8A24F44074B0890443B3
:104CC000AC826846FFF706FDB548854202D0B94878
:104CD000854202D1DDF80C9001E0DDF80890A8894A
:104CE00000F4004040B109EBC90000EB0910316845
:104CF0004900B0FBF1F707E009EBC90000EB091030
:104D000031688900B0FBF1F76420B7FBF0F00401D3
:104D10002009642101FB1078A88900F4004040B10B
:104D2000322000EBC800B0FBF1F000F007000443B4
:104D300008E0322000EB08106421B0FBF1F000F035
:104D40000F0004432C81BDE8FF874FF4165101602A
:104D500000218180C18001810C214181002181815C
:104D6000704710B502460020108A20F470600B884E
:104D70004C8823438C882343CC88234318431082D8
:104D800010BD0021018041808180C180704721B128
:104D9000828942F40052828104E082894DF6FF73D9
:104DA0001A4082817047028B02F47F420283028B99
:104DB0000A430283704721B1828942F40042828112
:104DC00003E08289C2F30E028281704721B1828A98
:104DD00042F40062828204E0828A4FF2FF731A403A
:104DE00082827047C1F3080282807047014688883A
:104DF000C0F308007047028A4FF6F0731A4002822F
:104E0000028A0A430282704721B1828942F002027B
:104E1000828104E082894FF6FD731A4082817047D7
:104E200082894FF2FF731A40828182890A4382810C
:104E30007047028A4FF6DF731A400282028A0A43E1
:104E40000282704721B1028A42F48042028204E069
:104E5000028A4BF6FF731A4002827047818941F043
:104E600001018181704721B1828A42F00802828269
:104E700004E0828A4FF6F7731A4082827047028BF1
:104E8000D2B20283028B42EA01220283704721B12F
:104E9000828A42F02002828204E0828A4FF6DF7327
:104EA0001A408282704721B1828A42F010028282C7
:104EB00004E0828A4FF6EF731A4082827047828A3A
:104EC0004FF6FB731A408282828A0A4382827047BD
:104ED00021B1828A42F00202828204E0828A4FF685
:104EE000FD731A40828270471AB1838A0B43838212
:104EF00002E0838A8B4383827047F0B50346002427
:104F000000260025002040F66A17B94200D100BFF4
:104F10001846C1F3421401F01F06012707FA06F5EF
:104F2000012C01D10C3004E0022C01D1103000E042
:104F300014301AB107682F43076002E00768AF43D7
:104F40000760F0BD02460020B1F5007F00D100BF30
:104F500013880B400BB1012000E00020704701F4E2
:104F60000072B2F5007F00D100BFCA4302807047D3
:104F700070B50246002400230025002040F66A1682
:104F8000B14200D100BFC1F3421501F01F03012659
:104F900006FA03F3012D13D19689334017E0000080
:104FA000001001400044004000480040004C004018
:104FB000005000400014014000780040007C004098
:104FC000022D02D1168A334001E0968A33400C123A
:104FD000012606FA04F41688344013B10CB10120FE
:104FE00000E0002070BD10B50022002340F66A14D6
:104FF000A14200D100BF0A1201249440A3B2DC43B5
:10500000048010BD10B50446FE48844209D1012138
:105010004806FFF7CCFC00214FF00070FFF7C7FCFB
:1050200008E001218806FFF7C2FC00214FF08060F4
:10503000FFF7BDFC10BD30B5024600200023146808
:1050400024F002041460146844F00104146000E0C9
:105050005B1C546804F001041CB94FF6FF74A342B2
:10506000F6D1546804F001040CB900206CE08C798E
:10507000012C04D1146844F08004146003E0146827
:1050800024F080041460CC79012C04D1146844F01D
:105090004004146003E0146824F0400414600C7AA7
:1050A000012C04D1146844F02004146003E0146857
:1050B00024F0200414604C7A012C04D1146844F0CC
:1050C0001004146003E0146824F0100414608C7A57
:1050D000012C04D1146844F00804146003E014683F
:1050E00024F008041460CC7A012C04D1146844F034
:1050F0000404146003E0146824F0040414608C7841
:10510000A407CD7844EA05640D7944EA05444D7955
:1051100044EA05540D886D1E2C43D461146824F0B4
:1051200001041460002300E05B1C546804F00104D7
:105130001CB14FF6FF74A342F6D1546804F0010489
:105140000CB1002000E0012030BD10B50021837AB1
:10515000012202FA03F1AC4A126842F00102AA4BA2
:105160001A60A94A1C3212688A43A74B1C331A6082
:10517000027BCAB9A44A0C3212688A43A24B0C3390
:105180001A604288C38842EA03439F4A4032847AC5
:1051900042F834300288838842EA03439A4A403214
:1051A000847A02EBC4025360027B012A19D1964A29
:1051B0000C3212680A43944B0C331A6042880388FD
:1051C00042EA0343904A4032847A42F83430C2883B
:1051D000838842EA03438C4A4032847A02EBC40259
:1051E0005360C27A3AB9884A121D12688A43864BC4
:1051F0001B1D1A6006E0844A121D12680A43824B86
:105200001B1D1A60028932B97F4A143212688A4320
:105210007D4B14331A600289012A06D17A4A14326E
:1052200012680A43784B14331A60427B012A06D174
:10523000754A1C3212680A43734B1C331A60724A57
:10524000126822F00102704B1A6010BD00218171BA
:10525000C171017241728172C1728170C17003218A
:10526000017102214171012101807047664909687D
:1052700041F00101644A11601146096843F60E725B
:105280009143614A11601146096841EA00211160A9
:105290001146096821F001011160704721B10268CF
:1052A00042F48032026003E0026822F4803202603D
:1052B0007047E1B1026842F0800202604FF4C272AE
:1052C000125842F480734FF4C27213504FF4CA72F2
:1052D000125842F480734FF4CA7213504FF4D272D2
:1052E000125842F480734FF4D27213501BE00268DC
:1052F00022F0800202604FF4C272125822F48073CE
:105300004FF4C27213504FF4CA72125822F48073D1
:105310004FF4CA7213504FF4D272125822F48073B1
:105320004FF4D2721350704710B5024600209368B4
:1053300003F08063B3F1806F00D110E0936803F055
:105340000063B3F1006F01D1012008E0936803F01E
:105350008053B3F1805F01D1022000E004200428D3
:1053600079D002F5C07303EB00131B6803F001044E
:1053700002F5C07303EB00131C600B7A7BB94B7A08
:105380000C8843EA445302F5C07404EB001424680B
:10539000234302F5C07404EB0014236010E00B7A81
:1053A0004C6843EAC4034C7A234302F5C07404EB0F
:1053B00000142468234302F5C07404EB0014236036
:1053C0008B7A03F00F038B7202F5C07303EB0013AB
:1053D0005B6823F00F0402F5C07303EB00135C60FD
:1053E00002F5C07303EB00135B688C7A234302F56C
:1053F000C07404EB001463608B7B1C064B7B44EA97
:10540000034403E000640040006600400B7B44EA74
:105410000323CC7A234302F5C07404EB0014A36089
:105420008B7C1C064B7C44EA03440B7C44EA03233C
:10543000CC7B234302F5C07404EB0014E36002F557
:10544000C07303EB00131B6843F0010402F5C07343
:1054500003EB00131C6010BD10B50246002321B100
:10546000012907D002290FD109E09068F94C00EA20
:1054700004030BE09068F84C00EA040306E090682F
:10548000F64C00EA040301E0002300BF00BFF44C27
:10549000181BA34216D007DC83B16FF0806018445C
:1054A00070B1022818D111E0B0F5007F10D0ED4C9A
:1054B000204448B1B0F5003F0ED10BE002230DE0CF
:1054C00000230BE0002309E0002307E0012305E0AF
:1054D000012303E0012301E0002300BF00BFD8B295
:1054E00010BD21B1012907D002290FD109E082683E
:1054F00042F0800282600AE0826842F400428260E8
:1055000005E0826842F40002826000E000BF00BF54
:10551000704710B500F5D87303EB01131B6803F057
:1055200004031372137A53B900F5D87303EB011314
:105530001B6840F2FF7404EA5353136009E000F55E
:10554000D87303EB01131B686FF0604404EAD303C4
:10555000536000F5D87303EB01131B6803F00203DB
:10556000537200F5D87303EB01135B6803F00F036C
:10557000937200F5D87303EB01135B681B0AD374B5
:1055800000F5D87303EB01139B68D37200F5D87351
:1055900003EB01139B681C0A147300F5D87303EB2B
:1055A00001139B681C0C547300F5D87303EB0113B3
:1055B0009B681B0E937300F5D87303EB0113DB6834
:1055C000D37300F5D87303EB0113DB681C0A147462
:1055D00000F5D87303EB0113DB681C0C547400F561
:1055E000D87303EB0113DB681B0E937421B9C368F6
:1055F00043F02003C36003E0036943F02003036129
:1056000010BD21B9C26842F02002C26003E0026905
:1056100042F02002026170470246002019B9D368A7
:1056200003F0030006E0012903D1136903F003002E
:1056300000E00020704710B502460B4600204FF6F0
:10564000FF71BBB9146824F0020444F00104146033
:1056500000E0491E546804F00304012C01D0002925
:10566000F7D1546804F00304012C01D0002032E08B
:10567000012030E0012B13D1146824F003041460DE
:1056800000E0491E546804F003040CB10029F8D16D
:10569000546804F003040CB100201CE001201AE05F
:1056A000022B17D1146824F0010444F002041460A2
:1056B00000E0491E546804F00304022C01D00029C4
:1056C000F7D1546804F00304022C01D0002002E05A
:1056D000012000E0002010BD014600200A6822F0F1
:1056E000010242F002020A604A6802F00302022A42
:1056F00000D10120704701464FF6FF7200200B6871
:1057000023F002030B6000E0521E4B6803F002031B
:10571000022B01D1002AF7D14B6803F00203022BC0
:1057200000D001207047014600208A6902F0700015
:105730007047014600208A69100E7047014600201C
:105740008A69C2F3074070471AB143690B4343614A
:1057500002E043698B434361704710B50246002065
:1057600001F4700343B19369C1F3130423400BB1F7
:1057700001202DE000202BE001F0807343B153683D
:10578000C1F3130423400BB1012021E000201FE0EE
:1057900001F0006343B19368C1F3130423400BB1DC
:1057A000012015E0002013E001F0007343B1D3683D
:1057B000C1F3130423400BB1012009E0002007E0EE
:1057C0001369C1F3130423400BB1012000E0002052
:1057D00010BD0022244B994202D10023836111E0C5
:1057E000C1F3130201F000730BB1C2600AE001F0D3
:1057F00080630BB1026105E001F000630BB18260D0
:1058000000E0426070470246002002EA01030BB14B
:10581000012000E00020704770B504460D460026C8
:1058200060692840002872D0B5F5807F69D01DDC02
:10583000082D42D006DC012D2DD0022D31D0042DB3
:105840007FD134E0102D3ED0202D42D0402D78D194
:1058500045E00000030000040003000800000310FE
:10586000000100080001FFF77000F030B5F5004FAF
:1058700061D009DCB5F5007F4AD0B5F5806F4DD019
:10588000B5F5006F5DD150E0B5F5803F2DD0B5F591
:10589000003F56D12FE0A0685549FFF7B4FF0646F8
:1058A00051E0E0680321FFF7AEFF06464BE0E068F9
:1058B0000821FFF7A8FF064645E0E0681021FFF742
:1058C000A2FF06463FE020690321FFF79CFF064642
:1058D00039E020690821FFF796FF064633E020698A
:1058E0001021FFF790FF06462DE060680821FFF7C2
:1058F0008AFF064627E060681021FFF784FF06460E
:1059000021E0A0690121FFF77EFF06461BE01BE0B6
:10591000A0690221FFF777FF064614E0A069042181
:10592000FFF771FF06460EE00BE0A0697021FFF75C
:105930006AFF064607E060680421FFF764FF064639
:1059400001E0002600BF00E00026304670BDB1F542
:10595000007F3AD00FDC202928D006DC01291CD09A
:1059600004291DD0082940D11DE0402921D0B1F5DE
:10597000807F3AD126E0B1F5004F31D006DCB1F599
:10598000806F25D0B1F5006F2FD124E0B1F5803FB5
:1059900012D0B1F5003F28D111E0154A826025E010
:1059A0000822C26022E01022C2601FE008220261C9
:1059B0001CE01022026119E00822426016E0102269
:1059C000426013E00422426010E0042242600DE0D5
:1059D000042242600AE0002282610422426005E063
:1059E000002282610422426000E000BF00BF7047D5
:1059F00001010100016821F0010101600021016045
:105A000041608160C160016121214161DB498842BF
:105A100004D13D21D94A103A91608CE0D749183120
:105A2000884205D14FF47461D44A103A916082E003
:105A3000D2493031884205D14FF47411CF4A103A1F
:105A4000916078E0CD494831884205D14FF07461CA
:105A5000CA4A103A91606EE0C8496031884204D168
:105A6000C749C64A103AD16065E0C44978318842D6
:105A700004D1C449C14A103AD1605CE0BF499031B9
:105A8000884204D1C049BD4A103AD16053E0BB49B5
:105A9000A831884205D14FF03D51B84A103AD16043
:105AA00049E0BA49884204D13D21B84A083A116018
:105AB00041E0B6491831884205D14FF47461B34AC8
:105AC000083A116037E0B1493031884205D14FF4CE
:105AD0007411AE4A083A11602DE0AC494831884251
