:020000040800F2
:100000008810002029820008B97E0008BB7E000805
:10001000BF7E0008C37E0008C77E00080000000005
:10002000000000000000000000000000CB7E00087F
:10003000CD7E000800000000CF7E0008D17E0008C1
:10004000438200084382000843820008438200087C
:10005000438200084382000843820008D749000811
:10006000438200084382000843820008438200085C
:100070000B210008438200084382000843820008E5
:10008000438200084382000843820008410D0008B3
:100090001D0D0008438200084382000843820008C7
:1000A000438200084382000843820008438200081C
:1000B00033270008592700086D27000843820008ED
:1000C00043820008438200084382000843820008FC
:1000D0004382000843820008053300084382000879
:1000E000AD340008438200084382000843820008C0
:1000F00043820008438200084382000843820008CC
:1001000043820008438200084382000843820008BB
:1001100043820008438200084382000843820008AB
:10012000438200084382000843820008438200089B
:10013000438200084382000843820008210F000820
:10014000FF0E000843820008438200084382000833
:10015000C50900084382000843820008A925000859
:10016000438200084382000843820008438200085B
:10017000438200084382000843820008438200084B
:10018000438200084382000843820008438200083B
:10019000438200084382000843820008438200082B
:1001A00000000000000000004382000800F002F898
:1001B00000F06CF80AA090E8000C82448344AAF195
:1001C0000107DA4501D100F061F8AFF2090EBAE893
:1001D0000F0013F0010F18BFFB1A43F0010318477B
:1001E0006CAC00008CAC00000A444FF0000C10F81E
:1001F000013B13F0070408BF10F8014B1D1108BFA5
:1002000010F8015B641E05D010F8016B641E01F844
:10021000016BF9D113F0080F1EBF10F8014BAD1C94
:100220000C1B09D16D1E58BF01F801CBFAD505E0B2
:1002300014F8016B01F8016B6D1EF9D59142D6D30C
:10024000704700000023002400250026103A28BF34
:1002500078C1FBD8520728BF30C148BF0B60704738
:1002600066290AF0A484642908F0408000207047C1
:100270001FB50AF092FC08F09BFB0400002000214F
:1002800009F042FEE0601FBD10B510BD08F0ACFCE7
:100290001146FFF7EDFF00F009F808F0CAFC03B4BF
:1002A000FFF7F2FF03BC02F0F7F8000001F09EFF39
:1002B00000F01EF800F037F801F084FA0120094937
:1002C000087000F063FB18B900200649487002E08E
:1002D00001200449487004E002F0D6FD142002F029
:1002E000B5FCF9E78C010020CF48007870477047D3
:1002F00040F63770CD4948809FEDCD0A084680ED25
:10030000020A9FEDCC0A80ED030A41F6DC10CA49CF
:100310004880B2EE020A084680ED020A9FEDC70A45
:1003200080ED030A704710B5002400BF12E004EB13
:100330008401C34A02EB01109FEDC21ADFEDC20A2D
:10034000B2EE020A4FF4FA7341F65832042101F07A
:1003500036FD641C022CEADB9FEDBA1ADFEDBB0A06
:10036000B7EE000A4FF4FA7341F288320421B8481C
:1003700001F025FD10BD10B5B64890ED080BAB4857
:1003800080ED060BB34890ED050AA84880ED040AFD
:10039000B048B0F84C0000B2A4498880AE48C07A9A
:1003A00001280BD1AB4890ED280A10EE101A084630
:1003B0000AF082FB9D4AC2E908014DE0A748007897
:1003C00028BB9A4890ED081BB0EE410AF0EE610A96
:1003D0009FEDA31B53EC112B51EC100B09F0E8FD22
:1003E000924AC2E90801104690ED081BB0EE410A9E
:1003F000F0EE610A9FED9C1B53EC112B51EC100B9E
:100400000AF062F928D801209449087024E087484E
:1004100090ED081BB0EE410AF0EE610A9FED901BD3
:1004200053EC112B51EC100B0AF05CFA7F4AC2E935
:100430000801104690ED081BB0EE410AF0EE610A8B
:100440009FED8B1B53EC112B51EC100B0AF002F8B3
:1004500002D80020814908707448016B884710BD9C
:1004600010B57C4890ED030A734880ED040A794882
:1004700090ED290A10EE101A08460AF01DFB6E4A8C
:10048000C2E908017348B0F8440000B21146888000
:100490000846016B884710BD10B5634800780528F1
:1004A0003DD2DFE800F0031D25303B0072480068B4
:1004B000401C7149086000F0E9F8022803D10320CC
:1004C000594908700BE06C48006841F29411884269
:1004D00005DD0220544908700020674908601FE0CC
:1004E00000F0D4F8022802D103204F49087017E029
:1004F00000206149086000F0C9F8022802D10320F9
:10050000494908700CE000205B49086000F0BEF823
:10051000022802D000204449087001E000E000BF3A
:1005200000BF10BD08B55548007800287BD1FFF703
:10053000B3FF3D48007803280ED100200346024651
:10054000014600904E4800F034FC00231A4619463C
:100550004B4800F000FC66E001F0E0F849480089F3
:1005600001280CD14848B0F9000041F2883341F627
:10057000380251420090002001F0DDFA53E0364885
:10058000C07A012843D1334890ED270ABDEEC00A56
:1005900010EE100A01B22A48A0F8AC102D4890EDD8
:1005A000270AB1EE400ABDEEC00A10EE100A01B2F1
:1005B0002348A0F8FC10A03001F064FB2048F03084
:1005C00001F060FB1E4890ED480ABDEEC00A10EE37
:1005D000100A00B200901A4890ED340ABDEEC00A2D
:1005E00010EE100A03B2164890ED200ABDEEC00AC4
:1005F00010EE100A02B2124890ED0C0ABDEEC00ACD
:1006000010EE100A01B21E4800F0D3FB0BE01E48AA
:10061000B0F9000041F2883341F6380251420090AF
:10062000012001F088FA08BD7000002000000020C1
:10063000333303410000344238000020CDCC8C40DD
:1006400038020020000000006666663F0AD7233C9F
:1006500018040020D00800208C0100207C0000201D
:1006600000000040E17A943F0000000000407F401D
:100670000000000000407FC07400002071000020D6
:10068000006400405407002056010020D74800783D
:10069000704790ED280AB0F93A1000EE901AF8EE83
:1006A000E00A9FEDD31A00EEC10A80ED280A90ED12
:1006B000290AB0F93C1000EE901AF8EEE00AB7EE05
:1006C000081A00EEC10A80ED290A4221095A0129BF
:1006D00006D002291AD004292ED0082958D141E089
:1006E0009FEDC40A80ED270A90ED260ADFEDC20ACD
:1006F000B4EEE00AF1EE10FA07D890ED260AF2EE19
:10070000040A30EE200A80ED260A4AE09FEDB90A7D
:1007100080ED270A90ED260ADFEDB80AB4EEE00A74
:10072000F1EE10FA07DB90ED260AF2EE040A30EE45
:10073000600A80ED260A34E09FEDAE0A80ED260ABD
:1007400090ED270ADFEDAE0AB4EEE00AF1EE10FA02
:1007500007DB90ED270AF2EE040A30EE600A80ED26
:10076000270A1EE09FEDA30A80ED260A90ED270AD6
:10077000DFEDA40AB4EEE00AF1EE10FA07D890ED2E
:10078000270AF2EE040A30EE200A80ED270A08E07C
:100790009FED980A80ED260A9FED960A80ED270AC4
:1007A00000BF00BF704710B50446FFF79DFD02284B
:1007B00051D1B4F93000A0F5806000EB800000EE6C
:1007C000100AB8EEC00A84ED260AB4F93200A0F58A
:1007D0008060C00000EE100AB8EEC00A84ED270A5F
:1007E00094ED280AB4F93400A0F5806000EE900A78
:1007F000F8EEE00A9FED841A00EEC10A84ED280AA3
:1008000094ED290AB4F93600A0F5806000EE900A54
:10081000F8EEE00A9FED7D1A00EE810A84ED290AC8
:1008200094ED290ADFED7A0AB4EEE00AF1EE10FA4F
:1008300004D29FED770A84ED290A0CE094ED290A91
:10084000DFED740AB4EEE00AF1EE10FA03DD9FED7D
:10085000710A84ED290A10BD3921095C012902D1F0
:10086000624A11700CE03921095C032902D15F4A08
:10087000117005E03921095C022901D15B4A117030
:10088000704710B5044600206349C861634800788A
:100890006249497840EA0120C0F30A0020865F4897
:1008A0004078C0105D49897840EA4110C0F30A01E0
:1008B00061865A48807880115849C97840EA810099
:1008C0005649097940EA8120C0F30A01A1865348BC
:1008D000007940105149497940EAC110C0F30A013A
:1008E000E1864E48407900118108382001554B4877
:1008F0004079C0F3011139200155484880794749B2
:10090000C97940EA012001B261874448007A43492D
:10091000497A40EA012001B2A1874048807A3F49E4
:10092000C97A40EA012001B2E1873C48017B84F8A2
:100930004010417B84F84110807B3849C97B40EAF4
:100940000121422001532046FFF786FFFFF79EFE5C
:10095000012804D0022812D0032815D107E0204630
:10096000FFF721FF2E488168012088470CE02046D0
:10097000FFF78FFE2A4881680120884704E0284855
:1009800081680020884700BF00BF10BD2548B0F92E
:100990003000B0F5806F11D12248B0F93200B0F5C7
:1009A000806F0BD11F48B0F93400B0F5806F05D1CE
:1009B0001C48B0F93600B0F5806F01D000207047B8
:1009C0000120FCE710B51849184805F0A4FD0128DE
:1009D0000AD11549154805F0BAFD1349134805F029
:1009E00011FE1048FFF74DFF10BD00007D000020F4
:1009F0003108AC3D0000000000001644000016C4A1
:100A00000000C8C30000C8430AD7A33BCDCC4C3E6E
:100A10000080B1C40080A244B40700206807002011
:100A200074010020D0080020008800208864024063
:100A30000146F748B0F90000F64A1080F4480180FA
:100A4000B0F90000B2F90020801AF34A904206DAA9
:100A5000F2480088401C00B2F04A108010E0EC48D8
:100A6000B0F90000EB4AB2F90020801A41F6583282
:100A7000904205DDE9480088401E00B2E74A108038
:100A8000E648B0F90000C0EB4030E14AB2F900207E
:100A9000104470470146E248B0F90000E14A108076
:100AA000DF480180B0F90000B2F90020801ADA4A6C
:100AB000904206DADC480088401C00B2DA4A108016
:100AC00010E0D748B0F90000D64AB2F90020801AE9
:100AD00041F65832904205DDD3480088401E00B2EE
:100AE000D14A1080D048B0F90000C0EB4030CC4A69
:100AF000B2F90020104470470146CC48B0F900001C
:100B0000CB4A1080C9480180B0F90000B2F900203A
:100B1000801AC84A904206DAC7480088401C00B2D2
:100B2000C54A108010E0C148B0F90000C04AB2F9CF
:100B30000020801A41F28832904205DDBE480088CC
:100B4000401E00B2BC4A1080BB48B0F90000C0EBA8
:100B50004030B64AB2F900201044704710B586B054
:100B6000044601AA0021B54805F02BF90198A0F22E
:100B70000120072873D2DFE800F004111F2D3B731A
:100B8000AA000020AE4908609DF812109DF81100DF
:100B900001EB002000B2AB49C881BCE00020A849AD
:100BA00048609DF812109DF8110001EB002001B281
:100BB000A448A0F85E10AEE00020A14988609DF82E
:100BC00012109DF8110001EB002001B29D48A0F821
:100BD000AE10A0E000209A49C8609DF812109DF860
:100BE000110001EB002001B29648A0F8FE1092E03F
:100BF0000020934908619DF810009DF80F1040EA0D
:100C00000120914908609148007808BB9048B0F9EC
:100C100002000968081A41F28831884205DD8A48D5
:100C20000068A0F50050E06418E08948B0F90200BF
:100C300085490968081A7F49884205DA82480068B0
:100C400000F50050E06409E07F480168E16405E0D8
:100C50007D48008800B2FFF71DFFE0645BE059E0CB
:100C60000020774948619DF810009DF80F1040EA78
:100C70000120784908607548007808BB7648B0F9CB
:100C800002000968081A41F28831884205DD71487E
:100C90000068A0F50050606418E06F48B0F90200E9
:100CA0006C490968081A6349884205DA694800688E
:100CB00000F50050606409E066480068606405E083
:100CC0006448008800B2FFF7B3FE606423E00020B0
:100CD0005B4988619DF812109DF8110041EA0020DF
:100CE00001B2A4F878109DF812109DF8110041EAA5
:100CF000002001B25348A0F8EE119DF810109DF8A5
:100D00000F2041EA022108B2FFF7F6FE4D49C1F873
:100D1000F00100E000BF00BF06B010BD10B5022119
:100D2000464805F0D1F950B10221444805F067FA70
:100D30004A49424805F0A5F94948FFF70FFF10BDA1
:100D400010B501213D4805F0BFF918B101213B481C
:100D500005F055FA10BDF0B585B007460C461546AE
:100D60001E4640F2FF10009000208DF808008DF81C
:100D7000090008208DF80A00200A8DF80B00E1B266
:100D80008DF80C10290A8DF80D10E9B28DF80E10AF
:100D9000310A8DF80F10F1B28DF8101000218DF886
:100DA00011108DF812106946384604F015FF05B091
:100DB000F0BD2DE9F04186B080460C4615461E4632
:100DC0000C9F4FF40070019000208DF80C008DF8FE
:100DD0000D0008208DF80E00200A8DF80F008DF808
:100DE0001040290A8DF811108DF81250310A8DF833
:100DF00013108DF81460390A8DF815108DF81670DF
:100E000001A9404604F0E8FE06B0BDE8F08100000C
:100E10008600002088000020A8E4FFFF800000205A
:100E20008C0000208E000020820000208A0000201C
:100E30009000002078ECFFFF840000200064004058
:100E4000B407002038020020940000207000002029
:100E50000000002098000020380000200800003228
:100E6000D008002000B585B06A460021524804F041
:100E7000A8FF0098A0F2012030B1012811D002286B
:100E80001DD0032837D128E000204C4908629DF886
:100E90000E109DF80D0001EB002000B24849C881FA
:100EA0002AE00020454948629DF80E109DF80D008B
:100EB00001EB002001B24248A0F85E101CE00020C7
:100EC0003E4988629DF80E109DF80D0001EB002050
:100ED00001B23B48A0F8AE100EE000203749C862CE
:100EE0009DF80E109DF80D0001EB002001B2344872
:100EF000A0F8FE1000E000BF00BF05B000BD10B5B7
:100F000002212D4805F0E0F848B102212A4805F0F9
:100F100076F92C49284805F0B4F8FFF7A3FF10BD77
:100F200010B50121244805F0CFF818B1012122485D
:100F300005F065F910BD2DE9F04385B004460D4676
:100F400016461F464FF000094FF400700090002035
:100F50008DF808008DF8090008208DF80A00200A95
:100F60008DF80B00E1B28DF80C10290A8DF80D10E8
:100F7000E9B28DF80E10310A8DF80F10F1B28DF82C
:100F80001010390A8DF81110F9B28DF81210694657
:100F9000094804F021FE804600BF4146064804F09F
:100FA000B3FE30B9484609F1010940F6FF718842A5
:100FB000F3DB05B0BDE8F08300680040B407002013
:100FC000B80400200800003203468B4201DA0846CC
:100FD0007047934201DD1046FAE71846F8E7F0B58E
:100FE0000446002620886188401A05B23A480088E5
:100FF000281A00B200EE100A3848B0F900000221A9
:1010000001FB105034490988084400B200EE900AF0
:1010100094ED021AF8EEC01A61EE211A94ED032A3B
:1010200001EE105AF8EEC12AB0EE611A02EE221A51
:10103000D4ED041AB8EEE02A01EE821ABDEEC11A10
:1010400011EE100A07B2F01906B2B4F904205142A9
:101050003046FFF7B9FF00B2A0822048B0F9000087
:101060001D4908801D480580F0BDF0B50446208864
:101070006188401A05B2701906B219480088281A0A
:1010800000B200EE100A1648058094ED021A00EE38
:10109000905AF8EEE00A21EE201AD4ED031A00EE81
:1010A000905AB8EEE02AF0EE410A42EE210A94EDA1
:1010B000041AF8EEC01A41EE810AFDEEE00A10EEC5
:1010C000900A07B2B4F9042051423846FFF77CFF7A
:1010D00000B2A082F0BD00002C0100202E010020F3
:1010E0003001002010B52DED048B044600BF00BF79
:1010F00000BF2088401C00B22080B4F90000B0F589
:10110000487F02DD4FF448702080B4F90410B4F930
:101110000220891A4FF4B47201FB02F0C11700EBF0
:10112000D1414913494200EE101AB8EEC00AD4ED7D
:10113000020A20EE208A94ED040A30EE080AB1EE8D
:10114000400AD4ED030A60EE208AB4F9002051422F
:10115000BDEEE80A10EE100AFFF736FF00EE100AA7
:10116000B8EEC09AB0EE490ABDEC048B10BD10B5C4
:101170002DED0C8B04469FEDFE0AB0EE408A9FEDEC
:10118000FC0AF0EE408A9FEDFA0AB0EE409A41F276
:1011900094102080F7480089A8BB94ED020A10EE55
:1011A000101A084609F088FC41EC1B0B94ED062B45
:1011B000B0EE420AF0EE620A94ED082BB0EE421A4D
:1011C000F0EE621A53EC102B51EC110B08F0F0FE0C
:1011D00041EC1D0B08F0AEFE41EC1C0B53EC1B2B3D
:1011E00009F074F941EC1A0B08F0B0FE08EE100A91
:1011F00094ED040A38EE400AD4ED030A20EE200AEA
:10120000F0EE408A2EE0FFE79FEDDB0B84ED060B4E
:1012100084ED080BD74890ED000A10EE101A08462E
:1012200009F04AFC41EC1C0B9FEDD50B53EC102B45
:1012300009F058FB41EC1B0B9FEDD30B53EC102B2B
:1012400009F044F941EC1A0B08F080FE08EE100A90
:1012500094ED040A38EE400ADFEDCD0A20EE200AB4
:10126000F0EE408AB4F900205142BDEEE80A10EEDB
:10127000100AFFF7A9FE00EE100AB8EEC00AB0EEA1
:10128000409AB0EE490ABDEC0C8B10BD10B5044677
:10129000FFF72AF8022819D09FEDB71BBD4880ED53
:1012A000081BB0EE410AF0EE610A51EC100B08F099
:1012B0004DFEB849C1F8A0002046FFF713FFBDEE70
:1012C000C00A10EE100A00B2208508E02046FFF7A1
:1012D0004EFFBDEEC00A10EE100A00B2208510BD10
:1012E00070B52DED0E8B04469FEDA10AB0EE408A3D
:1012F0009FED9F0AF0EE408A9E48008900286AD13F
:10130000B4F9020000EE100AB8EEC00AA24880ED5F
:10131000000AA24890ED000AF7EE000A30EE200A1B
:1013200080ED000A90ED000ADFED9D0AB4EEE00AC0
:10133000F1EE10FA03DD9FED9A0A80ED000A94EDBC
:10134000020A10EE101A084609F0B6FB41EC1A0B1F
:10135000B4F9040000EE100AB8EEC00A8E48D0EDD1
:10136000000A30EE600A10EE101A084609F0A4FBDD
:1013700041EC1E0B94ED081BB0EE410AF0EE610A41
:1013800053EC102B08F014FE41EC1D0B9FED850B68
:1013900053EC102B09F09AF841EC1C0B9FED830BDA
:1013A00053EC102B08F0B8FE41EC1B0B53EC1A2B3E
:1013B00009F08CF841EC190B08F0C8FD08EE100A92
:1013C00094ED040A38EE400AD4ED030A20EE200A18
:1013D000F0EE408A4FE0B4F9040000EE100AB8EED7
:1013E000C00A6D48D0ED000A30EEC00A10EE101AA7
:1013F000084609F061FBC4E908015E4890ED010A66
:1014000010EE101A084609F057FB41EC1C0B9FED3B
:10141000690B53EC102B08F0CBFD41EC1B0B08F0D3
:1014200095FD054609F048FB41EC1A0B9FED630B57
:1014300053EC102B09F04AF841EC190B08F086FD2B
:1014400008EE100A94ED040A38EE400AB1EE400AA4
:1014500010EE101A084609F02FFB41EC1A0B9FED15
:10146000590B53EC102B09F031F841EC190B08F033
:101470006DFD08EE900A494890ED000ABDEEC00AE5
:1014800010EE102A90ED000AB1EE400ABDEEC00A3F
:1014900010EE101ABDEEE80A10EE100AFFF794FDE8
:1014A00000B22085BDEC0E8B70BD01464748B0F9F7
:1014B000EE01142290FBF2F0084400EE100AB8EEA0
:1014C000C00AF7EE000A20EE200ABDEEC00A10EEB8
:1014D000100A00B2704710B504462E49B1F98010C9
:1014E00000EE101AF8EEC00A00EE104AB8EEC00A7C
:1014F0009FED371A40EE410ABDEEE00A10EE100AE9
:1015000041F270725142FFF75FFD01B22148A0F82D
:1015100082100146B1F98210484241F27072514284
:10152000FFF752FD01B21B48A0F88A1010BD10B59C
:1015300004462648A0F8EC4100F5F07000F0A2FB4C
:10154000224991ED840ABDEEC00A10EE100A4FF454
:10155000FA525142FFF738FD00EE100AB8EEC00A09
:101560001A4880ED840A90ED840ABDEEC00A31E08D
:1015700000000000540700200000000000000000F0
:101580000000000000000C400000000000002240AD
:1015900000002042D0080020380100203C0100203B
:1015A00000A08C4500000000008076400000000094
:1015B0000000C040000000000000F03F3333333330
:1015C000333322403333333333333940380200204E
:1015D000CDCCCC3D10EE100A00B210BD70B5044663
:1015E00025463DB36F48B0F9EE0164280EDA6E4827
:1015F0000068401C6C49086008460068282805DD22
:1016000001206A490870002067490860674800782F
:1016100001280FD166480068401C65490860654D87
:1016200008460068142805DD0020604908706049FC
:10163000086025462846FFF77AFF70BD10B50446BE
:10164000604200B2574988810846A0F85C4000F02B
:1016500019FB5448503000F015FB524991ED0C0A2B
:10166000BDEEC00A10EE100A41F658325142FFF7A3
:10167000ABFC00EE100AB8EEC00A4A4880ED0C0A36
:10168000014691ED200ABDEEC00A10EE100A41F6A7
:1016900058325142FFF798FC00EE100AB8EEC00A2B
:1016A000404880ED200A10BD10B504462046FFF7E3
:1016B000C5FF10BD70B505460C462846FFF7F4FF80
:1016C0002046FFF78BFF70BD10B50446062C23D2D1
:1016D000DFE804F022030A10171E41F664114FF4EC
:1016E0009660FFF7E7FF17E041F288314810FFF7F7
:1016F000E1FF11E041F270714FF4FA60FFF7DAFF99
:101700000AE041F6641140F6C410FFF7D3FF03E08E
:101710000020FFF763FF00BF00BF10BD10B52648D3
:101720000089012803D10420FFF7CEFF39E02348C8
:1017300090F8380001280CD100210846FFF7BAFFC5
:101740001F48C168002088471D48816801208847DC
:1017500027E01A4890F83800032809D1002141F207
:101760008830FFF7A7FF1648C1680120884718E0B6
:10177000124890F8380002280AD14FF4FA6141F279
:101780008830FFF797FF0E48C1680120884708E0BE
:10179000002141F28830FFF78DFF0948C168012020
:1017A000884710BD38020020400100204801002079
:1017B0004401002024FAFFFF54070020D008002035
:1017C0007401002010B5022412E004EB8401FE4AEB
:1017D00002EB01109FEDFD1ADFEDFD0AB1EE040AE8
:1017E0004FF4FA7341F65832042100F0E8FA641C11
:1017F000042CEADB10BD30B50246002323E00020B4
:101800001BE032F91050441C32F91440A54212DD9D
:1018100032F9104000EE904AB8EEE00A441C32F86B
:10182000144022F81040FDEEC00A10EE904A25B296
:10183000441C22F81450441CE0B24C1EE41A8442AA
:10184000DFDC5C1CE3B24C1E9C42D8DC30BD2DE9D1
:10185000F0412DED048B9AB006460F461546002444
:101860004FF08040406A4008DA490860DA48007862
:1018700050B9DA48006888B90120D7490870D848BB
:1018800001680120884709E0D3480078012805D184
:10189000D448010548620220CF49087000240BE0BB
:1018A0004FF08040406A4FF44A41C1EB500000B213
:1018B00001A921F81400641C322CF1DB322101A8AB
:1018C000FFF799FF052404E001A830F914008044D3
:1018D000641C2D2CF8DB282098FBF0F0C24908602E
:1018E000C248007878BBC2480068401CC049086004
:1018F000C048B0F90010B448A0F8AC10BD4800884A
:10190000404201B2B048A0F8FC10B948006841F26A
:101910005041884216D10020B54908600120B349E2
:101920000870B5490870B0480068002803DA012043
:10193000B249087002E00020B0490870A848016868
:1019400001208847EAE0FFE7A548016800208847B2
:10195000A948007801284FD1A3480068B04205DCAF
:101960000220A549087000209B4908709E48016824
:1019700006F57A7081421DDA9E48B0F9000008F041
:1019800052FD41EC190B9FED9E0B53EC102B08F010
:10199000A9FF41EC180B08F017FD00B2954908802B
:1019A0000846B0F90000B0F5FA6F74DC4FF4FA6045
:1019B000088070E0A7F57A708B49096888426ADA76
:1019C0008C48B0F9000008F02EFD41EC190B9FED9A
:1019D0008C0B53EC102B08F0EBFA41EC180B08F0D1
:1019E000F3FC00B2834908800846B0F90000A84221
:1019F00051DB084605804EE07B480068B84205DBB5
:101A000001207D49087000207349087076480168FC
:101A100006F57A7081421BDA7648B0F9000008F0CA
:101A200002FD41EC190B9FED760B53EC102B08F0E7
:101A3000BFFA41EC180B08F0C7FC00B26D490880F2
:101A40000846B0F90000A84225DB0846058022E0E0
:101A5000A7F57A706449096888421CDA6548B0F9CC
:101A6000000008F0E0FC41EC190B9FED650B53EC16
:101A7000102B08F037FF41EC180B08F0A5FC00B262
:101A80005C4908800846B0F90000B0F5FA6F02DC46
:101A90004FF4FA6008805948007801281FD1564851
:101AA000007801280DD15348B0F900104648A0F83D
:101AB000AC1050480088404201B24348A0F8FC10E6
:101AC0002CE04C480088404201B23F48A0F8AC10DE
:101AD0004848B0F900103C48A0F8FC101EE0464809
:101AE000007801280DD143480088404201B23648B1
:101AF000A0F8AC103F48B0F900103348A0F8FC1033
:101B00000CE03C48B0F900102F48A0F8AC10394860
:101B10000088404201B22C48A0F8FC102A48A030AE
:101B200000F0B0F82848F03000F0ACF81AB0BDEC86
:101B3000048BBDE8F0812DE9F84304460D461646B6
:101B40001F46DDF820803A4631462846FFF77FFEE3
:101B5000B4B9002000901C4890ED200ABDEEC00AE8
:101B600010EE100A02B2184890ED0C0ABDEEC00A41
:101B700010EE100A01B200232348FFF71AF947E0DC
:101B8000114890ED480ABDEEC00A10EE100A00B2EE
:101B900000900D4890ED340ABDEEC00A10EE100A18
:101BA00003B2094890ED200ABDEEC00A10EE100AFB
:101BB00002B2054890ED0C0ABDEEC00A10EE100A04
:101BC00001B2114822E0000038020020CDCCCC3D0B
:101BD0009A99993E4C0100205401002030824142E4
:101BE0007401002000943577500100205C01002032
:101BF00060010020640100205A0100205B010020E8
:101C00000000000000000C4000640040FFF7D1F825
:101C1000BDE8F883D0ED000AF4EEC00AF1EE10FA48
:101C200001DD80ED000AD0ED000AB1EE401AF4EEBD
:101C3000C10AF1EE10FA03D2F1EE400AC0ED000A3B
:101C4000704743640264C16380ED000AC0ED010A7D
:101C500080ED021A704780ED000AC0ED010A80EDA8
:101C6000021ADFED6D1AC0ED091ADFED6B1AC0ED37
:101C70000A1ADFED691AC0ED0B1ADFED671AC0ED25
:101C80000C1A704700B50146B1F90C00B1F90E20ED
:101C9000801A00EE100AB8EEC00A81ED080AC86B7F
:101CA00003283ED191ED000AD1ED080A20EE200A6A
:101CB00081ED090A91ED0A0AD1ED010A91ED081AA8
:101CC00000EE810A81ED0A0A91ED080AD1ED070ABA
:101CD00030EE600AD1ED020A20EE200A81ED0B0AF7
:101CE000D1ED110AF8EE600AB0EE600A01F12800A9
:101CF000FFF790FF91ED090AD1ED0A0A30EE200AB4
:101D0000D1ED0B0A30EE200A81ED0C0AD1ED100A5C
:101D1000F8EE600AB0EE600A01F13000FFF77AFFDA
:101D200042E0C86B04283FD191ED080AD1ED070AC3
:101D300030EE600AD1ED000A20EE200A81ED090A9A
:101D400091ED010AD1ED080A20EE200A81ED0A0A80
:101D500091ED080AD1ED070AB0EE001A01EE600A13
:101D6000D1ED060A30EE200AD1ED020A20EE200A5B
:101D700081ED0B0A91ED090AD1ED0A0A30EE200A35
:101D8000D1ED0B0A30EE200AD1ED0C0A30EE200A1C
:101D900081ED0C0AD1ED100AF8EE600AB0EE600A8F
:101DA00001F13000FFF736FF91ED070A81ED060AD9
:101DB00091ED080A81ED070A91ED0C0A00BD2DE9AD
:101DC000F0412DED048B04460D4616461F46B0EE3D
:101DD000408AF0EE608AB0EE419A1048A064104844
:101DE000E064B0EE491AF0EE680AB0EE480A3B46ED
:101DF000324629462046D4F848C0E047B0EE491A9A
:101E0000F0EE680AB0EE480A2046E16C8847BDEC67
:101E1000048BBDE8F081000000000000431C0008B6
:101E2000571C000800F07F0200EE102AB8EEC00A2E
:101E3000F0EE400A00EE101AB8EE400AB0EE401A7A
:101E400000F0800252B1DFEDBA1AB0EE410A00EEA6
:101E5000A10ADFEDB81A30EE610A7047B0EE410A10
:101E6000DFEDB31A00EEA10AF7E700B5B24800684B
:101E7000012803D10020B049086000E000BDAE4851
:101E80000079FF283FD1AC48C07AFE283BD1AA4A4E
:101E900051799079FFF7C6FFDFEDA80A80EE201A8E
:101EA000A74880ED001AA44A517A907AFFF7BAFF4A
:101EB000BDEEC00A10EE100A00B2A1490881084622
:101EC000008901280BD19C4AD179107AFFF7AAFF2B
:101ED000DFED9A0A80EE201A994880ED011A9848A1
:101EE000008902280FD1944AD179107AFFF79AFF1E
:101EF0009FED921AC0EE010AB1EE020A30EEC00A5E
:101F00008F4880ED010A00BFB8E770B504460D4662
:101F1000FF208C490870084644708D70FE20C87000
:101F200000208949087012E000BF4021874803F073
:101F300061FC0028F9D08348834A1278815C834889
:101F400003F0A8FB80480078401C7F4908707E4859
:101F500000780428E8DB70BD1CB50121082003F0DF
:101F6000E2F84FF40070009002208DF80400002089
:101F70008DF8060003208DF8050000208DF807007D
:101F80006946734802F02EFE07220921704802F0CC
:101F9000B4FE1CBD1FB50121880403F00BF96D4888
:101FA00003F05EFA4FF4E13000900020ADF8040039
:101FB000ADF806004FF48060ADF808000420ADF8DD
:101FC0000A000020ADF80C006946624803F0AFFA41
:101FD0000121604803F033FB012240215D4803F0FA
:101FE000DBFB1FBD08B50C208DF8000000208DF82C
:101FF000010003208DF8020001208DF803006846DF
:1020000002F0FFFC08BD00B58FB00121480503F0C8
:102010008AF80021504804F021FA00BF4E482838C1
:10202000806A00F001000028F8D14B4804F03AF92A
:102030004FF0006000904748001D01904748029013
:10204000002003900F200490002005904FF4806042
:1020500006900020079008904FF4807009904FF48C
:1020600040300A9000200B900C900D900E90694625
:10207000394804F0B9F901221021374804F07BFAFD
:102080000121354804F0EAF90FB000BD10B5FFF7A3
:1020900063FFFFF7A7FFFFF7B6FF10BD002000BFEB
:1020A00010E02E49095CFF290BD12C4AC11D515C5F
:1020B000FE2906D1411C1144294A0B681360898806
:1020C0009180401C1928ECDB2549B1F9001000EE85
:1020D000101AB8EEC00ADFED190A80EE201A18496E
:1020E00081ED001A1E49B1F9021000EE101AB8EE87
:1020F000C00ADFED120A80EE201A114981ED011AA3
:10210000174989880E4A1181704710B51549124840
:1021100004F001FA012809D112490F4804F017FA16
:1021200010490D4804F06EFAFFF7B8FF10BD00002B
:102130000000804300000047840700200000C842E0
:10214000540700206D010020710100200044004070
:10215000000C024000480040286002403807002080
:1021600066010020008800101CB50121302002F01B
:10217000DAFF8020009001208DF8040000208DF807
:10218000060003208DF8050001208DF80700694640
:10219000134802F027FD4FF4804000906946114833
:1021A00002F020FD1CBD1CB50121082002F0BBFF80
:1021B0004FF47040009000208DF804008DF8060068
:1021C00003208DF8050001208DF8070069460648B8
:1021D00002F008FD6946044802F004FD1CBD000041
:1021E0000010024000140240000C024010B500F044
:1021F000A7FBFFF7B9FF00F06DF800F087F8A82003
:1022000000F0C2FC00F0CAF902F06EFB00F089FA9F
:1022100000F02DF900F021FC00F0AAFC00F0CDFD4B
:1022200002F0C5FA02F0CFFB01F03AF9FFF72EFFFA
:10223000642000F00BFD00F031FE10BD10B5044627
:102240002CB14FF480411E4802F04AFD04E04FF4E7
:1022500080411B4802F042FD10BD10B5044624B178
:102260008021184802F03CFD03E08021154802F06F
:1022700035FD10BD10B504462CB14FF40051124885
:1022800002F02CFD04E04FF400510F4802F028FD4D
:1022900010BD18B118210D4A516302E00F210B4AFD
:1022A0005163704728B19321094A1160121F1160D0
:1022B00004E06421064A1160121F1160704700009B
:1022C00000140240001002400018024000000140CB
:1022D000381800401CB50121402002F024FF4FF4C3
:1022E0000050009001208DF8040000208DF80600B9
:1022F00003208DF8050001208DF80700694602488B
:1023000002F070FC1CBD0000001802401CB5012149
:10231000022002F008FF1020009001208DF8040038
:1023200000208DF8060003208DF8050001208DF8AF
:1023300007006946014802F055FC1CBD000402403C
:102340001CB50121022002F0EEFE80200090022048
:102350008DF8040000208DF8060003208DF805009C
:1023600000208DF807006946464802F03BFC072232
:102370001146444802F0C1FC1CBD1FB501211020CC
:1023800002F029FF404803F06BF84048009000201D
:10239000ADF80400ADF806004FF48060ADF8080019
:1023A0000420ADF80A000020ADF80C00694636485C
:1023B00003F0BDF80121344803F041F90122402126
:1023C000314803F0E9F91FBD08B544208DF800003D
:1023D00000208DF8010003208DF8020001208DF807
:1023E0000300684602F00DFB08BD00B58FB0012167
:1023F000880502F098FE0021254804F02FF800BF60
:102400002348006800F001000028F9D1204803F0BB
:1024100049FF4FF0006000901B48001D01901D48CF
:1024200002900020039012200490002005904FF4A9
:10243000806006900020079008904FF4807009900B
:102440004FF440300A9000200B900C900D900E90AD
:1024500069460F4803F0C8FF012210210C4804F020
:102460008AF801210A4803F0F9FF0FB000BD10B54A
:10247000FFF766FFFFF781FFFFF7A6FFFFF7B5FF46
:1024800010BD00000004024000100140A0860100C1
:10249000886402406807002000BF704700BF5C4AA4
:1024A000128802F04002002AF9D0C2B2584B1B1D1C
:1024B0001A8070471CB50121402002F034FE4FF411
:1024C0008440009002208DF8040000208DF8060062
:1024D00003208DF8050000208DF8070069464D485F
:1024E00002F080FB08220E214A4802F006FC082276
:1024F0000921484802F001FC1CBD1FB5FFF7DAFFB7
:102500000121202002F067FE4FF4E130009000200E
:10251000ADF80400ADF80600ADF808000C20ADF8E9
:102520000A000020ADF80C006946394802F0FFFFB0
:10253000012240F22551364803F037F90121344891
:1025400003F07DF800BF8021314803F053F90128E2
:10255000F9D11FBD1CB54FF4A06002F04DFA032065
:102560008DF8050001208DF8060047208DF8040045
:1025700001208DF8070001A802F043FA03208DF82E
:10258000010000208DF8020027208DF800000120B6
:102590008DF80300684602F034FA1CBD10B5FFF751
:1025A000ACFFFFF7D7FF10BD10B540F2255118481A
:1025B00003F036F950B3164803F070F8C4B2164869
:1025C000406A48B9FF2C20D11348416A001D445489
:1025D00001201149486218E0FE2C0DD10E48416AD5
:1025E000001D4454001F406A401C0B4988620020B3
:1025F00048620120086008E00748416A001D445411
:10260000001F406A401C0449486200BF10BD000022
:102610000014014000180240840700200EB501217B
:10262000084602F0C7FD4FF0FF3001905920ADF889
:1026300000000020ADF80800ADF802000121880775
:1026400004F01CF969464FF0804004F0ACF8012119
:10265000880704F031F90EBD0EB50121022002F009
:10266000A9FD494803F0F2FF44F61F60019059208C
:10267000ADF800000020ADF80800ADF80200694692
:10268000414804F090F8012211463F4804F02CFD27
:1026900001213D4804F010F90EBD0EB501210420C2
:1026A00002F088FD394803F0D1FF40F2E730019095
:1026B0005920ADF800000020ADF80800ADF8020088
:1026C0006946324804F06FF8012211462F4804F0A1
:1026D0000BFD01212D4804F0EFF80EBD08B54FF4B5
:1026E000A06002F089F91D208DF8000001208DF80E
:1026F000010002208DF8020001208DF803006846D9
:1027000002F07FF91E208DF8000000208DF80100F6
:102710008DF8020001208DF80300684602F071F97F
:1027200008BD10B5FFF798FFFFF7B7FFFFF7D6FF1B
:1027300010BD10B50121880704F0EDFC38B101216E
:10274000880704F0F9FC0121880704F0E1FC10BDC2
:102750004FF08040406A704710B501210A4804F0EC
:10276000DAFC0121084804F0E7FC10BD10B5012196
:10277000064804F0D0FC08B1FDF7D4FE012103485F
:1027800004F0DAFC10BD0000000400400008004026
:1027900000B58BB00121084602F01DFD012108465D
:1027A00002F0C1FC0121102002F0BDFC0122082131
:1027B000664802F0A2FA01220921644802F09DFA5B
:1027C00001220E21624802F098FA01220D21604890
:1027D00002F093FA4FF44070099002208DF828001F
:1027E00003208DF8290000208DF82A0001208DF8A3
:1027F0002B0009A9554802F0F5F94FF4C0400990A3
:1028000009A9534802F0EEF944F24F60ADF8180000
:102810000020ADF81A00C72007900020ADF8200076
:102820008DF8220006A94B4803F0BDFF6020ADF8EB
:1028300004000120ADF806000420ADF808000020D7
:102840000390ADF810000820ADF812004001ADF87B
:1028500014000020ADF8160001A93E4804F038F835
:1028600001A93C4804F06DF801A93A4804F0B6F813
:1028700001A9384804F018F90121364804F01CF881
:102880000121344804F009FC0BB000BD00B58BB049
:102890000121402002F08EFC0121802002F043FC47
:1028A000092206212C4802F028FA092211462A485A
:1028B00002F023FA4FF41070099002208DF82800DE
:1028C00003208DF8290000208DF82A0001208DF8C2
:1028D0002B0009A9204802F085F942F22730ADF813
:1028E00018000020ADF81A00C82007900020ADF8AD
:1028F000200006A9194803F056FF6020ADF8040037
:102900000120ADF806000020ADF8100001A9134821
:1029100003F0DEFF01A9114804F013F808210F4865
:1029200004F063F908210D4804F068F901210B480F
:1029300003F0A4FF0121094803F0BEFF0BB000BD66
:1029400010B5FFF725FFFFF7A1FF10BD0000024003
:102950000010024000000140001C0240001800402E
:102960001CB50121082002F0DEFB032000900220AC
:102970008DF8040003208DF8050069463B4802F0FD
:1029800031F909220021394802F0B7F90922012161
:10299000364802F0B2F91CBD08B54FF4A06002F051
:1029A0002BF814208DF8000001208DF80100002084
:1029B0008DF8020001208DF80300684602F021F82E
:1029C00008BD00B587B00121480602F0F3FB284896
:1029D00002F070FF04A803F091F800208DF81600B3
:1029E0008DF817008DF818008DF819008DF81A0071
:1029F00001208DF81B0000208DF812008DF81300C7
:102A000005208DF8140007208DF815000320ADF87F
:102A1000100004A9164802F066FF00208DF80A0095
:102A20008DF80B0001208DF80C000020ADF800009F
:102A3000ADF80200ADF80400ADF80600ADF80800EE
:102A400001208DF80D00684602F0D7FF0122022117
:102A5000074803F0D1FA07B000BD10B5FFF780FFBB
:102A6000FFF79AFFFFF7ADFF10BD0000000C02401A
:102A7000006400401CB50121022002F054FB4FF419
:102A80004050009002208DF804008DF80500694642
:102A90003B4802F0A7F809220C21394802F02DF931
:102AA00009220D21364802F028F91CBD08B5402046
:102AB0008DF8000000208DF8010002208DF8020042
:102AC00001208DF80300684601F09BFF08BD00B5AA
:102AD00087B00121480602F06DFB0121880602F053
:102AE00069FB284802F0E6FE04A803F007F800207E
:102AF0008DF816008DF817008DF818008DF8190064
:102B00008DF81A0001208DF81B0000208DF81200AE
:102B10008DF8130005208DF8140007208DF815009E
:102B20000320ADF8100004A9164802F0DCFE0E20C8
:102B30008DF80A0000208DF80B0001208DF80C00A4
:102B40000020ADF80000ADF80200ADF80400ADF8CB
:102B50000600ADF8080001208DF80D00684602F06F
:102B60004CFF01220221074803F046FA07B000BDDE
:102B700010B5FFF77FFFFFF799FFFFF7A8FF10BD24
:102B8000000402400068004010B504466FF00400E5
:102B900001F084FFE11704EB5171C1F3C701394A19
:102BA00011701046007800EB4001C1EBC0104FF6E9
:102BB000FF7101EAC0003449088010BD0146314A66
:102BC00012784A434FF0E0235A6100229A611A4674
:102BD000126942F001021A6100BF4FF0E022106951
:102BE00000F001021AB100F48032002AF5D04FF053
:102BF000E022126922F001024FF0E0231A61002264
:102C00009A6170470146204A12884A434FF0E023F8
:102C10005A6100229A611A46126942F001021A6151
:102C200000BF4FF0E022106900F001021AB100F479
:102C30008032002AF5D04FF0E022126922F0010222
:102C40004FF0E0231A6100229A61704770B5044684
:102C50004FF4077094FBF0F0C6B24FF4077094FB8A
:102C6000F0F100FB114085B205E04FF40770FFF76B
:102C7000C9FF701EC6B2002EF7D115B12846FFF766
:102C8000C1FF70BD880100208A010020014608684C
:102C9000704701464948814201D2002070474848A8
:102CA000814201D20820F9E74648814201D2102032
:102CB000F4E74548814201D21820EFE743488142BA
:102CC00001D22020EAE74248814201D22820E5E7EC
:102CD0004048814201D23020E0E73F48814201D2A2
:102CE0003820DBE73D48814201D24020D6E73C480E
:102CF000814201D24820D1E73A48814201D2502096
:102D0000CCE75820CAE72DE9F04704460E4617469F
:102D10004FF009080025A946B4F1006F02D304F072
:102D2000030008B1BDE8F08704F098FD002004F02E
:102D300078FD254604EB87092B48854215D211E022
:102D40002846FFF7A3FF401C58B12846FFF7A1FF14
:102D50008246022104F0D6FD8046B8F1090F01D069
:102D600002E02D1D4D45EBD300BFB8F1090F0CD18A
:102D700008E02046316804F0E1FE092800D003E0B5
:102D8000241D361D4C45F4D300BF012004F049FD3D
:102D900004F071FD00BFC5E730B503460C4615468B
:102DA000002206E01846FFF771FF44F822001B1DC1
:102DB000521CAA42F6D330BD70477047004000084D
:102DC0000080000800C000080000010800000208A0
:102DD00000000408000006080000080800000A08B7
:102DE00000000C0800000E080000FF1F10B545F29F
:102DF000555005F041F8042005F041F840F2EE206E
:102E000005F040F805F041F805F044F810BD082839
:102E100010D2DFE800F00405060708090A0B0AE0F3
:102E200009E008E007E006E005E004E00021194AB7
:102E3000D17200E000BF00BF704710B50446002308
:102E400000BF0AE054F82300FA2804D254F8230003
:102E5000401C44F82300581CC3B2082BF2DB0023AB
:102E60000FE054F82300082802D201200949C87253
:102E700054F823000A2802D91846FFF7C8FF581C47
:102E8000C3B2082BEDDB10BD00B50348FFF7D5FF3B
:102E900000BD00008C010020B407002000B597B0F1
:102EA0000121480402F086F90121082002F03BF9D3
:102EB0000121480502F037F907220621F74801F001
:102EC0001CFF4020159002208DF8580003208DF83B
:102ED000590000208DF85A0001208DF85B0015A9DB
:102EE000EE4801F07FFEEE4803F0DCF90021EC48EB
:102EF00003F0B4FA00BFEA4803F0FDFA0028FAD163
:102F00004FF000600190E7480290E74803900020EE
:102F1000049078200590002006904FF48060079080
:102F20000020089009904FF480700A9000020B90E6
:102F300000200C9003200D9000200E900F9001A90E
:102F4000D74803F051FA0121D54803F087FAD54854
:102F5000001F02F085FA4FF4E13011900020ADF827
:102F60004800ADF84A00ADF84C00ADF85000042020
:102F7000ADF84E0011A9CB48001F02F0D8FA01218C
:102F8000C848001F02F05BFB002240F22661C548E2
:102F9000001F02F00AFC002240F22551C148001F28
:102FA00002F003FC012240F22441BE48001F02F05F
:102FB000FCFB26208DF8400003208DF841008DF8A1
:102FC000420001208DF8430010A801F01AFD0122F3
:102FD0004021B448001F02F0DFFB17B000BD10B560
:102FE0000246002329E0002021E002EB8004D4ED1A
:102FF000000A441C02EB840494ED001AF4EEC10AAA
:10300000F1EE10FA11DD02EB800494ED000A441C8D
:1030100002EB8404D4ED000A02EB8004C4ED000A44
:10302000441C02EB840484ED000A441CE0B24C1EF4
:10303000E41A8442D9DC5C1CE3B24C1E9C42D2DC14
:1030400010BD30B5034605E013F8010B80EA020419
:103050009648025D0800A1F10101F5D1104630BD8E
:1030600070B505460C4600260DB1022C01D8002093
:1030700070BD611EFF222846FFF7E3FF0646601E73
:10308000285CB04201D10120F2E70020F0E770B5E2
:103090002DED048B9FED860AB0EE408A804803F048
:1030A00000FAC0F17800C5B20024B3E07E48005DAC
:1030B000A52830D101207F490870611D7A48FFF7AB
:1030C000CFFF002827D07849601C095C764AA01CF5
:1030D000105C41EA00207849A1F801001146E01C8B
:1030E000085C7549C8701146601D095CA01D105C24
:1030F00041EA002000B27049C8800846C088012813
:103100000AD10846B0F80120674BE01D19186A483B
:10311000083005F027F97CE06748C08802281FD1F5
:103120006149E01D085C6449497C60F30301624821
:1031300041745D49E01D085C00205F49497C60F3F3
:1031400007115D484174407C03095B48407C00F0F6
:103150000F025948B0F9061058A005F087F858E05A
:103160005548C08803280AD15348B0F801204E4B77
:10317000E01D19185048123005F0F4F849E04E48A7
:10318000C08804280AD14C48B0F80120464BE01D05
:1031900019184948183005F0E5F83AE04648C08863
:1031A00005280AD14448B0F801203F4BE01D19180A
:1031B00041482C3005F0D6F82BE03F48C08806285F
:1031C0000AD13D48B0F80120374BE01D19183A48A4
:1031D0002E3005F0C7F81CE03748C08807280AD110
:1031E0003548B0F80120304BE01D191832482F3017
:1031F00005F0B8F80DE03048C088082809D12E48FD
:10320000B0F80120284BE01D19182B48313005F08B
:10321000A9F8641CAC42FFF449AF2748006A314961
:10322000314A127841F822002F480078401C2E497C
:1032300008700846007805282CD100200870052168
:103240002848FFF7CCFE012409E0264800EB840063
:1032500090ED000A30EE080AB0EE408A641C032CA0
:10326000F3D9B0EE080AC8EE000A2048C0ED050AFE
:103270009FED0F0AB0EE408A90ED050A10EE101A8D
:10328000084607F019FC41EC190B53EC192B18A058
:1032900004F0ECFFBDEC048B70BD0000000C02409C
:1032A0008860024004440040E4070020B3AB0008FB
:1032B000000000009D0100205C080020436D64496F
:1032C000443D2564202061726D6F72547970653DB4
:1032D00020256420202068757274547970653D251E
:1032E000640D0A00BC080020A0010020A0080020F6
:1032F000706F7765722E617665726167653D2566D0
:103300000D0A000010B5002440F22441164802F0D6
:1033100087FAA8B114480488001D048800211348C6
:1033200003F09CF8FFF7B3FE1149104803F00FF9C2
:1033300078210E4803F0B3F801210C4803F08EF811
:1033400000BF10BD70B505460C4600260DB1022C1D
:1033500000D870BD611EFF222846FFF772FE0646A8
:10336000601E2E5400BFF4E7004400408860024015
:10337000400F00101CB50121084601F0D4FE0122C7
:103380000021524801F0B9FC012211464F4801F0DA
:10339000B4FC0320009002208DF8040003208DF877
:1033A000050000208DF8060001208DF80700694611
:1033B000464801F017FC1CBD00B587B00121084646
:1033C00001F0F8FE4FF0804003F040F904A803F04C
:1033D0001EFA4FF0FF3005900020ADF81000ADF858
:1033E0001800ADF8120004A9394803F0DCF90A23EB
:1033F0001A460321580703F04AFF01A803F0E1FD34
:103400000620ADF80C0001A94FF0804003F0A2FDAA
:103410003048010548620121000503F04DFA07B06C
:1034200000BD1CB50121082001F07DFE4FF4804055
:10343000009000208DF8040003208DF80500022084
:103440008DF807006946244801F0CCFB1CBD08B587
:1034500028208DF8000001208DF8010003208DF850
:10346000020001208DF80300684601F0CAFA08BD89
:103470001CB50121880301F0AEFE0E21032001F0EE
:10348000B6FF0E20009000208DF804000C208DF86F
:10349000050001208DF80600684604F04BFE1CBDB7
:1034A00010B5FFF767FFFFF787FF10BD10B54FF4AA
:1034B000804004F0A5FE18B100204FF08041486222
:1034C0004FF4804004F0A7FE10BD00000000024051
:1034D0000008004000943577000C0240F0EE400AEE
:1034E000F6EE001A60EEA11AB0EE611AB0EE600AB4
:1034F00010EE100AFE49A1EB600000EE100A21EE6A
:10350000002AF7EE081A42EE401A61EE801AB0EE79
:10351000610A704730B585B005460DF1120004A967
:10352000031F03AACDE90010891F02A801F031F89A
:1035300000241DE0032C0BDA02A830F9140000EE81
:10354000100AB8EEC00A05EB840080ED000A0EE018
:1035500002A830F9140000EE100AB8EEC00ADFED40
:10356000E50A80EE201A05EB840080ED001A641C49
:10357000062CDFDB05B030BD00B52DED108B9BB008
:10358000F0EE40AAB0EE60BAF0EE41BAB0EE61DA09
:10359000B0EE42CAF0EE62CAB0EE43AAF0EE638A21
:1035A000B0EE449AD44890ED000AD0ED000A20EE27
:1035B000200A8DED0B0A90ED000AD048D0ED000AEC
:1035C00020EE200A8DED0A0ACB4890ED000ACC4887
:1035D000D0ED000A20EE200AF0EE40EAC64890ED59
:1035E000000AC848D0ED000A20EE200A8DED090A35
:1035F000C24890ED000AD0ED000A20EE200A8DEDC1
:10360000080A90ED000ABE48D0ED000A20EE200A1C
:103610008DED070AB94890ED000ABA48D0ED000ACE
:1036200020EE200AB0EE40FAB54890ED000AD0ED49
:10363000000A20EE200A8DED060A90ED000AB1483E
:10364000D0ED000A20EE200A8DED050A90ED000A6B
:10365000D0ED000A20EE200A8DED040AFFF778F87D
:10366000A949086008460068A8490968884210D23C
:10367000A64800684FF6FF71081AA3490968084474
:1036800000EE100AB8EE400ADFEDA10AC0EE209A63
:103690000CE09D4800689D490968401A00EE100A38
:1036A000B8EE400ADFED9A0AC0EE209A964800680C
:1036B000964908606DEE0D0A4CEE0C0A4CEEAC0A11
:1036C000B0EE600AFFF70AFFB0EE408A2DEE080A5E
:1036D000B0EE40DA2CEE080AB0EE40CA2CEE880AB2
:1036E000F0EE40CA6AEE0A0A48EEA80A49EE090A54
:1036F000B0EE600AFFF7F2FEB0EE408A2AEE080A4A
:10370000B0EE40AA28EE880AF0EE408A29EE080AB8
:10371000B0EE409AB0EE000A6AEE000A9DED060A8D
:10372000B6EE001A31EE401A9DED040A31EE400A61
:1037300020EE800AF0EE000A68EEA01ADDED070A1E
:103740009DED091A70EEC10A01EEA00AF0EE000A22
:1037500069EE200A3FEE2E1A00EE810A8DED1A0A5C
:10376000B0EE000A2AEE001A9DED070ADDED090A07
:1037700030EE200A21EE000AF0EE000A28EEA01A30
:10378000DDED080AF6EE001A71EEE01ADDED040A2E
:1037900071EEE00A01EE200AF0EE000A69EE201A4E
:1037A000DDED050A9DED0A1A70EEC10A01EEA00AD0
:1037B0008DED190AB0EE000A2AEE000A7FEE6E0ABD
:1037C00020EE200AF0EE000A68EEA01ADDED050AF0
:1037D0009DED0A1A70EE810A01EEA00AF0EE000AD1
:1037E00029EE201ADDED080AF6EE001A71EEE01A55
:1037F000DDED060A71EEE00AF0EE40DA41EE20DA85
:103800009DED1A0A60EE000A9DED190A40EE000ACD
:1038100010EE901A084607F04FF9CDE900019DED32
:10382000000B06F035FA8DED020B9DED020B51EC0D
:10383000100B06F08BFB0FEE900AB0EE6DEA3FEE38
:103840006E0AF0EE000A20EE200A8DED180A9DEDBA
:103850000A0ADDED050A30EE200AF0EE000A20EE3D
:10386000200A8DED170A9DED0B0ADDED080A70EEBA
:10387000600A9DED060A70EEC00A9DED040A30EE66
:10388000800A8DED160AB0EE000A6FEE800A9DEDFB
:10389000060AB6EE001A31EE401A9DED040A31EE2A
:1038A000400A20EE800AF0EE4EDAF0EE000A6DEEED
:1038B000A00A3FEE6E1A00EE810A8DED150AB0EEF9
:1038C000000A2FEE801A9DED070ADDED090A30EEA1
:1038D000600A21EE000AF0EE4EDAF0EE000A6DEE1C
:1038E000A01ADDED0A0A9DED051A70EE810A11E0BD
:1038F000DF59375F33330342B0010020B4010020A9
:10390000B8010020BC010020CC010020C80100202B
:103910000024F44901EEA00A8DED140AB0EE000A6D
:103920002FEE800A7EEE8F0A20EE200AF0EE4EDAAD
:10393000F0EE000A2DEEA01ADDED080AF6EE001AF0
:1039400071EEE01ADDED060A71EEE00A01EE200AE2
:103950008DED130A9DED160A6CEE000A9DED170A17
:103960004CEEC00A9DED130A28EE801A9DED140A54
:1039700009EE401A30EE810A8DED120A9DED180A0B
:103980006CEE800A9DED160A4DEE400A9DED150A7B
:1039900029EE001A9DED130A0AEE401A30EE810A54
:1039A0008DED110A9DED170A6DEE000A9DED180AC6
:1039B0004CEE400A9DED140A2AEE001A9DED150A00
:1039C00008EEC01A30EE810A8DED100A9DED120A44
:1039D000B5EEC00AF1EE10FA61D09DED110AB5EE18
:1039E000C00AF1EE10FA5AD09DED100AB5EEC00AE9
:1039F000F1EE10FA53D09DED120ADFEDFE0A60EEF3
:103A0000200AFD4890ED000A00EEA90A80ED000AA8
:103A10009DED110ADFEDF70A60EE200AF74890ED00
:103A2000000A00EEA90A80ED000A9DED100ADFED04
:103A3000F10A60EE200AF24890ED000A00EEA90AB1
:103A400080ED000A9DED120AB0EE001AF0EE6A0A4F
:103A500041EE000AE84890ED000A30EE800AF0EEF0
:103A600040AA9DED110AB0EE001AF0EE4B0A41EEAD
:103A7000000AE24890ED000A30EE800AB0EE40BA4B
:103A80009DED100AB0EE001AF0EE6B0A41EE000A4E
:103A9000DB4890ED000A30EE800AF0EE40BAD948DB
:103AA00090ED000AB1EE400A20EE2A0AD648D0ED89
:103AB000000A00EECB0AD54890ED001AF0EE400A5D
:103AC00041EE6B0AD24890ED000A00EEA90A8DED96
:103AD0000F0A90ED000A20EE2A0ACB48D0ED000A2A
:103AE00000EEAB0AC94890ED001AF0EE400A41EE34
:103AF0004B0AC44890ED000A00EEA90A8DED0E0AAB
:103B0000C34890ED000A20EE0B0ABE48D0ED000A33
:103B100000EEEB0ABD4890ED001AF0EE400A41EECF
:103B20002A0AB94890ED000A00EEA90A8DED0D0AA7
:103B3000B74890ED000A20EE2B0AB248D0ED000AFB
:103B400000EE8B0AB04890ED001AF0EE400A41EE0C
:103B50006A0AAE4890ED000A00EEA90A8DED0C0A43
:103B6000DDED0F0A20EEA01ADDED0E0A00EEA01A20
:103B7000DDED0D0A00EEA01ADDED0C0A00EEA01A34
:103B8000B0EE410AFFF7AAFCB0EE408A9DED0F0AA5
:103B900020EE080A9E4880ED000A9DED0E0A20EEF8
:103BA000080A984880ED000A9DED0D0A20EE080AEB
:103BB000954880ED000A9DED0C0A20EE080A934816
:103BC00080ED000A1BB0BDEC108B00BD30B52DEDB3
:103BD0000C8B87B005460C469FED8E0A8DED020AD0
:103BE0009FED8C0A8DED010A9FED8A0A8DED000A8A
:103BF0002046FFF78FFC94ED050ADFED870A20EEE3
:103C0000200ADFED860A80EE201AB0EE418A94ED9C
:103C1000040ADFED810A20EE200ADFED800A80EE43
:103C2000201AF0EE418A94ED030ADFED7B0A20EEC4
:103C3000200ADFED7A0A80EE201AB0EE419A94ED68
:103C4000020AF0EE402A94ED010AB0EE402A94ED0B
:103C5000000AF0EE401A9FED6F4ADFED6E3A9FEDDD
:103C60006D3AB0EE481AF0EE680AB0EE490AFFF776
:103C700083FC674890ED000A8DED030A614890EDE2
:103C8000000A8DED040A604890ED000A8DED050AEA
:103C90005E4890ED000A8DED060A9DED050AF8EEEE
:103CA000000A20EE200ADDED050A20EE200ADDEDF7
:103CB000060AB0EE001A60EE810A9DED061A00EECB
:103CC000C10AF7EE000A30EE200A10EE101A08467C
:103CD00006F0F2FE41EC1C0B9DED040AF0EE000A2A
:103CE00020EE200ADDED050A20EE200ADDED030AB4
:103CF000B0EE001A60EE810A9DED061A00EE810A10
:103D000010EE101A084606F0D7FE41EC1D0BB0EE7F
:103D10004C1AF0EE6C1AB0EE4D0AF0EE6D0A05F09A
:103D2000BFFEB0EE40BAF0EE60BA51EC1B0B06F0ED
:103D300001F941EC1A0B9FED3A0B53EC102B06F0F6
:103D4000C5FB41EC190B9FED380B53EC102B06F023
:103D5000E3F941EC180B06F0F9F800EE100A85EDD6
:103D6000000A9DED040AF8EE000A20EE200ADDEDBF
:103D7000060A20EE200ADDED030AB0EE001A60EE1E
:103D8000810A9DED051A00EE810A10EE101A084610
:103D900006F092FE41EC1C0BB0EE4C0AF0EE6C0A01
:103DA00005F062FBB0EE40BAF0EE60BA51EC1B0BCE
:103DB00006F0C0F841EC1A0B9FED190B53EC102BD9
:103DC00006F084FB41EC190B9FED170B53EC102B05
:103DD00006F0A2F941EC180B06F0B8F800EE100A54
:103DE00085ED010A9DED040AF8EE000A20EE200A96
:103DF0001EE000000AD7233CA4010020A8010020F7
:103E0000AC010020B4010020B8010020BC0100205A
:103E1000B001002000000000DB0F494000003443E7
:103E2000000000000080664000000060FB210940A7
:103E3000DDED040A20EE200ADDED050AB0EE001AE1
:103E400060EE810A9DED051A00EEC10AF7EE000A48
:103E500030EE200A10EE101A084606F02DFE41EC56
:103E60001B0B9DED050AF0EE000A20EE200ADDEDA9
:103E7000060A20EE200ADDED030AB0EE001A60EE1D
:103E8000810A9DED041A00EE810A10EE101A084610
:103E900006F012FE41EC1C0BB0EE4B1AF0EE6B1A62
:103EA000B0EE4C0AF0EE6C0A05F0FAFDB0EE40AA56
:103EB000F0EE60AA1FED260B53EC102B51EC1A0B01
:103EC00006F004FB41EC190B1FED290B53EC102BF2
:103ED00006F022F941EC180B06F038F800EE100A53
:103EE00085ED020A07B0BDEC0C8B30BD10B52DED91
:103EF000028B8CB00446002009900A900B9024217C
:103F0000684604F0A6FA694609A8FFF75FFE9DED32
:103F1000030A84ED030A9DED040A84ED040A9DED75
:103F2000050A84ED050A94ED050ADFED110A20EE7D
:103F3000200A10EE101A084606F0BEFD41EC180BE0
:103F400094ED081BB0EE410AF0EE610A53EC102B21
:103F500006F02EF8C4E908019DED0A0A84ED060A70
:103F60009DED0B0A84ED0A0A0CB0BDEC028B10BD6E
:103F70006F12833A1CB50121202001F0D4F84FF4D0
:103F80006070009002208DF8040000208DF806007B
:103F900003208DF8050000208DF8070069464E4883
:103FA00000F020FE4020009001208DF80400002049
:103FB0008DF8060003208DF8050000208DF807001D
:103FC0006946454800F00EFE05220721424800F0F0
:103FD00094FE05220921404800F08FFE05220821A9
:103FE0003D4800F08AFE1CBD00B585B001210805E2
:103FF00001F0F1F80121080501F042F900214FF428
:10400000801001F03DF90020ADF800004FF48270FF
:10401000ADF802000020ADF80400ADF80600ADF8E0
:1040200008004FF40070ADF80A003020ADF80C0025
:104030000020ADF80E000A20ADF8100069462748B0
:1040400003F0A2F90121254803F098FA05B000BD5C
:1040500010B50446214800884FF6C77108401F4933
:104060000880084600882043088001211B4803F08F
:1040700085FA10BD10B5FFF77DFFFFF7B5FF3020C3
:10408000FFF7E6FF10BD70B505460126002422E0CB
:10409000012E0FD10221114803F0EEFA50B1002495
:1040A00001E0601CC4B2C82CFBDB29460B4803F0BE
:1040B000E1FA00267EB90121084803F0DDFA50B18B
:1040C000002401E0601CC4B2C82CFBDB034803F0F1
:1040D000CEFAC0B270BDDBE70014024000500140D0
:1040E00070B505460C460020F949086005F07F00D0
:1040F000F849087008460078FFF7C5FFF5480470D6
:104100000078FFF7C0FF0120F349C1F898020020B2
:1041100070BD10B504460020ED49086044F08000F1
:10412000EE49087008460078FFF7ADFF44F08000C4
:10413000FFF7A9FFEA4908700120E749C1F8980292
:10414000E748007810BD10B5044644F08000E5490A
:10415000087008460078FFF796FFE34908700846A4
:10416000007810BD70B504460D4600212A20FFF7E7
:10417000B7FF0220FEF76AFD21462920FFF7B0FFB6
:104180000220FEF763FD29466420FFF7A9FF022005
:10419000FEF75CFD81212A20FFF7A2FF0A20FEF72F
:1041A00055FD70BD70B5044621463220FFF798FFDB
:1041B0000A20FEF74BFD80213420FFF791FF0A20F3
:1041C000FEF744FD3520FFF7A4FF0546002134200B
:1041D000FFF786FF0A20FEF739FD284670BD70B54F
:1041E00004460E46154621462820FFF779FF022097
:1041F000FEF72CFD0A212920FFF772FF0220FEF7AF
:1042000025FD01216420FFF76BFF0220FEF71EFD54
:1042100044F080012520FFF763FF0220FEF716FD22
:1042200031462620FFF75CFF0220FEF70FFD032139
:104230003420FFF755FF0220FEF708FD0321672019
:10424000FFF74EFF0220FEF701FD81212A20FFF734
:1042500047FF0620FEF7FAFC45F080012720FFF714
:104260003FFF0720FEF7F2FC70BD10B530216A2039
:10427000FFF736FF0A20FEF7E9FC0D212420FFF7A7
:104280002FFF0A20FEF7E2FC0E212820FFF728FF6F
:104290000A20FEF7DBFC8E213120FFF721FF0A20E8
:1042A000FEF7D4FC01210B20FFF75CFF0020FFF795
:1042B00079FF102801D0012010BD0A20FEF7C6FCAE
:1042C00000210A20FFF74EFF0A20FFF76BFF08B11D
:1042D0000220F1E70A20FEF7B9FC00210B20FFF7CE
:1042E00041FF0B20FFF75EFF08B10320E4E70A203F
:1042F000FEF7ACFC24214120FFF734FF4120FFF7FB
:1043000051FF242801D00420D6E70A20FEF79EFCA6
:10431000C0214220FFF726FF4220FFF743FFC028BD
:1043200001D00520C8E70A20FEF790FC00212A20D2
:10433000FFF7D6FE0A20FEF789FC00213420FFF7A4
:10434000CFFE0A20FEF782FC062203210E20FFF793
:1043500046FF6420FEF77AFC0020ADE710B5044666
:10436000E006010E1C20FFF7BBFE10BD10B5044691
:10437000E006010E1B20FFF7B3FE10BD2DE9F04350
:1043800004460D46DDE9076700200021012041E0D9
:10439000DFF858C13CF81080A0F1010CDFF84C9117
:1043A00029F81C8009F1160C3CF81090A0F1010CC2
:1043B000DFF8388108F1160828F81C9008F1160C6F
:1043C0003CF81090A0F1010C08F1160828F81C9098
:1043D00008F1160C3CF81090A0F1010C08F1160839
:1043E00028F81C9008F1160C3CF81090A0F1010C74
:1043F00008F1160828F81C9008F1160C3CF81090EB
:10440000A0F1010C08F1160828F81C9000F1010C2D
:104410000CF0FF000A28BBDBDFF8D0C0ACF812407C
:10442000ACF82850ACF83E20ACF85430ACF86A60D8
:10443000ACF88070002008E0DFF8B0C03CF910C094
:10444000614400F1010C0CF0FF000A28F4DB4FF08E
:104450000A0C91FBFCFC0FFA8CFCDFF89080A8F8AA
:1044600014C0002100200AE0DFF880C00CF1160C17
:104470003CF910C0614400F1010C0CF0FF000A2867
:10448000F2DB4FF00A0C91FBFCFC0FFA8CF8DFF822
:104490005CC0ACF82A80002100200AE0DFF84CC0A4
:1044A0000CF12C0C3CF910C0614400F1010C0CF033
:1044B000FF000A28F2DB4FF00A0C91FBFCFC0FFA1C
:1044C0008CF8DFF828C0ACF840800021002018E00C
:1044D000988242420C020020008042420E020020DC
:1044E0000D020020100200200F020020A009002071
:1044F000DFF808C43CF910C0614400F1010C0CF075
:10450000FF000A28F4DB4FF00A0C91FBFCFC0FFAC9
:104510008CF8DFF8E8C3ACF1420CACF8568000210F
:1045200000200AE0DFF8D4C30CF1160C3CF910C0EF
:10453000614400F1010C0CF0FF000A28F2DB4FF09F
:104540000A0C91FBFCFC0FFA8CF8DFF8B0C3ACF15D
:10455000420CACF86C80002100200AE0DFF89CC31C
:104560000CF12C0C3CF910C0614400F1010C0CF072
:10457000FF000A28F2DB4FF00A0C91FBFCFC0FFA5B
:104580008CF8DFF878C3ACF1420CACF88280BDE85F
:10459000F0832DE9F04387B004460D4616461F46CA
:1045A000DDE90E980020D6490860BB20FFF76BFDBF
:1045B0003B20FFF7C8FD8DF80C003C20FFF7C3FD42
:1045C0008DF80D009DF80D009DF80C1040EA0120BB
:1045D00000B2CC4908803D20FFF7B5FD8DF80E00F4
:1045E0003E20FFF7B0FD8DF80F009DF80F009DF8FD
:1045F0000E1040EA012000B2C34908803F20FFF7B7
:10460000A2FD8DF810004020FFF79DFD8DF81100F0
:104610009DF811009DF8101040EA012000B2BB493E
:1046200008804120FFF78FFD8DF812004220FFF730
:104630008AFD8DF813009DF813009DF8121040EAD2
:10464000012000B2B249C8804320FFF77CFD8DF8FD
:1046500014004420FFF777FD8DF815009DF8150034
:10466000AC490989401A9DF8141040EA012000B2B3
:10467000A94908804520FFF766FD8DF81600462001
:10468000FFF761FD8DF817009DF81700A1494989D2
:10469000401A9DF8161040EA012000B29F49088098
:1046A0004720FFF750FD8DF818004820FFF74BFD1D
:1046B0008DF819009DF8190096498989401A9DF8CE
:1046C000181040EA012000B2954908800120954960
:1046D000C1F898029248B0F900009049B1F9001071
:1046E000CDE900108C48B0F900308848B0F90020BE
:1046F0008548B0F900108348B0F90000FFF73EFE8E
:104700007E484238808A20807C484238408D28800C
:104710007A484238B0F84000308078484238B0F8E3
:1047200056000A3800B2388074484238B0F86C003D
:104730000F3000B2A9F8000070484238B0F882008B
:104740001A3800B2A8F80000B8F8000076490880CE
:1047500007B0BDE8F083F0B5DDE90545674E423EA0
:10476000B68A0680654E423E768D0E80634E423E8E
:10477000B6F840601680614E423EB6F856606B4F08
:104780003F88F61B36B21E805C4E423EB6F86C6027
:10479000674F3F88F61B36B22680584E423EB6F829
:1047A0008260644F3F88F61B36B22E80F0BD2DE943
:1047B000F04786B00024002500260027A046A14629
:1047C000A24600BF0FE06420FEF7F8F90DF11600D5
:1047D00005A9031F04AACDE90010891F03A8FFF74C
:1047E000D8FE601CC4B2322CEDDB002421E0C820CE
:1047F000FEF7E4F90DF1160005A9031F04AACDE99F
:104800000010891F03A8FFF7C4FEBDF90C00804407
:10481000BDF90E008144BDF910008244BDF91200BB
:104820000544BDF914000644BDF916000744601C98
:10483000C4B2642CDBDB642095FBF0F000B23B4992
:104840000880642096FBF0F000B2394908806420AB
:1048500097FBF0F000B23749088006B0BDE8F0875A
:1048600010B5024600210AE0334C34F9114094425D
:1048700003D1314C34F9113003E04C1CE1B208296A
:10488000F2DB00BFD41A20B210BD10B586B00024F0
:1048900014222A4901A803F0AAFD6420FEF7D6F9E4
:1048A000FFF7E8FB6420FEF7D1F97520FFF731FC34
:1048B000702805D022A003F0D9FCFF2006B010BD5F
:1048C00000240DE001AA02EB4402517801AA12F87B
:1048D0001400FFF705FC0120FEF7B8F9601CC4B214
:1048E0000A2CEFDB0020E9E710B502E0C820FEF754
:1048F000ADF9FFF7CAFFFF28F8D010BDE20900208C
:1049000098824242D6010020D8010020DA0100201E
:10491000780900208C090020DC010020DE01002045
:10492000E001002000804242E2010020D00100208E
:10493000D2010020D4010020E4010020B4AC000822
:104940006572726F722031410D0A00001CB50121A1
:10495000102000F0E8FB0220009000208DF80400F9
:1049600003208DF8050002208DF8070069462048D5
:1049700000F038F91CBD08B507208DF800000020B4
:104980008DF801008DF8020001208DF803006846C3
:1049900000F037F808BD1CB50121880300F01BFCAE
:1049A0000121042000F023FD0220009000208DF85A
:1049B00004000C208DF8050001208DF806006846E3
:1049C00003F0B8FB1CBD10B5FFF7C0FFFFF7D3FF26
:1049D000FFF7E1FF10BD10B5022003F011FC10B18C
:1049E0000448FFF783FA022003F015FC10BD000015
:1049F00000100240D008002032490143324A1160C1
:104A0000704770B5002100230F22C4781CB32E4CD0
:104A1000246804F4E064C4F5E064C4F30721C1F140
:104A20000404E3B20A4144789C40E1B28478144023
:104A300021430C07210E254C05786155047804F0BC
:104A40001F050124AC4005786D11AD0005F1E0258E
:104A5000C5F8004109E0047804F01F050124AC40CA
:104A60001B4D0678761145F8264070BD194A0A405C
:104A70000243154B1B1F1A60704739B1124A121DB1
:104A800012680243104B1B1D1A6006E00E4A121DED
:104A9000126882430C4B1B1D1A607047042808D112
:104AA0004FF0E021096941F004014FF0E02211616B
:104AB00007E04FF0E021096921F004014FF0E02206
:104AC000116170470000FA050CED00E000E400E021
:104AD00080E100E080FFFF1F10B504469848844243
:104AE00008D10121084600F087FB0021012000F0D9
:104AF00083FB76E09348844208D10121022000F034
:104B00007BFB0021022000F077FB6AE08E488442A4
:104B100008D10121042000F06FFB0021042000F0E7
:104B20006BFB5EE08948844208D10121082000F037
:104B300063FB0021082000F05FFB52E084488442C0
:104B400008D10121102000F057FB0021102000F0B7
:104B500053FB46E07F48844208D10121202000F029
:104B60004BFB0021202000F047FB3AE07A488442CA
:104B700008D10121402000F03FFB0021402000F03F
:104B80003BFB2EE07548844208D10121802000F0D3
:104B900033FB0021802000F02FFB22E0704884428C
:104BA00008D10121801500F027FB0021A01500F09D
:104BB00023FB16E06B48844208D10121401500F028
:104BC0001BFB0021601500F017FB0AE066488442D9
:104BD00007D10121001500F00FFB0021201500F086
:104BE0000BFB10BDF0B50A4600210023002400BFD6
:104BF0003DE0012505FA01F3156805EA03049C422E
:104C000034D105684F000326BE40B54305601579D1
:104C10004E00B5400668354305601579012D02D078
:104C20001579022D16D185684F000326BE40B54385
:104C3000856055794E00B540866835438560456886
:104C400001268E40B5434560456896798E40B6B2E0
:104C500035434560C5684F000326BE40B543C56077
:104C6000D5794E00B540C6683543C560491C10294A
:104C7000BFD3F0BD4FF6FF7101600021017141719A
:104C80008171C171704708B54FF480320092009A6B
:104C90000A430092009AC261C161009AC261C2696E
:104CA0000092C269009208BD0246002013690B40C1
:104CB0000BB1012000E0002070470146086980B276
:104CC00070470246002053690B400BB1012000E001
:104CD000002070470146486980B2704701837047E1
:104CE000418370470AB1018300E04183704741610D
:104CF000704742694A4042617047F0B50023002482
:104D00004D07ED0E02FA05F3CE1000F1200555F81F
:104D100026504E07F70E0F26BE40B543CF1000F1C8
:104D2000200646F82750CE1000F1200555F82650F1
:104D300045EA0304CE1000F1200545F82640F0BDF9
:104D4000000002400004024000080240000C024043
:104D5000001002400014024000180240001C0240F3
:104D6000002002400024024000280240F64800686B
:104D700040F00100F44908600020F3490831086060
:104D8000F1480068F1490840EF490860F048091D02
:104D90000860F048EC4984310860ED481038091D7E
:104DA0000860E948006820F48020E7490860002096
:104DB000E5490C310860E4498C31086070470121F5
:104DC000E14A921C117011460870704710B50146F7
:104DD0000022002300204A11012A02D1DA4C236864
:104DE00008E0022A03D1D84C7034236802E0D64C84
:104DF0007434236801F01F02012494401C400CB15C
:104E0000012000E0002010BD38B5002000900024F3
:104E1000002500BF3120FFF7D9FF05460098401C50
:104E200000900098B0F5A04F01D0002DF2D03120B5
:104E3000FFF7CCFF08B1012400E00024204638BD74
:104E400001460020C04A106820F0F80040EAC10086
:104E500010607047C049086070470021BA4A70323C
:104E600011701170012802D004280AD104E0012138
:104E7000B54A7032117005E00521B34A70321170E5
:104E800000E000BF00BF7047B4490860704770B5CC
:104E9000049C41EA82150126C6EB530645EA064505
:104EA000054345EA0465A84E361D356070BDAA4924
:104EB0000866704710B5830143EA016343EA027351
:104EC000A14C8434236010BDA3498866704710B597
:104ED000830143EA016343EA02739B4C88342360F5
:104EE00010BD9D49086770479B49C86470470246DA
:104EF0000020954B0833186820F0EC6042EA01036B
:104F00001843914B083318607047024600208E4BBF
:104F10000833186820F0784042EA010318438A4BAE
:104F200008331860704701460020874A083210682D
:104F300020F0030008431060704783480830006881
:104F400000F00C007047014600207F4A08321068CC
:104F500020F0F000084310607047014600207A4AB4
:104F60000832106820F4E050084310607047014692
:104F70000020754A0832106820F4604040EAC10001
:104F800010607047F0B500210022002402250026A1
:104F900002236D4F08373F6807F00C0121B1042947
:104FA00005D0082937D105E06D4F076036E06D4F19
:104FB000076033E0644F3F1D3F68C7F38056624F80
:104FC0003F1D3F6807F03F036EB1664FB7FBF3F735
:104FD000DFF874C10CF1040CDCF800C0CCF3881CC1
:104FE00007FB0CF40CE05E4FB7FBF3F7DFF858C19A
:104FF0000CF1040CDCF800C0CCF3881C07FB0CF4AB
:10500000514F3F1D3F68C7F301477F1C7D00B4FB34
:10501000F5F7076002E0524F076000BF00BF4A4F3C
:1050200008373F6807F0F00109094F4F7A5C0768BD
:10503000D7404760444F08373F6807F4E051890A7A
:10504000494F7A5C4768D74087603F4F08373F68D1
:1050500007F46041490B444F7A5C4768D740C7600A
:10506000F0BD002100F44072B2F5407F0AD1364A0B
:105070000832116821F4F8113C4A02401143324AC7
:1050800008321160304A70321268C0F30B031A43C1
:105090002D4B70331A6070473049443908607047AF
:1050A0002E49403908607047314908607047014611
:1050B0000020254A8C32106820F01F004A1E104341
:1050C000214A8C3210607047014600201E4A8C3203
:1050D000106820F4F8504A1E40EA02201A4A8C3226
:1050E0001060704701460020174A8C32106820F487
:1050F000401008431060704701460020124A8C326D
:10510000106820F4400008431060704701460020FA
:105110000D4A8C32106820F440300843106070470C
:1051200014490860704739B1074A303212680243A7
:10513000054B30331A6006E0034A3032126882436E
:10514000014B30331A60704700380240FFFFF6EA27
:10515000103000240030002000004742800E4742FB
:105160000024F400001BB70011020020FFFCFF0F19
:105170005C014742E011474229B1934A1268024359
:10518000914B1A6004E0904A126882438E4B1A6079
:10519000704739B18C4A121D126802438A4B1B1D9D
:1051A0001A6006E0884A121D12688243864B1B1D56
:1051B0001A60704739B1844A0C3212680243824B3C
:1051C0000C331A6006E0804A0C32126882437E4B30
:1051D0000C331A60704739B17B4A103212680243AF
:1051E000794B10331A6006E0774A10321268824316
:1051F000754B10331A60704739B1734A243A1268FC
:105200000243714B243B1A6006E06F4A243A12684D
:1052100082436D4B243B1A60704739B16A4A203A89
:1052200012680243684B203B1A6006E0664A203A47
:1052300012688243644B203B1A60704739B1624A5E
:105240001C3A12680243604B1C3B1A6006E05E4A3F
:105250001C3A126882435C4B1C3B1A60704739B1A0
:10526000594A143A12680243574B143B1A6006E03D
:10527000554A143A12688243534B143B1A607047E4
:1052800039B1514A103A126802434F4B103B1A6031
:1052900006E04D4A103A126882434B4B103B1A60AD
:1052A000704739B1484A1C3212680243464B1C33DE
:1052B0001A6006E0444A1C3212688243424B1C3397
:1052C0001A60704739B1404A2032126802433E4B9F
:1052D00020331A6006E03C4A2032126882433A4B7F
:1052E00020331A60704739B1374A243212680243BA
:1052F000354B24331A6006E0334A24321268824365
:10530000314B24331A60704739B12F4A2C3212685E
:1053100002432D4B2C331A6006E02B4A2C321268C4
:105320008243294B2C331A60704739B1264A3032F8
:1053300012680243244B30331A6006E0224A3032AE
:1053400012688243204B30331A607047012808D11D
:105350001D493C31096841F008011B4A3C3211608B
:1053600007E019493C31096821F00801164A3C322E
:105370001160704739B1144A273A12780243124B30
:10538000273B1A7006E0104A273A127882430E4BE8
:10539000273B1A7070470C484030006840F080701E
:1053A000094940310860704701460020064A283A02
:1053B00012680A400AB1012000E00020704702494B
:1053C00026390870704700003438024010B50121BA
:1053D0008803FFF755FF00214FF48040FFF750FF8F
:1053E00010BD1C49086070471B490862704730B502
:1053F00000228B071C0F0F2303FA04F2154B08330E
:105400008C1053F824309343124C08348D1044F818
:10541000253023468C1053F824308C07240F00FAD3
:1054200004F423430B4C08348D1044F8253030BD70
:105430000949DC310860704708490860704700205E
:1054400004492031096801F4807109B1012000E0AC
:105450000020704700380140000027420004274226
:1054600010B50446FA48844208D101211020FFF704
:1054700007FF00211020FFF703FF57E0F5488442A3
:1054800009D101214804FFF7EAFE00214FF4003062
:10549000FFF7E5FE4AE0F048844209D10121880483
:1054A000FFF7DDFE00214FF48020FFF7D8FE3DE03E
:1054B000EA48844209D10121C804FFF7D0FE002147
:1054C0004FF40020FFF7CBFE30E0E548844209D1DD
:1054D00001210805FFF7C3FE00214FF48010FFF7FC
:1054E000BEFE23E0DF48844208D101212020FFF7DF
:1054F000C7FE00212020FFF7C3FE17E0DA488442F0
:1055000009D101218807FFF7AAFE00214FF0804052
:10551000FFF7A5FE0AE0D548844207D101214005E6
:10552000FFF79DFE00216005FFF799FE10BD2DE9F4
:10553000FF4705460E460024A14600BFA046B0899D
:1055400000B100BF2C8A24F44054F08804432C821C
:10555000AC8941F20C608443B08831890843718979
:1055600008430443AC81AC8A24F44074B0890443FA
:10557000AC826846FFF706FDB548854202D0B948BF
:10558000854202D1DDF80C9001E0DDF80890A88991
:1055900000F4004040B109EBC90000EB091031688C
:1055A0004900B0FBF1F707E009EBC90000EB091077
:1055B00031688900B0FBF1F76420B7FBF0F004011B
:1055C0002009642101FB1078A88900F4004040B153
:1055D000322000EBC800B0FBF1F000F007000443FC
:1055E00008E0322000EB08106421B0FBF1F000F07D
:1055F0000F0004432C81BDE8FF874FF41651016072
:1056000000218180C18001810C21418100218181A3
:10561000704710B502460020108A20F470600B8895
:105620004C8823438C882343CC882343184310821F
:1056300010BD0021018041808180C180704721B16F
:10564000828942F40052828104E082894DF6FF7320
:105650001A4082817047028B02F47F420283028BE0
:105660000A430283704721B1828942F40042828159
:1056700003E08289C2F30E028281704721B1828ADF
:1056800042F40062828204E0828A4FF2FF731A4081
:1056900082827047C1F30802828070470146888881
:1056A000C0F308007047028A4FF6F0731A40028276
:1056B000028A0A430282704721B1828942F00202C3
:1056C000828104E082894FF6FD731A40828170471F
:1056D00082894FF2FF731A40828182890A43828154
:1056E0007047028A4FF6DF731A400282028A0A4329
:1056F0000282704721B1028A42F48042028204E0B1
:10570000028A4BF6FF731A4002827047818941F08A
:1057100001018181704721B1828A42F008028282B0
:1057200004E0828A4FF6F7731A4082827047028B38
:10573000D2B20283028B42EA01220283704721B176
:10574000828A42F02002828204E0828A4FF6DF736E
:105750001A408282704721B1828A42F0100282820E
:1057600004E0828A4FF6EF731A4082827047828A81
:105770004FF6FB731A408282828A0A438282704704
:1057800021B1828A42F00202828204E0828A4FF6CC
:10579000FD731A40828270471AB1838A0B43838259
:1057A00002E0838A8B4383827047F0B5034600246E
:1057B00000260025002040F66A17B94200D100BF3C
:1057C0001846C1F3421401F01F06012707FA06F537
:1057D000012C01D10C3004E0022C01D1103000E08A
:1057E00014301AB107682F43076002E00768AF431F
:1057F0000760F0BD02460020B1F5007F00D100BF78
:1058000013880B400BB1012000E00020704701F429
:105810000072B2F5007F00D100BFCA43028070471A
:1058200070B50246002400230025002040F66A16C9
:10583000B14200D100BFC1F3421501F01F030126A0
:1058400006FA03F3012D13D19689334017E00000C7
:10585000001001400044004000480040004C00405F
:10586000005000400014014000780040007C0040DF
:10587000022D02D1168A334001E0968A33400C1281
:10588000012606FA04F41688344013B10CB1012045
:1058900000E0002070BD10B50022002340F66A141D
:1058A000A14200D100BF0A1201249440A3B2DC43FC
:1058B000048010BD10B50446FE48844209D1012180
:1058C0004806FFF7CCFC00214FF00070FFF7C7FC43
:1058D00008E001218806FFF7C2FC00214FF080603C
:1058E000FFF7BDFC10BD30B5024600200023146850
:1058F00024F002041460146844F00104146000E011
:105900005B1C546804F001041CB94FF6FF74A342F9
:10591000F6D1546804F001040CB900206CE08C79D5
:10592000012C04D1146844F08004146003E014686E
:1059300024F080041460CC79012C04D1146844F064
:105940004004146003E0146824F0400414600C7AEE
:10595000012C04D1146844F02004146003E014689E
:1059600024F0200414604C7A012C04D1146844F013
:105970001004146003E0146824F0100414608C7A9E
:10598000012C04D1146844F00804146003E0146886
:1059900024F008041460CC7A012C04D1146844F07B
:1059A0000404146003E0146824F0040414608C7888
:1059B000A407CD7844EA05640D7944EA05444D799D
:1059C00044EA05540D886D1E2C43D461146824F0FC
:1059D00001041460002300E05B1C546804F001041F
:1059E0001CB14FF6FF74A342F6D1546804F00104D1
:1059F0000CB1002000E0012030BD10B50021837AF9
:105A0000012202FA03F1AC4A126842F00102AA4BE9
:105A10001A60A94A1C3212688A43A74B1C331A60C9
:105A2000027BCAB9A44A0C3212688A43A24B0C33D7
:105A30001A604288C38842EA03439F4A4032847A0C
:105A400042F834300288838842EA03439A4A40325B
:105A5000847A02EBC4025360027B012A19D1964A70
:105A60000C3212680A43944B0C331A604288038844
:105A700042EA0343904A4032847A42F83430C28882
:105A8000838842EA03438C4A4032847A02EBC402A0
:105A90005360C27A3AB9884A121D12688A43864B0B
:105AA0001B1D1A6006E0844A121D12680A43824BCD
:105AB0001B1D1A60028932B97F4A143212688A4368
:105AC0007D4B14331A600289012A06D17A4A1432B6
:105AD00012680A43784B14331A60427B012A06D1BC
